S0030000FC
S3FD0000000060FFFF1F190A0000AD040000AD040000AD040000AD040000AD040000AD040000AD040000AD040000AD040000AD040000AD040000AD040000AD040000AD040000AD040000AD040000AD040000AD040000AD040000AD040000AD040000AD040000AD040000CD0F0000AD040000AD040000AD040000AD040000AD040000AD040000AD040000AD040000AD040000AD040000AD040000AD040000AD040000AD040000AD040000AD040000AD040000AD040000AD040000AD040000AD040000AD040000AD040000AD040000AD040000AD040000AD040000AD040000AD040000AD040000AD040000AD040000E52C0000AD040000AD040000AD0400005B
S3FD000000F8FFFFFFFFFFFFFFFFFFFFFFFFFFFFFFFFFFFFFFFFFFFFFFFFFFFFFFFFFFFFFFFFFFFFFFFFFFFFFFFFFFFFFFFFFFFFFFFFFFFFFFFFFFFFFFFFFFFFFFFFFFFFFFFFFFFFFFFFFFFFFFFFFFFFFFFFFFFFFFFFFFFFFFFFFFFFFFFFFFFFFFFFFFFFFFFFFFFFFFFFFFFFFFFFFFFFFFFFFFFFFFFFFFFFFFFFFFFFFFFFFFFFFFFFFFFFFFFFFFFFFFFFFFFFFFFFFFFFFFFFFFFFFFFFFFFFFFFFFFFFFFFFFFFFFFFFFFFFFFFFFFFFFFFFFFFFFFFFFFFFFFFFFFFFFFFFFFFFFFFFFFFFFFFFFFFFFFFFFFFFFFFFFFFFFFFFFFFFFFFFFFFFFFFFFFFFFFFFFFFFFFFFFFFFFFFFFFFFFFFFFFFFFFFFFFFFFFFFFFFFFFFFFFFFFFFFFFFFFFFFFFFFFFFFFFFFFFFF02
S3FD000001F0FFFFFFFFFFFFFFFFFFFFFFFFFFFFFFFFFFFFFFFFFFFFFFFFFFFFFFFFFFFFFFFFFFFFFFFFFFFFFFFFFFFFFFFFFFFFFFFFFFFFFFFFFFFFFFFFFFFFFFFFFFFFFFFFFFFFFFFFFFFFFFFFFFFFFFFFFFFFFFFFFFFFFFFFFFFFFFFFFFFFFFFFFFFFFFFFFFFFFFFFFFFFFFFFFFFFFFFFFFFFFFFFFFFFFFFFFFFFFFFFFFFFFFFFFFFFFFFFFFFFFFFFFFFFFFFFFFFFFFFFFFFFFFFFFFFFFFFFFFFFFFFFFFFFFFFFFFFFFFFFFFFFFFFFFFFFFFFFFFFFFFFFFFFFFFFFFFFFFFFFFFFFFFFFFFFFFFFFFFFFFFFFFFFFFFFFFFFFFFFFFFFFFFFFFFFFFFFFFFFFFFFFFFFFFFFFFFFFFFFFFFFFFFFFFFFFFFFFFFFFFFFFFFFFFFFFFFFFFFFFFFFFFFFFFFFFFFFF09
S3FD000002E8FFFFFFFFFFFFFFFFFFFFFFFFFFFFFFFFFFFFFFFFFFFFFFFFFFFFFFFFFFFFFFFFFFFFFFFFFFFFFFFFFFFFFFFFFFFFFFFFFFFFFFFFFFFFFFFFFFFFFFFFFFFFFFFFFFFFFFFFFFFFFFFFFFFFFFFFFFFFFFFFFFFFFFFFFFFFFFFFFFFFFFFFFFFFFFFFFFFFFFFFFFFFFFFFFFFFFFFFFFFFFFFFFFFFFFFFFFFFFFFFFFFFFFFFFFFFFFFFFFFFFFFFFFFFFFFFFFFFFFFFFFFFFFFFFFFFFFFFFFFFFFFFFFFFFFFFFFFFFFFFFFFFFFFFFFFFFFFFFFFFFFFFFFFFFFFFFFFFFFFFFFFFFFFFFFFFFFFFFFFFFFFFFFFFFFFFFFFFFFFFFFFFFFFFFFFFFFFFFFFFFFFFFFFFFFFFFFFFFFFFFFFFFFFFFFFFFFFFFFFFFFFFFFFFFFFFFFFFFFFFFFFFFFFFFFFFFFFF10
S3FD000003E0FFFFFFFFFFFFFFFFFFFFFFFFFFFFFFFFFFFFFFFFFFFFFFFFFFFFFFFFFFFFFFFFFFFFFFFFFFFFFFFFFFFFFFFFFEFFFFFF2DE9F843DFF87610DFF8760081420DD0002408E0A100DFF86A004258A100DFF85E004250641CB4F5807FF3D3DFF84E0000F024FBDFF84E50DFF84E70DFF84E80A8EB050405E038467F1C29466D1C007808702046641E0028F5D1DFF83660DFF83690A9EB060403E03146761C002008702046641E0028F7D1BDE8F843704700E0FF1F0000000010E4FF1F203D0000EDF6FF1FF0F6FF1F59F7FF1F000008B5DFF818004EF60451CEF20001097802F052FEBDE808407047C04610E4FF1F08B582B048F23801C4F204017F
S3FD000004D8086840F4785008604DF20200C4F20700007800F00800002807D04DF20201C4F20701087840F0080008704FF4803148F24400C4F2040001604DF20200C4F20700007800F00800002807D04DF20201C4F20701087840F008000870192000900120019041F20020C0F27A0000210122042300F04AFFDFF860110860DFF85C010068B0F5807F00DAFEE7DFF84C0100684FF47A7103F049FADFF844110860DFF83C01016848F24400C4F20400006800F07040000F401CB1FBF0F1DFF824010160DFF81C01016848F24400C4F20400006800F07060000E401CB1FBF0F1DFF80801016000F082F800F090F84BF20001C4F206014AF20000C4F20600DE
S3FD000005D081420DD14FF440714CF21800C4F2040001604FF440714CF21C00C4F2040001604BF20001C4F206014BF20000C4F2060081420DD14FF440714DF20000C4F2040001604FF440714DF20400C4F2040001604BF20001C4F206014CF20000C4F2060081420DD14FF440714CF20C00C4F2040001604FF440714CF20800C4F2040001604BF20001C4F206014AF20000C4F20600814209D04BF20001C4F206014BF20000C4F2060081420BD14BF20000C4F20600DFF8341009684FF4E13201F07DFE0AE04BF20000C4F20600DFF8201009684FF4E13201F071FE02B0BDE808407047C04604F7FF1F00F7FF1FFCF6FF1FF8F6FF1F48F20401C4F204012B
S3FD000006C8086840F4805008604FF4E06149F21800C4F204000160704748F20402C4F2040211686FF0E0000840106048F20401C4F20401086840F0400008604FF4A8614BF20C00C4F2040001607047000008B501F0C3FEFFF779FEFFF7D5FE01F0E7FA00F003F801F0DBFEFEE708B5DFF85E0248F22401C4F20401096801F07001090902F00DFD48F22400C4F20400006800F070000009042826D84FEA80008744F0BF00F008B800F00BB800F00EB800F011B800F014B8DFF81A0202F0F1FC17E0DFF8120202F0ECFC12E0DFF80E0202F0E7FC0DE0DFF8060202F0E2FC08E0DFF8020202F0DDFC03E0DFF8FA0102F0D8FCDFF8F60148F22401C4F20401FD
S3FD000007C0096801F00F0102F0CDFC48F22400C4F20400006800F00F000E2853D84FEA80008744F0BF00F04EB800F04CB800F018B800F048B800F019B800F01CB800F01FB800F022B800F025B800F028B800F02BB800F038B800F02CB800F034B800F02DB8DFF88E0102F09EFC30E0DFF88A0102F099FC2BE0DFF8820102F094FC26E0DFF87E0102F08FFC21E0DFF8760102F08AFC1CE0DFF8720102F085FC17E0DFF86A0102F080FC12E0DFF8660102F07BFC0DE0DFF85E0102F076FC08E0DFF85A0102F071FC03E0DFF8520102F06CFCDFF84E0148F22401C4F20401096801F47041090B02F060FC48F22400C4F20400006800F47040000B002804D0C0
S3FD000008B8012807D002280AD00EE0DFF81E0102F04DFC0DE0DFF8160102F048FC08E0DFF8120102F043FC03E0DFF80A0102F03EFC00F094F8DFF8020147F20001C4F20401096801F47041090B02F030FC47F20000C4F20400006800F47040000B092835D84FEA80008744F0BF00F030B800F010B800F02CB800F011B800F028B800F012B800F024B800F013B800F016B800F019B8DFF8AA0002F00AFC1CE0DFF8A60002F005FC17E0DFF89E0002F000FC12E0DFF89A0002F0FBFB0DE0DFF8920002F0F6FB08E0DFF88E0002F0F1FB03E0DFF8860002F0ECFBBDE8084070473EE4FF1F4EE4FF1F54E4FF1F5AE4FF1F60E4FF1F66E4FF1F6CE4FF1F92E4C3
S3FD000009B0FF1FA2E4FF1FA9E4FF1FB0E4FF1FB7E4FF1FBEE4FF1FC5E4FF1FCDE4FF1FD5E4FF1FDDE4FF1FE5E4FF1FEDE4FF1F13E5FF1F25E5FF1F36E5FF1F47E5FF1F58E5FF1F97E5FF1FAEE5FF1FC0E5FF1FD3E5FF1FE6E5FF1FF9E5FF1F0CE6FF1F20E6FF1F000070470000DFF8400085464FF000004FF000014FF000024FF000034FF000044FF000054FF000064FF000074FF000084FF000094FF0000A4FF0000B4FF0000C62B6FFF75EFEFFF7FEBF60FFFF1F4EF61051CEF20001086840F00400086030BF70474EF61052CEF2000211686FF004000840106030BF704700000FB400994EF60850CEF20000016004B07047000038B504463D2C03DD04
S3FD00000AA8DFF8C20002F05AFB201104EBD0604511002D04D0012D1DD0022D36D04FE00122E10FC1EBC46001EBF06002FA00F14EF28020CEF2000001600122E10FC1EBC46001EBF06002FA00F14EF20010CEF20000016034E00122E10FC1EBC46001EBF06002FA00F14EF28420CEF2000001600122E10FC1EBC46001EBF06002FA00F14EF20410CEF20000016019E00122E10FC1EBC46001EBF06002FA00F14EF28820CEF2000001600122E10FC1EBC46001EBF06002FA00F14EF20810CEF200000160BDE838407047C0463CE6FF1F00000FB470B506460D464CF20000C4F20700047806F00100002810D0E8B200F003002043C4B2DFF8C40302F0E2FA9E
S3FD00000BA04CF20501C4F20701087840F00100087006F00200002811D0A800C0B200F00C002043C4B2DFF89C0302F0CCFA4CF20501C4F20701087840F00200087006F00400002811D02801C0B200F030002043C4B2DFF8740302F0B6FA4CF20501C4F20701087840F00400087006F00800002811D0A801C0B200F0C0002043C4B2DFF84C0302F0A0FA4CF20501C4F20701087840F0080008704CF20000C4F2070004704CF20100C4F20700047806F01000002810D0E8B200F003002043C4B2DFF8140302F081FA4CF20501C4F20701087840F01000087006F02000002811D0A800C0B200F00C002043C4B2DFF8EC0202F06BFA4CF20501C4F20701087802
S3FD00000C9840F02000087006F04000002811D02801C0B200F030002043C4B2DFF8C40202F055FA4CF20501C4F20701087840F04000087006F08000002811D0A801C0B200F0C0002043C4B2DFF89C0202F03FFA4CF20501C4F20701087840F0800008704CF20100C4F2070004704CF20200C4F20700047806F48070002810D0E8B200F003002043C4B2DFF8600202F020FA4CF20601C4F20701087840F00100087006F40070002811D0A800C0B200F00C002043C4B2DFF8380202F00AFA4CF20601C4F20701087840F00200087006F48060002811D02801C0B200F030002043C4B2DFF8100202F0F4F94CF20601C4F20701087840F00400087006F40060FE
S3FD00000D90002811D0A801C0B200F0C0002043C4B2DFF8E80102F0DEF94CF20601C4F20701087840F0080008704CF20200C4F2070004704CF20300C4F20700047806F48050002810D0E8B200F003002043C4B2DFF8B00102F0BFF94CF20601C4F20701087840F01000087006F40050002811D0A800C0B200F00C002043C4B2DFF8880102F0A9F94CF20601C4F20701087840F02000087006F48040002811D02801C0B200F030002043C4B2DFF8600102F093F94CF20601C4F20701087840F04000087006F40040002811D0A801C0B200F0C0002043C4B2DFF8380102F07DF94CF20601C4F20701087840F0800008704CF20300C4F20700047006A80178D0
S3FD00000E884CF20400C4F207000170DFF80C014CF20001C4F20701097802F060F9DFF8FC004CF20101C4F20701097802F057F9DFF8F0004CF20201C4F20701097802F04EF9DFF8E0004CF20301C4F20701097802F045F9DFF8D4004CF20401C4F20701097802F03CF9DFF8C4004CF20501C4F20701097802F033F9DFF8B8004CF20601C4F20701097802F02AF9DFF8A8004CF20701C4F20701097802F021F9DFF89C004CF20801C4F20701097802F018F9DFF88C004CF20901C4F20701097802F00FF9DFF880004CF20A01C4F20701097802F006F9BDE8704004B0704774E6FF1FC9E6FF1F16E7FF1F62E7FF1FAFE7FF1FFFE7FF1F56E8FF1FA2E8FF1F18
S3FD00000F80EDE8FF1F39E9FF1F85E9FF1FC9E9FF1F0DEAFF1F5AEAFF1F9CEAFF1FEFEAFF1F44EBFF1F5DEBFF1F72EBFF1F8BEBFF1FA0EBFF1FB9EBFF1FCEEBFF1FE7EBFF1FFCEBFF1F15ECFF1F2AECFF1F10B54CF20500C4F20700007800F00100002807D04CF20501C4F20701087840F0010008704CF20500C4F20700007800F00200002807D04CF20501C4F20701087840F0040008704CF20500C4F20700007800F00400002807D04CF20501C4F20701087840F0040008704CF20500C4F20700007800F00800002807D04CF20501C4F20701087840F0080008704CF20500C4F20700007800F01000002807D04CF20501C4F20701087840F010000870AC
S3FD000010784CF20500C4F20700007800F02000002807D04CF20501C4F20701087840F0200008704CF20500C4F20700007800F04000002807D04CF20501C4F20701087840F0400008704CF20500C4F20700007800F08000002807D04CF20501C4F20701087840F0800008704CF20600C4F20700007800F00100002807D04CF20601C4F20701087840F0010008704CF20600C4F20700007800F00200002807D04CF20601C4F20701087840F0020008704CF20600C4F20700007800F00400002807D04CF20601C4F20701087840F0040008704CF20600C4F20700007800F00800002807D04CF20601C4F20701087840F0080008704CF20600C4F20700007824
S3FD0000117000F01000002807D04CF20601C4F20701087840F0100008704CF20600C4F20700007800F02000002807D04CF20601C4F20701087840F0200008704CF20600C4F20700007800F04000002817D048F23801C4F20401086840F4805008604CF20601C4F20701087840F0400008704CF21001C4F20401086840F0807008604CF20600C4F20700007800F0800000283DD048F23801C4F20401086840F4805008604AF20000C4F2060001F027F90446DFF8B601826EDFF8B201806E411EDFF8AA018166002A0DD0DFF89E01426EDFF89A01406E411CDFF892014166E0B21070107804E02046DFF8861101F00BFF4CF20601C4F20701087840F08000D1
S3FD0000126808704CF21801C4F20401086840F0807008604CF20700C4F20700007800F00100002807D04CF20701C4F20701087840F0010008704CF20700C4F20700007800F00200002807D04CF20701C4F20701087840F0020008704CF20700C4F20700007800F00400002807D04CF20701C4F20701087840F0040008704CF20700C4F20700007800F00800002807D04CF20701C4F20701087840F0080008704CF20700C4F20700007800F01000002807D04CF20701C4F20701087840F0100008704CF20700C4F20700007800F02000002807D04CF20701C4F20701087840F0200008704CF20700C4F20700007800F04000002807D04CF20701C4F207015D
S3FD00001360087840F0400008704CF20700C4F20700007800F08000002807D04CF20701C4F20701087840F0800008704CF20800C4F20700007800F08000002807D04CF20801C4F20701087840F0800008704CF20900C4F20700007800F08000002807D04CF20901C4F20701087840F080000870BDE810407047C04620F6FF1F64F6FF1F00000FB42DE9F84F06469846DDF838B044F20600C4F20600007800F00C008008002811D144F20600C4F20600007800F01000002808D044F20600C4F20600007800F02000002801D001209EE14FF28000C0F2FA20864201DD212096E10CA8007800280DD04CF2C060C0F22D00864205DB44F60000C0F2E8108642C9
S3FD0000145801DD222084E10BA80078002802D001210BA80170B8F1010F02DBB8F1190F01DD412075E1BBF1180F02DBBBF1370F01DD42206DE196FBF8F948F28040C0F21E00814505DB40F60010C0F23D00814501DD43205DE196FBF8F00BFB00FA46F60040C0F2DC20824505DB4EF20010C0F2F550824501DD45204BE144F20100C4F20600047804F0C3044CF2C060C0F22D0086420BDC0BA80078C00040F010000CA9097889000843C0B204430AE00BA80078C00040F020000CA9097889000843C0B2044344F20100C4F20600047041F2D020C0F21300864201DC002720E042F2A050C0F22600864201DC012718E044F64030C0F24C00864201DC022709
S3FD0000155010E049F28060C0F29800864201DC032708E042F60050C0F23110864201DC042700E0052744F20000C4F20600047804F00304F800C0B200F0380040F08000C4B244F20000C4F2060004700CA8007800281BD000250AE044F20600C4F20600007800F00200002805D16D1C2DB242F210708542F0DB44F20600C4F20600007800F00200002801D12320C6E000250BE044F20600C4F20600007800F00C008008022804D06D1C2DB2B5F5FA6FF0DB44F20600C4F20600007800F00C008008022801D01A20A9E044F20501C4F20601087840F02000087044F20400C4F20600047804F0E004A8F10100C0B2C0B200F01F002043C4B244F20400C4F237
S3FD000016480600047044F20500C4F20600047804F0E004ABF11800C0B2C0B200F01F0040F04000C0B2044344F20500C4F20600047000250AE044F20600C4F20600007800F02000002804D16D1C2DB2B5F5FA6FF1DB44F20600C4F20600007800F02000002801D116205CE000250AE044F20600C4F20600007800F04000002804D16D1C2DB2B5F5FA6FF1DB44F20600C4F20600007800F04000002801D1442041E044F20400C4F20600007800F01F00401CC1B200A8417044F20500C4F20600007800F01F001830C1B200A8017044F20001C4F20601087800F03F00087000250BE044F20600C4F20600007800F00C008008032804D06D1C2DB2B5F5FA6F43
S3FD00001740F0DB44F20600C4F20600007800F00C008008032801D01B2006E000A8017800A8407896FBF0F04843BDE8F84F04B070470FB418B444F20600C4F20600007800F00C008008032811D144F20600C4F20600007800F01000002808D144F20600C4F20600007800F02000002801D1082025E044F20001C4F20601087840F08000087000240BE044F20600C4F20600007800F00C008008022804D0641C24B2B4F5FA6FF0DB44F20600C4F20600007800F00C008008022801D01A2000E0029818BC04B0704700000FB478B444F20600C4F20600007800F00C00800802281AD144F20600C4F20600007800F01000002811D144F20600C4F206000078BF
S3FD0000183800F02000002808D044F20100C4F20600007800F00200002801D0072055E000240AE044F20600C4F20600007800F04000002804D1641C24B2B4F5FA6FF1DB44F20600C4F20600007800F04000002801D144203AE044F20400C4F20600007800F01F00401CC5B244F20500C4F20600007800F01F001830C6B244F20001C4F20601087800F03F00087000240BE044F20600C4F20600007800F00C008008032804D0641C24B2B4F5FA6FF0DB44F20600C4F20600007800F00C008008032801D01B2003E0049890FBF5F0704378BC04B070470FB444F20600C4F20600007800F00C00800802281AD144F20600C4F20600007800F01000002811D169
S3FD0000193044F20600C4F20600007800F02000002808D044F20100C4F20600007800F00200002801D0072008E044F20101C4F20601087840F002000870009804B0704700002DE9F04180460E46174644F20600C4F20600007800F00C008008022811D144F20600C4F20600007800F01000002808D144F20100C4F20600007800F00200002801D1062085E0012E01DB192E01DD41207FE0182F01DB372F01DD422079E098FBF6F148F28040C0F21E00814207DB98FBF6F140F60010C0F23D00814201DD432067E044F20400C4F20600047804F0E004701EC0B2C0B200F01F002043C4B244F20400C4F20600047044F20500C4F20600047804F0E004A7F1BB
S3FD00001A281800C0B2C0B200F01F0040F04000C0B2044344F20500C4F20600047044F20101C4F20601087800F0FD00087000250AE044F20600C4F20600007800F02000002804D16D1C2DB2B5F5FA6FF1DB44F20600C4F20600007800F02000002801D116201BE000250AE044F20600C4F20600007800F04000002804D16D1C2DB2B5F5FA6FF1DB44F20600C4F20600007800F04000002801D1442000E04046BDE8F041704744F20600C4F20600007800F00C008008002813D144F20600C4F20600007800F0100000280AD044F20600C4F20600007800F02000002801D10320F6E044F20600C4F20600007800F00C008008032813D144F20600C4F2060005
S3FD00001B20007800F0100000280AD144F20600C4F20600007800F02000002801D00820D8E044F20600C4F20600007800F00C00800802281CD144F20600C4F20600007800F01000002813D144F20600C4F20600007800F0200000280AD044F20100C4F20600007800F00200002801D10720B1E044F20600C4F20600007800F00C00800802281CD144F20600C4F20600007800F01000002813D144F20600C4F20600007800F0200000280AD144F20100C4F20600007800F00200002801D105208AE044F20600C4F20600007800F00C008008022813D144F20600C4F20600007800F0100000280AD144F20100C4F20600007800F00200002801D006206CE0AE
S3FD00001C1844F20600C4F20600007800F00C00800801281CD144F20600C4F20600007800F01000002813D044F20600C4F20600007800F0200000280AD144F20100C4F20600007800F00200002801D0012045E044F20600C4F20600007800F00C00800801281CD144F20600C4F20600007800F01000002813D044F20600C4F20600007800F0200000280AD144F20100C4F20600007800F00200002801D102201EE044F20600C4F20600007800F00C008008002813D144F20600C4F20600007800F0100000280AD144F20600C4F20600007800F02000002801D1042000E00020704708B54FF20100C4F20700007800F02000002803D0DFF87E0201F02AFA38
S3FD00001D104FF20100C4F20700007800F01000002803D0DFF86A0201F01DFA4FF20100C4F20700007800F00800002803D0DFF8520201F010FA4FF20100C4F20700007800F00400002803D0DFF83E0201F003FA4FF20100C4F20700007800F00200002803D0DFF8260201F0F6F94FF20100C4F20700007800F00100002803D0DFF8120201F0E9F94FF20000C4F20700007800F08000002803D0DFF8FA0101F0DCF94FF20000C4F20700007800F04000002803D0DFF8E60101F0CFF94FF20000C4F20700007800F02000002803D0DFF8CE0101F0C2F94FF20000C4F20700007800F00400002803D0DFF8BA0101F0B5F94FF20000C4F20700007800F0020057
S3FD00001E08002803D0DFF8A20101F0A8F94FF20000C4F20700007800F00100002800F08D80DFF88A0101F09AF9DFF886014EF20001C4F20701097801F091F9DFF87A014EF20101C4F20701097801F088F9DFF86A014EF20201C4F20701097801F07FF9DFF85E014EF20301C4F20701097801F076F94EF20100C4F20700007800F00700032803D1DFF83E0101F069F94EF20100C4F20700007800F0070004280CD14EF20200C4F20700007800F00700002803D1DFF8160101F053F94EF20100C4F20700007800F0070004280CD14EF20200C4F20700007800F00700012803D1DFF8EE0001F03DF94EF20100C4F20700007800F0070004280CD14EF202001A
S3FD00001F00C4F20700007800F00700022803D1DFF8C60001F027F94EF20100C4F20700007800F0070004280CD14EF20200C4F20700007800F00700032803D1DFF89E0001F011F94FF20000C4F207000078002818D14FF20100C4F207000078002811D1DFF87E004FF20001C4F20701097801F0FAF8DFF86E004FF20101C4F20701097801F0F1F8BDE808407047C0463FECFF1F62ECFF1F70ECFF1F7EECFF1F8EECFF1FA7ECFF1FB3ECFF1FC3ECFF1FD7ECFF1FECECFF1F01EDFF1F1BEDFF1F4CEDFF1F6CEDFF1F8CEDFF1FAEEDFF1FCEEDFF1FE2EDFF1FF8EDFF1F0EEEFF1F24EEFF1F3AEEFF1F60EEFF1F000008B5FEF743FDBDE80840704708B50021C2
S3FD00001FF84EF20100C4F207000170FEF72DFDBDE8084070470FB408B54EF20300C4F20700007800F07F00042804D1DFF8800001F09DF837E020214EF20000C4F20700017002A890F90000002806D0C0214EF20100C4F2070001700AE040214EF20100C4F20700017003E0DFF8480001F07FF84DF20200C4F20700007800F004000428F2D0DFF8300001F072F803E0DFF82C0001F06DF84EF20300C4F20700007800F07F000428F2D1BDE8084004B0704786EEFF1FADEEFF1FDAEEFF1F05EFFF1F08B54EF20300C4F20700007800F07F00042815D14EF20101C4F20701087800F09F00087003E0DFF81E0001F041F84DF20200C4F20700007800F00400F9
S3FD000020F00028F2D0BDE80840704742EFFF1F00000FB408B520214EF20000C4F20700017002A890F90000002811D04EF20100C4F20700007800F0E00040F0020040F08000C1B24EF20100C4F2070001700FE04EF20100C4F2070001786FF08000084040F00200C1B24EF20100C4F207000170FEF77FFCBDE8084004B07047000008B508214EF20000C4F20700017003214EF20100C4F207000170FEF76BFCBDE80840704708B502214EF20000C4F2070001704EF20100C4F20700007800F0E00040F00400C1B24EF20100C4F20700017003214EF20200C4F207000170FEF74AFCBDE808407047000008B502214EF20000C4F2070001704EF20100C4F2EE
S3FD000021E80700007800F0E00040F00400C1B24EF20100C4F20700017002214EF20200C4F207000170FEF728FCBDE808407047000008B54EF20100C4F20700007800F0E00040F00400C1B24EF20100C4F20700017001214EF20200C4F207000170FEF70CFCBDE808407047000008B54EF20100C4F20700007800F0E00040F00400C1B24EF20100C4F20700017000214EF20200C4F207000170DFF858004EF20001C4F20701097800F06BFFDFF84C004EF20101C4F20701097800F062FFDFF83C004EF20201C4F20701097800F059FFDFF830004EF20301C4F20701097800F050FFDFF8200000F04CFFFEF7C8FBBDE808407047C04690EFFF1FB5EFFF1FB7
S3FD000022E0DAEFFF1F01F0FF1F26F0FF1F08B54EF20100C4F20700007800F0E00040F00400C1B24EF20100C4F20700017020214EF20200C4F207000170DFF858004EF20001C4F20701097800F01DFFDFF84C004EF20101C4F20701097800F014FFDFF83C004EF20201C4F20701097800F00BFFDFF830004EF20301C4F20701097800F002FFDFF8200000F0FEFEFEF77AFBBDE808407047C04650F0FF1F7BF0FF1FA6F0FF1FD3F0FF1F26F0FF1F2DE9F8430446894690464AF20000C4F20600844208D148F23401C4F20401086840F4806008601CE04BF20000C4F20600844208D148F23401C4F20401086840F4006008600DE04CF20000C4F20600844235
S3FD000023D807D148F23401C4F20401086840F480500860E07800F0F300E0700020A0704FF47A7009FB00F14FEA081091FBF0F085B221786FF01F000840C6B205F4F8500012C0B2C0B200F01F003043C0B22070E8B260704FF4FA4009FB00F14FEA081091FBF0F16801081A87B2A17A6FF01F000840C6B2F8B2C0B200F01F003043C0B2A072E07840F00C00E070BDE8F8437047000010B50446207900F020000028FAD0E07940B2BDE8104070470FB418B40446207900F080000028FAD003A890F90000C0B2E07118BC04B0704708B500F00DF842F20002C4F2050211884FF6FE7008401080BDE808407047000072B64CF2205142F20E00C4F20500018005
S3FD000024D04DF6281142F20E00C4F20500018062B67047000008B500214BF20C00C4F2040001602A214EF20000C4F20700017000F0A7FB00F0B1FB00F003F8BDE80840704770B5FF25DFF8820600F024FEDFF87E0600F020FEDFF87A0600F01CFE84E0DFF8760600F017FEDFF8720600F013FEDFF86E0600F00FFEDFF86A0600F00BFEDFF8660600F007FEDFF8620600F003FEDFF85E0600F0FFFDDFF85A0600F0FBFDDFF8560600F0F7FDDFF8520600F0F3FDDFF84E0600F0EFFDDFF84A0600F0EBFDDFF8460600F0E7FDDFF84206426ADFF83A06406A411EDFF832064162002A0BD0DFF82A06026ADFF82206006A411CDFF81A060162107803E0DFF82D
S3FD000025C8120600F001FD44B2DFF80606826EDFF80206806E411EDFF8FA058166002A0DD0DFF8EE05426EDFF8EA05406E411CDFF8E2054166E0B21070107804E02046DFF8D61500F031FD302C04DB392C02DCA4F13000C5B2412C04DB472C02DCA4F13700C5B2612C04DB672C02DCA4F15700C5B20B2D3FF678AF0B2D00F2A8824FEA85008744F0BF00F016B800F03DB800F064B800F08BB800F0B2B800F0D9B800F019B900F063B900F09AB900F0CCB900F016BA00F047BADFF8620500F070FDDFF85205426ADFF84E05406A411EDFF846054162002A0BD0DFF83A05026ADFF83605006A411CDFF82E050162107803E0DFF8220500F08AFCDFF82605D9
S3FD000026C000F050FD00F0AEFBFFF710FE62E2DFF81A0500F047FDDFF80205426ADFF8FA04406A411EDFF8F2044162002A0BD0DFF8EA04026ADFF8E204006A411CDFF8DA040162107803E0DFF8D20400F061FCDFF8D60400F027FD00F085FBFFF799FD39E2DFF8CA0400F01EFDDFF8AE04426ADFF8AA04406A411EDFF8A2044162002A0BD0DFF89604026ADFF89204006A411CDFF88A040162107803E0DFF87E0400F038FCDFF88E0400F0FEFC00F05CFBFFF754FD10E2DFF8820400F0F5FCDFF85E04426ADFF85604406A411EDFF84E044162002A0BD0DFF84604026ADFF83E04006A411CDFF836040162107803E0DFF82E0400F00FFCDFF8460400F02E
S3FD000027B8D5FC00F033FBFFF709FDE7E1DFF8360400F0CCFCDFF80A04426ADFF80604406A411EDFF8FE034162002A0BD0DFF8F203026ADFF8EE03006A411CDFF8E6030162107803E0DFF8DA0300F0E6FBDFF8FA0300F0ACFC00F00AFBFFF7BEFCBEE1DFF8EE0300F0A3FCDFF8BA03426ADFF8B203406A411EDFF8AA034162002A0BD0DFF8A203026ADFF89A03006A411CDFF892030162107803E0DFF88A0300F0BDFBDFF8B20300F083FC00F0E1FAFFF783FCFFF72FF90646072E08D141F20020C0F27A00FEF7C4FFDFF88E130860012000F0FEFA012000F051FADFF87E03006800F06EFA7CE1DFF8760300F061FCDFF83603426ADFF82E03406A411E53
S3FD000028B0DFF826034162002A0BD0DFF81E03026ADFF81603006A411CDFF80E030162107803E0DFF8060300F07BFBDFF83A0300F041FCDFF8360300F03DFC00F063FADFF81E130860DFF81603006800F03BFA00F091FA0120FFF7FCFB012000F0BBFA00F06DFADFF8FA120860012000F009FADFF8EE02006800F026FADFF8F20200F01AFC30E1DFF8EE0200F015FCDFF89E02426ADFF89602406A411EDFF88E024162002A0BD0DFF88602026ADFF87E02006A411CDFF876020162107803E0DFF86E0200F02FFBDFF8B20200F0F5FB00F01BFADFF88E120860DFF88602006800F0F3F9002000F078FA0020FFF739FBDFF88E0200F0E1FBF7E0DFF8860291
S3FD000029A800F0DCFBDFF82A02426ADFF82602406A411EDFF81E024162002A0BD0DFF81202026ADFF80E02006A411CDFF806020162107803E0DFF8FA0100F0F6FAFFF766FB012000F04BFA00F0FDF9DFF81A120860DFF81202006800F0B9F9DFF81A0200F0ADFBC3E0DFF8220200F0A8FBDFF8C201426ADFF8BE01406A411EDFF8B6014162002A0BD0DFF8AA01026ADFF8A601006A411CDFF89E010162107803E0DFF8920100F0C2FADFF8C60100F088FBDFF8DE0100F084FB00F0AAF9DFF8AA110860DFF8A601006800F082F9002000F007FA0120FFF7C8FAFFF7B4FA012000F0FFF900F0B1F9DFF882110860DFF87A01006800F06DF9DFF8820100F0E8
S3FD00002AA061FB77E0DFF8920100F05CFBDFF82A01426ADFF82601406A411EDFF81E014162002A0BD0DFF81201026ADFF80E01006A411CDFF806010162107803E0DFF8FA0000F076FADFF8560100F03CFB00F09AF9FFF77AFA012000F0C5F9012000F018F9DFF83E0100F02EFB44E0DFF83A0100F029FBDFF8C600426ADFF8BE00406A411EDFF8B6004162002A0BD0DFF8AE00026ADFF8A600006A411CDFF89E000162107803E0DFF8960000F043FADFF8FE0000F009FB00F067F9FFF74DFAFEF7B5FF0646072E08D141F20020C0F27A00FEF74AFEDFF89A100860012000F084F9012000F0D7F8DFF88A00006800F0F4F8DFF8B20000F0E8FAFF254FE503
S3FD00002B98C046FEF0FF1F2AF1FF1F56F1FF1F83F1FF1F9FF1FF1FB8F1FF1FCAF1FF1FDCF1FF1FEEF1FF1F00F2FF1F10F2FF1F21F2FF1F32F2FF1F3FF2FF1F50F2FF1F61F2FF1F20F6FF1F64F6FF1F72F2FF1FA2F2FF1FC4F2FF1FE3F2FF1F02F3FF1F24F3FF1F43F3FF1F65F3FF1F84F3FF1FA6F3FF1FC3F3FF1F04F7FF1FE3F3FF1F01F4FF1F23F4FF1F4BF4FF1F84F4FF1FA2F4FF1FE6F4FF1F1EF5FF1F3BF5FF1F59F5FF1F81F5FF1F9FF5FF1FC7F5FF1FD9F5FF1FF7F5FF1F000008B50920FDF724FF402002210022FDF789FFBDE80840704708B548F23801C4F20401086840F4E05008602A20FDF710FF40F21311C0F20A014BF20400C4F20400F2
S3FD00002C9001604BF2C001C4F20401086840F0020008601F214BF2C800C4F20400016040F21311C0F20A014BF20800C4F2040001604BF2C001C4F20401086840F0040008601F214BF2C800C4F204000160BDE80840704700004BF2A000C4F204000068022807D14BF20401C4F20401086840F0807008604BF2A000C4F204000068042807D14BF20801C4F20401086840F0807008604FF0FF314BF2A000C4F20400016070470FB400A8007800280ED04FF440714DF20000C4F2040001604FF440714DF20400C4F2040001600BE000214DF20000C4F20400016000214DF20400C4F20400016004B070470FB438B504984FF47A7100F03FFE044648F244002E
S3FD00002D88C4F20400006800F07040000F401CB4FBF0F54BF20000C4F2060029464FF4E132FFF7EEFABDE8384004B0704710B541F20020C0F27A00FEF7D7FC044641F20020C0F27A00FEF79CFD04460021C1F20F1148F24400C4F2040001602046BDE810407047000010B54FF4803148F24400C4F20400016041F20020C0F27A0004211922FEF7B2FD044641F20020C0F27A00FEF7F5FC04462046BDE81040704710B50024002C0ED04FF440714DF20000C4F2040001604FF440714DF20400C4F2040001600BE000214DF20000C4F20400016000214DF20400C4F204000160002000F00EF800F004F8BDE8104070470000032149F20800C4F20400016094
S3FD00002E80704700000FB400A80078002808D044F20501C4F20601087840F02000087007E044F20501C4F20601087800F0DF00087004B070470FB410B5029C20780A2806D14BF20000C4F206000D21FFF7D9FA4BF20000C4F20600217849B2FFF7D1FABDE8104004B0704700000FB410B5029C13E020780A2806D14BF20000C4F206000D21FFF7BEFA2146641C4BF20000C4F20600097849B2FFF7B4FA20780028E8D1BDE8104004B07047000008B54BF20000C4F20600FFF799FAC0B2BDE8084070470000816942690162816AC3691140591A41620263704770B504460E461546FFF7F0FF012D04BFE06960622068A169A36B04F124029847C0B202287E
S3FD00002F7804BF002161620EB1616A316020B96169606A081860610020BDE870407047000038B50D46026A81690446521A0DD042620068E36B04F1240298470DB1616A296038B96169606A081860612046FFF7BCFF0020BDE83840704710B500214162017B044609B9C17921B90020C043BDE810407047427A012A03D0417911F0010108D101210173002141620020C043BDE810407047032A0BD3511E4172032A04BFC16A4162D11E4018C07BBDE8104070470221417200210A46FFF791FFC1B209B9606A80B9012904D1012020730020606204E0002101206172E07261620020C043BDE810407047216A401E6062481C20620878BDE810407047000065
S3FD0000307070B5054600204862087B0C46CA7900B922B90020C043BDE870407047487A40B9487910F0020004D0012048722046FFF74FFF607A012808D001202073002060620020C043BDE870407047A079022805D0216AA069E269081A82420DD1204600210026FFF761FF38B10120207300206662C043BDE870407047606A216A401E6062481C20620D70A079022812D008B10A2D0DD1204600210026FFF746FF38B10120207300206662C043BDE870407047002060622846BDE8704070470000CBB2521C05E010F8011B994201D1401E7047521EF7D10020704700000FB410B5012004AA012400F01DFC00B100242046BDE8104004B070470FB408B57C
S3FD000031680020009002AB23F00303DFF81400029A00211B1D00F040FABDE8084004B07047493100004FF0FF3210F8011B521C0029FAD110467047000018B48446521C0EE011F8013B64460CF8013B23783BB9002101E00CF8011B521EFBD118BC7047521EEED118BC70470000C9B203E08A4201D1401E704710F8012B002AF7D1002918BF002000D1401E70472DE9F84384B01646012200AC00F10108227000236370A370E370237198F800500F4602930393252D0BD100AA657103CA03C603CA03C604B008F10100BDE8F843704702204FF001092B2D08DC11DA232D1EDC202D1CDB0FD0232D12D018E0302D16DC2D2D14DB02D0302D0DD010E0237089
S3FD0000326010E084F801900DE06278012A18BF607008E084F8039005E022781AB1207001E04FF00009B9F1000F1CBF08F1010898F80050CFD12A2D10D10868001D0860001F01680291002903DA002020704842029008F1010898F8005012E04FF00A090AE00298A5F1300100FB09F008F10108081898F800500290284600F030FB0028EFD1029940F2FD1081420CDDFF2000AA607103CA03C603CA03C604B008F10100BDE8F84370472E2D27D108F1010898F800500120A0702A2D0ED13868001D3860001F006803900028BCBF0020A07008F1010898F8005010E00A2709E00398A5F13001784308F10108081898F800500390284600F0F4FA0028F0D104
S3FD000033580121682D02D06C2D03D005E00220207103E00320207100E0002119B108F1010898F800506571692D0ADC632D05DB2AD0642D14D0692D12D031E0582D0FD02EE06E2D01DC2DD02AE0A5F16F00092826D8DFE800F005102525202505252505A07810B9012003901CE02078022804BF0120207016E0782060710120E07003202071082003900DE0A07808B9207948B1FF20607106E0207920B1FF20607101E0FF20607100AA03CA03C603CA03C608F1010004B0BDE8F84370470FB42DE9F00F9DF828A083469DF82B909DF82D800C9F0D9B00264D1E0A240022DC462E70F0B9EBB9B9F1000F02D0B8F16F0F17D0B8F1640F02D0B8F1690F0CD148
S3FD000034509DF82900022803D16D1E2020287004E0012802D16D1E2B2028702846BDE8F00F04B07047B8F1690F09DC1CDAB8F1580F01DC28D02BE0B8F1640F14D027E0B8F16F0F05DC02BF082400208DF829001EE0B8F1780F1BDCB8F1750F18DB0ED0B8F1780F10D013E00A24002810DAB0F1004F1CBFC0F1000BDC46012608E000200A248DF8290003E000208DF829001024BCFBF4F004FB10C0BCFBF4FC0A2838BF303004D3B8F1780F0CBF573037306D1E521C2870BCF1000FEAD1082C09D1B9F1000F06D02878302803D06D1E30202870521CBAF1020F0BD13B4616B99DF8290000B17B1E102C03D1B9F1000F00D09B1E481B191840F2FD1081425C
S3FD00003548C8BF002054DC981A302700282FDDC10800F013806D1E05F8017905F8017905F8017905F8017905F8017905F8017905F801792F70491E7FF4EDAF10F0040F00F008806D1E05F8017905F8017905F801792F7010F0020F00F004806D1E05F801792F7010F0010F00F002806D1E2F70102C0BD1B9F1000F08D0BBF1000F05D0681E80F80080AD1E302028701EB16D1E2D2028700CE09DF82900012803D16D1E2B20287004E0022802D16D1E202028702846BDE8F00F04B070470FB42DE9F04FADF5077D8246202002AC894693466070002581E158462521FFF7D7FD0646A8B95846FFF7B0FD0246AD18002A00F0798148465946D047002840F08D
S3FD0000364073810DF5077D4FF0FF30BDE8F04F04B07047A0EB0B02AD185AB148465946D04738B90DF5077D4FF0FF30BDE8F04F04B07047304693A903AAFFF7BAFD8346607A6E2815DC80F29480582804DC44DA252800F0A980ADE0692800F3AB806328C0F2A88000F09680642810D069280ED0A0E0782800F39E80732805DB52D075282BD0782829D095E06F2826D092E0207A032803BF9399091D939193991CBF091D9391091F0F68022801D13FB202E0012800D17FB2059906980091019003A80CC887A93846FFF785FE0746002800F0728086A90331A1EB000885E0217A032903BF9398001D939093981CBF001D9390001F0768022901D1BFB202E02A
S3FD00003738012900D1FFB2059906980091019003A80CC887A93846FFF75FFE074600284CD086A90331A1EB000860E09398001D9390001F07680FB9DFF8C671E07948B1A07917F8018B002851D006988045C8BF80464CE0A07958B1DDF81880384600214246FFF7C8FC002841D0A0EB07083EE03846FFF7F0FC804639E09398001D9390001F0168207A28B1022805D0032808BF0D60A9E00D60A7E00D80A5E0939807AF001D9390001F00684FF0010820751EE0252007AF20754FF0010818E03046FFF7CAFC0246AD185AB148463146D04738B90DF5077D4FF0FF30BDE8F04F04B070470DF5077D2846BDE8F04F04B070472079464600284FD002280CBFC3
S3FD0000383030202020607038782B2803D02D2801D0202812D1607830280FD1484639460122D04738B90DF5077D4FF0FF30BDE8F04F04B070477F1CA8F10108207902282AD1607A612801D0412825D1B8F1020FB8BF4FF0FF3051DB484639460222D04738B90DF5077D4FF0FF30BDE8F04F04B07047A8F10208BF1C0EE002A9484601310122D04738B90DF5077D4FF0FF30BDE8F04F04B07047761C05988642EDDBB8F1000F0CD0484639464246D04738B90DF5077D4FF0FF30BDE8F04F04B070472079A8B920270DF108080EE04846414601222770D04738B90DF5077D4FF0FF30BDE8F04F04B07047761C05988642EDDBAD199BF8000000287FF479AE0A
S3FD0000392828460DF5077DBDE8F04F04B07047ECF6FF1F00000121B0F5807F98BF0021002911BF0020DFF80810085C00F0200070471C3C0000F8B51746002516680C460CE0FFF7DEFA2070C0B20D2801D00A2802D1681C386003E06D1C641CB542F0D30020BDE8F840704700002DE9F04117688846012F06D84046FFF789FA0020BDE8F04170470026DFF8465000240CE0284608EB06015022FFF7F0FB284685F85040FFF78FFA503F5036502FF0D867B1DFF81E4008EB060120463A46FFF7DEFB0020E0552046FFF77DFA0020BDE8F041704708F7FF1F00000020704780EA010C0CF0004C0028BCBFC0F100000CF1010C0029B8BFC1F1000100F0ED80C5
S3FD00003A2088423CBF4FEA00014FF00000C0F0E5804FF01C024FEA1013B1EB133FDCBFA2F110024FEA1343B1EB131FDCBFA2F108024FEA13239942DCBFA2F104024FEA131300FA02F0C1F10001001802EB42024FEA82027A44974651EB430338BFA3EB0103404151EB430338BFA3EB0103404151EB430338BFA3EB0103404151EB430338BFA3EB0103404151EB430338BFA3EB0103404151EB430338BFA3EB0103404151EB430338BFA3EB0103404151EB430338BFA3EB0103404151EB430338BFA3EB0103404151EB430338BFA3EB0103404151EB430338BFA3EB0103404151EB430338BFA3EB0103404151EB430338BFA3EB0103404151EB430338BF27
S3FD00003B18A3EB0103404151EB430338BFA3EB0103404151EB430338BFA3EB0103404151EB430338BFA3EB0103404151EB430338BFA3EB0103404151EB430338BFA3EB0103404151EB430338BFA3EB0103404151EB430338BFA3EB0103404151EB430338BFA3EB0103404151EB430338BFA3EB0103404151EB430338BFA3EB0103404151EB430338BFA3EB0103404151EB430338BFA3EB0103404151EB430338BFA3EB0103404151EB430338BFA3EB0103404151EB430338BFA3EB0103404151EB430338BFA3EB0103404151EB430338BFA3EB0103404151EB430338BFA3EB010340414FEA03011CF0004318BFC0F100001CF0010318BFC1F1000170475F
S3FD00003C104FEA00014FF0000070470000404040404040404040414141414140404040404040404040404040404040404005020202020202020202020202020202A0A0A0A0A0A0A0A0A0A0020202020202029090909090901010101010101010101010101010101010101010020202020202888888888888080808080808080808080808080808080808080802020202400000000000000000000000000000000000000000000000000000000000000000000000000000000000000000000000000000000000000000000000000000000000000000000000000000000000000000000000000000000000000000000000000000000000000000000000004C
S31D00003D080000000000000000000000000000000000000000000000009D
S3FD00003D200A2A2A2A2A64656661756C745F69737220656E7465726564206F6E20766563746F722025642A2A2A2A2A0D0A0A000A2046414D5F4944203D2030782578000A4B31302D000A4B32302D000A4B33302D000A4B34302D000A4B36302D000A556E7265636F676E697A6564204B696E657469732066616D696C79206465766963652E0A000A2050494E5F4944203D203078257800333270696E0A00343870696E0A00363470696E0A00383070696E0A00383170696E0A0031303070696E0A0031303470696E0A0031343470696E0A0031393670696E0A0032353670696E0A000A556E7265636F676E697A6564204B696E65746973207061636B6191
S3FD00003E18676520636F6465202E0A000A205245565F4944203D2030782578200A0053696C69636F6E2072657620312E300A0053696C69636F6E2072657620312E310A0053696C69636F6E2072657620312E320A000A546869732076657273696F6E206F6620736F66747761726520646F65736E2774207265636F676E697A6520746865207265766973696F6E20636F64652E000A2052414D5F53495A455F4944203D2030782578200A0038206B4279746573206F662052414D0A0A003136206B4279746573206F662052414D0A0A003332206B4279746573206F662052414D0A0A003634206B4279746573206F662052414D0A0A003936206B4279749C
S3FD00003F106573206F662052414D0A0A00313238206B4279746573206F662052414D0A0A0020455252212120556E646566696E65642052414D2073697A650A0A000A4552522120496E76616C6964204952512076616C75652070617373656420746F20656E61626C65206972712066756E6374696F6E210A00204C4C575520636F6E666967757265642070696E7320505445312F55415254315F52582F493243315F53434C202F535049315F53494E20746F20626520616E204C4C57552077616B65757020736F75726365200A00204C4C575520636F6E666967757265642070696E7320505445322F535049315F53434B2F53444843305F44434C4B2080
S3FD00004008746F20626520616E204C4C57552077616B65757020736F75726365200A00204C4C575520636F6E666967757265642070696E7320505445342F535049315F504353302F53444843305F443320746F20626520616E204C4C57552077616B65757020736F75726365200A00204C4C575520636F6E666967757265642070696E7320505441342F46544D305F4348312F4E4D492F455A505F435320746F20626520616E204C4C57552077616B65757020736F75726365200A00204C4C575520636F6E666967757265642070696E732050544131332F46544D315F434831202F46544D315F51445F50484220746F20626520616E204C4C57552077B7
S3FD00004100616B65757020736F75726365200A00204C4C575520636F6E666967757265642070696E7320505442302F493243305F53434C2F46544D315F4348302F46544D315F51445F50484120746F20626520616E204C4C57552077616B65757020736F75726365200A00204C4C575520636F6E666967757265642070696E7320505443312F55415254315F5254532F46544D305F43483020746F20626520616E204C4C57552077616B65757020736F75726365200A00204C4C575520636F6E666967757265642070696E7320505443332F55415254315F52582F46544D305F43483220746F20626520616E204C4C57552077616B65757020736F7572B2
S3FD000041F86365200A00204C4C575520636F6E666967757265642070696E7320505443342F535049305F504353302F46544D305F43483320746F20626520616E204C4C57552077616B65757020736F75726365200A00204C4C575520636F6E666967757265642070696E7320505443352F535049305F53434B2F493253305F5258443020746F20626520616E204C4C57552077616B65757020736F75726365200A00204C4C575520636F6E666967757265642070696E7320505443362F504442305F455854524720746F20626520616E204C4C57552077616B65757020736F75726365200A00204C4C575520636F6E666967757265642070696E732050DE
S3FD000042F0544331312F493253305F5258443120746F20626520616E204C4C57552077616B65757020736F75726365200A00204C4C575520636F6E666967757265642070696E7320505444302F535049305F504353302F55415254325F52545320746F20626520616E204C4C57552077616B65757020736F75726365200A00204C4C575520636F6E666967757265642070696E7320505444322F55415254325F525820746F20626520616E204C4C57552077616B65757020736F75726365200A00204C4C575520636F6E666967757265642070696E7320505444342F55415254305F5254532F46544D305F4348342F45574D5F494E20746F206265206178
S3FD000043E86E204C4C57552077616B65757020736F75726365200A00204C4C575520636F6E666967757265642070696E7320505444362F55415254305F52582F46544D305F4348362F46544D305F464C543020746F20626520616E204C4C57552077616B65757020736F75726365200A004C4C5755205045312020203D203078253032582C20202020004C4C5755205045322020203D203078253032580A004C4C5755205045332020203D203078253032582C20202020004C4C5755205045342020203D203078253032580A004C4C5755204D45202020203D203078253032582C20202020004C4C5755204631202020203D203078253032580A004C4C20
S3FD000044E05755204632202020203D203078253032582C20202020004C4C5755204633202020203D203078253032580A004C4C57552046494C5431203D203078253032582C20202020004C4C57552046494C5432203D203078253032580A004C4C5755205253542020203D203078253032580A0053746F70204D6F64652041636B6E6F776C65646765204572726F722052657365740A00457A506F72742052657365740A004D444D2D41502052657365740A00536F6674776172652052657365740A00436F7265204C6F636B7570204576656E742052657365740A004A5441472052657365740A00506F7765722D6F6E2052657365740A00457874657250
S3FD000045D86E616C2050696E2052657365740A005761746368646F6728434F50292052657365740A004C6F7373206F6620436C6F636B2052657365740A004C6F772D766F6C74616765204465746563742052657365740A005B6F75745352535D57616B65757020626974207365742066726F6D206C6F7720706F776572206D6F646520657869740A005B6F75745352535D534D435F504D50524F542020203D202523303258200D0A005B6F75745352535D534D435F504D4354524C2020203D202523303258200D0A005B6F75745352535D534D435F564C4C534354524C2020203D202523303258200D0A005B6F75745352535D534D435F504D5354415456
S3FD000046D02020203D202523303258200D0A005B6F75745352535D204C4C532065786974200A005B6F75745352535D20564C4C53302065786974200A005B6F75745352535D20564C4C53312065786974200A005B6F75745352535D20564C4C53322065786974200A005B6F75745352535D20564C4C53332065786974200A005B6F75745352535D52434D5F53525330206973205A45524F2020203D202523303258200D0A005B6F75745352535D52434D5F53525331206973205A45524F2020203D202523303258200D0A00200A5B656E7465725F766C70725D20416C726561647920696E20564C5052204D6F646520212000200A5B656E7465725F766C94
S3FD000047C870725D2057616974696E67206F6E205245474F4E5320746F20636C656172202120005B656E7465725F766C70725D204E6F7720696E20564C5052206174203139323030206261756420200D0A00200A5B656E7465725F766C70725D2048414C5420504D5354415420646F6573206E6F7420696E64696361746520696E20564C5052204D6F646520212000200A5B657869745F766C70725D2057616974696E67206F6E205245474F4E532062697420746F2073657420746F20696E6469636174652052756E20726567756C6174696F6E206D6F6465202120005B656E7465725F766C6C73305D534D435F504D50524F542020203D2025233032C7
S3FD000048C058200D0A005B656E7465725F766C6C73305D534D435F504D4354524C2020203D202523303258200D0A005B656E7465725F766C6C73305D534D435F564C4C534354524C2020203D202523303258200D0A005B656E7465725F766C6C73305D534D435F504D535441542020203D202523303258200D0A000A20202020202020202020202020202020202020202020202020202020202020202020202020202020005B656E7465725F766C6C73305F6E6F706F725D534D435F504D50524F542020203D202523303258200D0A005B656E7465725F766C6C73305F6E6F706F725D534D435F504D4354524C2020203D202523303258200D0A005B65DC
S3FD000049B86E7465725F766C6C73305F6E6F706F725D534D435F564C4C534354524C2020203D202523303258200D0A005B656E7465725F766C6C73305F6E6F706F725D534D435F504D535441542020203D202523303258200D0A002A2D2D2D2D2D2D2D2D2D2D2D2D2D2D2D2D2D2D2D2D2D2D2D2D2D2D2D2D2D2D2D2D2D2D2D2D2D2D2D2D2A0A002A20202020202020204C6F7720506F776572204D6F64652054657374202020202020202020202020202A0A002A2D2D2D2D2D2D2D2D2D2D2D2D2D2D2D2D2D2D2D2D2D2D2D2D2D2D2D2D2D2D2D2D2D2D2D2D2D2D2D2D2A0A0A000A53656C65637420746865206D6F646520746F20656E746572200A0030D9
S3FD00004AB020746F20656E74657220564C4C5330206E6F20504F520A003120746F20656E74657220564C4C53300A003220746F20656E74657220564C4C53310A003320746F20656E74657220564C4C53320A003420746F20656E74657220564C4C53330A003520746F20656E746572204C4C530A003620746F20656E74657220564C50530A003720746F20656E74657220564C50520A0038206578697420564C50520A003920746F20656E74657220564C50570A004120746F20656E74657220574149540A004220746F20656E7465722053544F500A00507265737320616E79206B657920746F20656E74657220564C4C5330207769746820504F522089
S3FD00004BA864697361626C650A200050726573732053573220746F2077616B652075702066726F6D20564C4C53300A2000507265737320616E79206B657920746F20656E74657220564C4C53300A2000507265737320616E79206B657920746F20656E74657220564C4C53310A200050726573732053573220746F2077616B652075702066726F6D20564C4C53310A2000507265737320616E79206B657920746F20656E74657220564C4C53320A200050726573732053573220746F2077616B652075702066726F6D20564C4C53320A2000507265737320616E79206B657920746F20656E74657220564C4C53330A200050726573732053573220746F5C
S3FD00004CA02077616B652075702066726F6D20564C4C53330A2000507265737320616E79206B657920746F20656E746572204C4C530A200050726573732053573220746F2077616B652075702066726F6D204C4C530A2000507265737320616E79206B657920746F20656E74657220564C50530A2000466F72636520746F20424C5045206D6F6465206265666F726520656E7465720A2000507265737320535732206F722053573320746F2077616B652075702066726F6D20564C50530A20000A4E6F7720696E2052756E206D6F64652061742035304D487A20636F726520636C6F636B2C2032354D687A20666C61736820636C6F636B0A0050726573F7
S3FD00004D987320616E79206B657920746F20656E74657220564C50520A2000436F6E66696775726520636C6F636B206672657175656E637920746F20344D487A20636F726520636C6F636B20616E6420314D487A20666C61736820636C6F636B0A20000A4E6F7720696E20564C5052206D6F646520617420344D487A20636F726520636C6F636B2C20314D687A20666C61736820636C6F636B0A00507265737320616E79206B657920746F206578697420564C50520A2000507265737320616E79206B657920746F20656E74657220564C50570A2000507265737320535732206F722053573320746F2077616B652075702066726F6D20564C50570A20C4
S3FD00004E9000507265737320616E79206B657920746F20656E74657220576169740A2000507265737320535732206F722053573320746F2077616B652075702066726F6D20576169740A20004261636B20746F2052756E206D6F64650A00507265737320616E79206B657920746F20656E7465722053746F700A2000507265737320535732206F722053573320746F2077616B652075702066726F6D2053746F700A2000000000000000010002000000000000000000000000000000002DF6FF1F010000002DF6FF1F00000000000000000000000000000000000000005D39000091390000FD390000010000000002000200000000000000000000000039
S37D00004F880000000071F6FF1F0100000071F6FF1F00000000000000000000000000000000000000005D39000091390000FD390000020000000002000200000000000000000000000000000000B5F6FF1F01000000B5F6FF1F00000000000000000000000000000000000000005D39000091390000FD39000000000000DB
S70500000A18D8
