S01600006770696F5F6B34305F746F7765722E73726563A1
S3151FFF0000F8FF00201104FF1FD52EFF1FD52EFF1F40
S3151FFF0010D52EFF1FD52EFF1FD52EFF1FD52EFF1F38
S3151FFF0020D52EFF1FD52EFF1FD52EFF1FD52EFF1F28
S3151FFF0030D52EFF1FD52EFF1FD52EFF1FD52EFF1F18
S3151FFF0040D52EFF1FD52EFF1FD52EFF1FD52EFF1F08
S3151FFF0050D52EFF1FD52EFF1FD52EFF1FD52EFF1FF8
S3151FFF0060D52EFF1FD52EFF1FD52EFF1FD52EFF1FE8
S3151FFF0070D52EFF1FD52EFF1FD52EFF1FD52EFF1FD8
S3151FFF0080D52EFF1FD52EFF1FD52EFF1FD52EFF1FC8
S3151FFF0090D52EFF1FD52EFF1FD52EFF1FD52EFF1FB8
S3151FFF00A0D52EFF1FD52EFF1FD52EFF1FD52EFF1FA8
S3151FFF00B0D52EFF1FD52EFF1FD52EFF1FD52EFF1F98
S3151FFF00C0D52EFF1FD52EFF1FD52EFF1FD52EFF1F88
S3151FFF00D0D52EFF1FD52EFF1FD52EFF1FD52EFF1F78
S3151FFF00E0D52EFF1FD52EFF1FD52EFF1FD52EFF1F68
S3151FFF00F0D52EFF1FD52EFF1FD52EFF1FD52EFF1F58
S3151FFF0100D52EFF1FD52EFF1FD52EFF1FD52EFF1F47
S3151FFF0110D52EFF1FD52EFF1FD52EFF1FD52EFF1F37
S3151FFF0120D52EFF1FD52EFF1FD52EFF1FD52EFF1F27
S3151FFF0130D52EFF1FD52EFF1FD52EFF1FD52EFF1F17
S3151FFF0140D52EFF1FD52EFF1FD52EFF1FD52EFF1F07
S3151FFF0150D52EFF1FD52EFF1FD52EFF1FD52EFF1FF7
S3151FFF0160D52EFF1FD52EFF1FD52EFF1FD52EFF1FE7
S3151FFF0170D52EFF1FD52EFF1FD52EFF1FD52EFF1FD7
S3151FFF0180D52EFF1FD52EFF1FD52EFF1FD52EFF1FC7
S3151FFF0190D52EFF1FD52EFF1FD52EFF1FAD10FF1FFD
S3151FFF01A0D52EFF1F9510FF1FD52EFF1F9F10FF1F59
S3151FFF01B0D52EFF1FD52EFF1FD52EFF1FD52EFF1F97
S3151FFF01C0D52EFF1FD52EFF1FD52EFF1FD52EFF1F87
S3151FFF01D0D52EFF1FD52EFF1FD52EFF1FD52EFF1F77
S3151FFF01E0D52EFF1FD52EFF1FD52EFF1FD52EFF1F67
S3151FFF0400FFFFFFFFFFFFFFFFFFFFFFFFFEFFFFFFD9
S3151FFF04104FF000004FF000014FF000024FF00003B6
S3151FFF04204FF000044FF000054FF000064FF0000796
S3151FFF04304FF000084FF000094FF0000A4FF0000B76
S3151FFF04404FF0000C62B602F0D3F8FEE780B5DFF877
S3151FFF0450840501F0E6FCDFF8800501F0E2FCDFF81A
S3151FFF04607C0501F0DEFC85A001F0DBFCDFF87005E3
S3151FFF04700168DFF8700501F0D4FCDFF86C05016831
S3151FFF0480DFF8340C01F0CDFC01BD38B505000C00BB
S3151FFF049000200090DFF8D00B00A90160DFF83405BC
S3151FFF04A001F0BFFCDFF8440501F0BBFCDFF82C05AC
S3151FFF04B001F0B7FC71A001F0B4FCDFF8B00B01F03F
S3151FFF04C0B0FCDFF8AC0B01F0ACFCDFF8A80B01F0BA
S3151FFF04D0A8FCDFF8B80B01F0A4FCDFF8B40B01F0A2
S3151FFF04E0A0FC032D14D0DFF8840B01F09AFCDFF874
S3151FFF04F0B80B01F096FCDFF8C40B01F092FCDFF896
S3151FFF0500C00B01F08EFCDFF8BC0B01F08AFCB3E0D9
S3151FFF05100A22DFF8540B0168606801F051FD0500E0
S3151FFF05200A22DFF8440B0168A06801F049FD10F1AC
S3151FFF0530020F80F09D80002D05D0022D54D02BD3A6
S3151FFF0540032D7AD093E0DFF8801BB1FBF0F1DFF8C4
S3151FFF05507C2BB2FBF0F0D0EB51004000DFF8701B95
S3151FFF05600860DFF86C0B0068DFF8641B096832222E
S3151FFF057051436422B1FBF2F1401ADFF8581B886022
S3151FFF0580DFF84C0B0068322148436421B0FBF1F0C2
S3151FFF0590DFF8401B48606FE0DFF8341B0968DFF8A0
S3151FFF05A0302B126842436423B2FBF3F2891ADFF83A
S3151FFF05B0242B9160DFF8181B096800FB01F06421EB
S3151FFF05C0B0FBF1F0DFF80C1B4860DFF8080B416842
S3151FFF05D0DFF8040B01F025FCDFF8F80A8168DFF866
S3151FFF05E0FC0A01F01EFC47E0DFF8DC1AB1FBF0F155
S3151FFF05F0DFF8D82AB2FBF0F0D0EB51004000DFF84E
S3151FFF0600E01A0860DFF8D80A0068DFF8D41A09680D
S3151FFF0610322251436422B1FBF2F1401ADFF8C41AAA
S3151FFF06208860DFF8BC0A0068322148436421B0FBAB
S3151FFF0630F1F0DFF8B01A48601EE0DFF8A41A096868
S3151FFF0640DFF89C2A126842436423B2FBF3F2891A2E
S3151FFF0650DFF8902A9160DFF8881A096800FB01F01E
S3151FFF06606421B0FBF1F0DFF87C1A486004E003E079
S3151FFF0670DFF8740A01F0D5FB31BD00000A00000048
S3151FFF068080B5DFF8680A006850F00200DFF85C1AD1
S3151FFF06900860DFF85C0A007850F03400DFF8501A64
S3151FFF06A00870DFF84C0A007850F0C000DFF8401AD8
S3151FFF06B00870DFF8400A01F0B4FBDFF8180ADFF80D
S3151FFF06C0381A0860DFF8300ADFF8301A0161DFF8E1
S3151FFF06D0280A04218160DFF8200A40F20221C18027
S3151FFF06E0DFF8140A00218180DFF80C0A00218182BE
S3151FFF06F0DFF8040A0021C160DFF8FC0901218162CE
S3151FFF0700DFF8F40900218161DFF8EC094FF4A461DA
S3151FFF07108183DFF8E40900210162DFF8DC1900207D
S3151FFF072000F066F9DFF8D809006850F00100DFF81E
S3151FFF0730D0190860DFF8CC09DFF8BC190860DFF8AD
S3151FFF0740B809A7490161DFF8B00904218160DFF805
S3151FFF0750A80940F20221C180DFF89C09042181808C
S3151FFF0760DFF8940900218182DFF88C097FF00701EA
S3151FFF0770C160DFF8840902218162DFF87C0900214D
S3151FFF07808161DFF8740900218183DFF86C09052178
S3151FFF07900162DFF86419002000F02AF9DFF860090B
S3151FFF07A0006850F00200DFF858190860DFF8580993
S3151FFF07B0007850F03100DFF850190870DFF848094C
S3151FFF07C0007850F0C000DFF840190870DFF82409E1
S3151FFF07D001F027FBDFF80C09DFF81C190860DFF8AB
S3151FFF07E01809DFF828190161DFF80C090421816058
S3151FFF07F0DFF8040940F20221C180DFF8FC0800215F
S3151FFF08008180DFF8F40800218182DFF8EC080021E0
S3151FFF0810C160DFF8E40801218162DFF8DC080021EF
S3151FFF08208161DFF8D4084FF4C4618183DFF8C808FC
S3151FFF083001210162DFF8C018002000F0D9F8DFF8A8
S3151FFF0840C008006850F00300DFF8B4180860DFF82F
S3151FFF0850C008DFF8A4180860DFF89C086249016129
S3151FFF0860DFF8940804218160DFF88C0840F202212B
S3151FFF0870C180DFF8840804218180DFF87C0800210E
S3151FFF08808182DFF874087FF00701C160DFF868080F
S3151FFF089002218162DFF8600800218161DFF85808B5
S3151FFF08A000218183DFF8500806210162DFF848180F
S3151FFF08B0002000F09DF8DFF84808006850F004009C
S3151FFF08C0DFF83C18086001BD80B5DFF8480801F066
S3151FFF08D0A8FADFF844084FF47851016000F056F884
S3151FFF08E0DFF8F00780210160DFF8E80740F65711B0
S3151FFF08F04160DFF8E00740F657118160DFF8E40734
S3151FFF09005FF480310160DFF8DC0740F65711416065
S3151FFF0910DFF8D00740F657118160DFF8E007802127
S3151FFF09200160DFF8E8075FF480310160FFF7A8FE7B
S3151FFF093000F0A2FB2A4840F2F16101602A4840F20B
S3151FFF0940F1610160DFF8D40701210160DFF8D007ED
S3151FFF095001210160DFF8CC0780210160DFF8C8079E
S3151FFF09605FF480310160DFF8C407006850F00100B3
S3151FFF0970DFF8B8170860DFF8B807006850F0010006
S3151FFF0980DFF8AC17086001F0BBFAFCE7DFF8A40736
S3151FFF09900068DFF8A4170843DFF898170860DFF829
S3151FFF09A09C070068DFF890170843DFF89017086069
S3151FFF09B0DFF88C07006850F08000DFF884170860A7
S3151FFF09C0DFF88007006850F48030DFF8781708607B
S3151FFF09D0704700005012FF1F8012FF1FA412FF1F38
S3151FFF09E000710340DC12FF1F10710340FC12FF1F33
S3151FFF09F070B50C0000250026002825D0022875D0CB
S3151FFF0A0069D3042800F0A48076D3062800F0158149
S3151FFF0A10C0F0CB80082800F08781C0F062810A28CA
S3151FFF0A2000F0C681C0F0A1810C2800F02382C0F020
S3151FFF0A3007820E2800F0AE82C0F09682102800F0C3
S3151FFF0A40E582C0F0AF820DE3256A6801DFF8F8166D
S3151FFF0A5022684250DFF8F00610EB4510E188C1808F
S3151FFF0A60DFF8E40610EB4510A1888180DFF8D80672
S3151FFF0A7010EB4510A1688160DFF8CC0610EB45101F
S3151FFF0A80E168C160DFF8C00610EB451021690161FF
S3151FFF0A90DFF8B40610EB4510A16A4904490CC18261
S3151FFF0AA0DFF8A40610EB4510A18A8182DFF89806AE
S3151FFF0AB010EB4510A1698161DFF88C0610EB45101D
S3151FFF0AC0A16A4904490CC183DFF87C0610EB451068
S3151FFF0AD0A18B8183C6E2256A002603E0A819216838
S3151FFF0AE07054761CA0688642F8D3BBE2256A206A3B
S3151FFF0AF0DFF858160870B5E2256ADFF84C0610EBCB
S3151FFF0B004510808B000604D4DFF8440600680028D2
S3151FFF0B10F3D0DFF83C060068002818D0DFF834064C
S3151FFF0B200068401CDFF82C1608600FF6202001F026
S3151FFF0B3078F9DFF81C0601680FF6402001F071F9FE
S3151FFF0B40DFF8140601680FF6442001F06AF989E2FF
S3151FFF0B50266A002500E06D1CA068854224D2206806
S3151FFF0B60285C2169695CC0B2C9B28842F3D0DFF83D
S3151FFF0B70E4050068401CDFF8DC1508600FF61C2033
S3151FFF0B8001F04FF920682A5CD2B2206829180FF6A8
S3151FFF0B901C2001F046F920692A5CD2B22069291868
S3151FFF0BA00FF61C2001F03DF95CE2256A29000FF6BE
S3151FFF0BB0242001F036F96801DFF88C1522684250B0
S3151FFF0BC0DFF8840510EB4510E188C180DFF8780553
S3151FFF0BD010EB4510A1888180DFF86C0510EB4510DF
S3151FFF0BE0A1688160DFF8600510EB4510E168C16001
S3151FFF0BF0DFF8540510EB451021690161DFF8480541
S3151FFF0C0010EB4510E18AC182DFF83C0510EB45105A
S3151FFF0C10A18A8182DFF8300510EB4510A16981613A
S3151FFF0C20DFF8240510EB4510E18BC183DFF81805AC
S3151FFF0C3010EB4510A18B818314E2256AE66A6801D2
S3151FFF0C40DFF8041522684250DFF8FC0410EB45104D
S3151FFF0C50E188C180DFF8F00410EB4510A188818081
S3151FFF0C60DFF8E40410EB4510A1688160DFF8D804B4
S3151FFF0C7010EB45100021C160DFF8CC0410EB4510C7
S3151FFF0C8021690161A06AC005C00D710211F4F051FF
S3151FFF0C90084350F40040DFF8B01411EB4511C8822A
S3151FFF0CA0DFF8A40410EB4510A18A8182DFF89804B0
S3151FFF0CB010EB451000218161A06AC005C00D7102AE
S3151FFF0CC011F4F051084350F40040DFF87C1411EB88
S3151FFF0CD04511C883DFF8700410EB4510002181838F
S3151FFF0CE0C0E1256AE66A05E0DFF85C0410EB4510F4
S3151FFF0CF000218183DFF8500410EB4510808B00061F
S3151FFF0D00F2D4DFF8440410EB4510808B80060AD41B
S3151FFF0D10DFF8340410EB4510310211F4706151F006
S3151FFF0D2020018183EDE79DE1256A6801DFF818142D
S3151FFF0D3040582168884204D10FF6B00001F071F8C0
S3151FFF0D4012E0DFF810040068401CDFF80814086083
S3151FFF0D500FF6B80001F065F86801DFF8EC1341588C
S3151FFF0D600FF6D00001F05DF87CE1256ADFF8D803A6
S3151FFF0D7010EB451000692169884204D10FF6C400A4
S3151FFF0D8001F04FF813E0DFF8CC030068401CDFF8D3
S3151FFF0D90C41308600FF6CC0001F043F8DFF8A80371
S3151FFF0DA010EB451001690FF6E80001F03AF859E11B
S3151FFF0DB0256A29000FF6E80001F033F86801DFF80E
S3151FFF0DC0881322684250DFF8800310EB4510E18835
S3151FFF0DD0C180DFF8740310EB4510A1888180DFF80F
S3151FFF0DE0680310EB4510A1688160DFF85C0310EB09
S3151FFF0DF04510E168C160DFF8500310EB451021690C
S3151FFF0E000161DFF8440310EB4510A16A4904490C41
S3151FFF0E10C182CD4810EB4510A18A8182CA4810EBCB
S3151FFF0E204510E16A8161C84810EB4510A16A490464
S3151FFF0E30490CC183C44810EB4510A18B818311E177
S3151FFF0E40256A04E0C04810EB451000218183BE4888
S3151FFF0E5010EB4510808B0006F4D4BB4810EB4510F2
S3151FFF0E60808BC00605D4B84810EB4510102181832F
S3151FFF0E70F3E7F7E0256AB44810EB4510808B0006B1
S3151FFF0E8003D4B34800680028F5D0B148006800288E
S3151FFF0E9065D0B0480068401CAE490860AC48006882
S3151FFF0EA0800604D50FF6140000F0BBFF761CA8487A
S3151FFF0EB00068C00704D50FF6240000F0B2FF761CAA
S3151FFF0EC0A3480068C00604D50FF6300000F0A9FF3F
S3151FFF0ED0761C9F480068000704D50FF6400000F0F8
S3151FFF0EE0A0FF761C9A480068000604D50FF64C0033
S3151FFF0EF000F097FF761C96480068400404D50FF64E
S3151FFF0F005C0000F08EFF761C91480068800704D5B1
S3151FFF0F100FF6680000F085FF761C8D4800684007B6
S3151FFF0F2004D50FF6780000F07CFF761C8848006812
S3151FFF0F30400604D50FF6840000F073FF761C844825
S3151FFF0F400068C00304D50FF6940000F06AFF761CF5
S3151FFF0F50002E08D10FF6B00000F063FF03E00FF677
S3151FFF0F60C00000F05EFF7DE07B4801680FF6C800FA
S3151FFF0F7000F057FF794840210170774801680FF647
S3151FFF0F80D00000F04EFF724801680FF2F05000F0DC
S3151FFF0F9048FF67E0256A72480121017071480121E8
S3151FFF0FA001705FE07048802101706D4881210170DB
S3151FFF0FB06C48822101706D48832101706C48842122
S3151FFF0FC001706C48852101706B48862101706B4843
S3151FFF0FD0872101706A48882101706A48892101703B
S3151FFF0FE069488A21017069488B21017068488C21E5
S3151FFF0FF0017068488D21017067488E21017067480F
S3151FFF10008F2101706648002101602BE0256AE66A81
S3151FFF10104D4810EB4510808B400605D54A4810EB0F
S3151FFF10204610808B000603D4494800680028EFD07E
S3151FFF10302A0031000FF6300000F0F3FE424810EB96
S3151FFF10404510808B000605D53F4810EB4610808B59
S3151FFF1050000603D43E4800680028EFD00FF648006D
S3151FFF106000F0DFFE70BD0000CC2FFF1F1013FF1F08
S3151FFF10702813FF1F5413FF1F1C48006850F400005E
S3151FFF10801A49086047480121016070478413FF1FF3
S3151FFF1090B013FF1F44485FF0FF310160704743489D
S3151FFF10A05FF0FF3101607047E013FF1F40485FF09D
S3151FFF10B0FF31016070470000EC12FF1F0C14FF1F6A
S3151FFF10C03C14FF1F6814FF1F006CDC020077010032
S3151FFF10D0B82FFF1FAC2FFF1F9814FF1FB414FF1F3E
S3151FFF10E0C82FFF1FBC2FFF1FD014FF1F3C800440BC
S3151FFF10F000100240F814FF1FD02FFF1FCCF00F4028
S3151FFF11000C800040B02FFF1F011002400CF00F4054
S3151FFF1110C02FFF1F3015FF1F388004400C7103407F
S3151FFF11201C710340C4F00F4004F00F4018710340B9
S3151FFF1130087103401CC00440000103004090044097
S3151FFF1140D4F00F4014F00F40009000401D80004068
S3151FFF115004800040A82FFF1F2C8000401E800040E8
S3151FFF11600281004001810040038100400081004051
S3151FFF11700781004006810040058100400481004031
S3151FFF11800B8100400A810040098100400881004011
S3151FFF11900F8100400E8100400D8100400C810040F1
S3151FFF11A00080004000700340A0B00440A0D0044060
S3151FFF11B0A090044068656C700000000048656C7065
S3151FFF11C0000000003C636D643E0000007365740001
S3151FFF11D053657420436F6E66696700003C6F7074BA
S3151FFF11E0696F6E2076616C75653E000073686F7759
S3151FFF11F00000000053686F7720436F6E66696700B4
S3151FFF12003C6F7074696F6E3E0000000072640000D1
S3151FFF1210526567697374657220446973706C61796F
S3151FFF12200000000000000000777274005772697497
S3151FFF1230652050495420203C726567697374657237
S3151FFF124020696E6465783E203C76616C75653E004D
S3151FFF12500A2D2D2D2D2D2D2D2D2D2D2D2D2D2D2DBD
S3151FFF12602D2D2D2D2D2D2D2D2D2D2D2D2D2D2D2D8A
S3151FFF12702D2D2D2D2D2D2D2D2D2D2D2D0A00000024
S3151FFF12802020202020202050495420526567697353
S3151FFF12907465722052656164205574696C6974792F
S3151FFF12A00A0000002D2D2D2D2D2D2D2D2D2D2D2DF4
S3151FFF12B02D2D2D2D2D2D2D2D2D2D2D2D2D2D2D2D3A
S3151FFF12C02D2D2D2D2D2D2D2D2D2D2D2D2D2D2D0A4D
S3151FFF12D000000000737973636C6B000050697430F4
S3151FFF12E02020203D202564200D0A000050697431FF
S3151FFF12F02020203D202564200D0A00002050574D39
S3151FFF1300205772697465205574696C6974790A0070
S3151FFF131056616C69642027777274272073796E7400
S3151FFF132061783A0A00000000536574205054443711
S3151FFF13302020506572696F64203E207772742020CB
S3151FFF13403C303E203C76616C756528487A293E0AFB
S3151FFF13500000000053657420505444372020447505
S3151FFF13607479203E2077727420203C313E203C76D4
S3151FFF1370616C75652870657263656E74293E200AF8
S3151FFF13800A000000536574205054413136205065C2
S3151FFF139072696F64203E2077727420203C323E2094
S3151FFF13A03C76616C756528487A293E0A0000000065
S3151FFF13B05365742050544131362044757479203E4D
S3151FFF13C02077727420203C333E203C76616C756516
S3151FFF13D02870657263656E74293E200A0A00000035
S3151FFF13E0536574205054443720506572696F6420CB
S3151FFF13F03E2077727420203C303E203C76616C7510
S3151FFF14006528487A293E200A0A0000005365742082
S3151FFF1410505444372044757479203E2077727420C8
S3151FFF1420203C313E203C76616C7565287065726382
S3151FFF1430656E74293E200A0A00000000536574205A
S3151FFF1440505441313620506572696F64203E2077B4
S3151FFF1450727420203C323E203C76616C75652848AD
S3151FFF14607A293E200A0A00005365742050544131E1
S3151FFF1470362044757479203E2077727420203C34C1
S3151FFF14803E203C76616C75652870657263656E7468
S3151FFF1490293E200A0A0000000A446D615F536F75DB
S3151FFF14A07263655F574F52445B315D203D20256454
S3151FFF14B00A000000446D615F536F757263655F5766
S3151FFF14C04F52445B325D203D2025640A0A0000000F
S3151FFF14D052656769737465722076616C7565206ED8
S3151FFF14E06F7420696E2076616C69642072616E6706
S3151FFF14F0652E0D0A0A0000000A5374617274696E25
S3151FFF1500672065444D412033322D626974206D6516
S3151FFF15106D6F727920746F206D656D6F7279207490
S3151FFF152072616E736665722074657374210A00009B
S3151FFF15305457522D4B343058323536204750494F6A
S3151FFF1540204578616D706C65210A00000A4552526D
S3151FFF15504F5221212120416E206572726F72206FBB
S3151FFF1560637572726564207768696C652070726F28
S3151FFF157063657373696E672E0A0000000A444D4147
S3151FFF15805F4553203D203078257800000A444D41A2
S3151FFF15905F455252203D2030782578000A446174FA
S3151FFF15A061206572726F7221000000000A53414469
S3151FFF15B044523A2030782578203D20307825780010
S3151FFF15C00A44414444523A2030782578203D203042
S3151FFF15D0782578000A54657374696E6720444D41F8
S3151FFF15E0206368616E6E656C202564000A534C414B
S3151FFF15F053542061646A7573746D656E74206973C5
S3151FFF160020636F72726563742E0000000A45525283
S3151FFF16104F5221212120534C4153542061646A7537
S3151FFF162073746D656E74206E6F7420636F7272654F
S3151FFF163063742E000A5341444452203D20307825BF
S3151FFF1640780000000A444C4153542061646A757345
S3151FFF1650746D656E7420697320636F727265637430
S3151FFF16602E0000000A4552524F5221212120444C81
S3151FFF16704153542061646A7573746D656E74206E71
S3151FFF16806F7420636F72726563742E0A0000000009
S3151FFF16900A4441444452203D2030782578000000FB
S3151FFF16A00A54657374696E6720444D4120636861F0
S3151FFF16B06E6E656C2025642E000000000A444145AE
S3151FFF16C0206572726F72206465746563746564202A
S3151FFF16D0636F72726563746C792E0A000A44424502
S3151FFF16E0206572726F72206465746563746564200A
S3151FFF16F0636F72726563746C792E0A000A444F45D5
S3151FFF1700206572726F7220646574656374656420E9
S3151FFF1710636F72726563746C792E0A000A4E4345B6
S3151FFF1720206572726F7220646574656374656420C9
S3151FFF1730636F72726563746C792E0A000A53414593
S3151FFF1740206572726F7220646574656374656420A9
S3151FFF1750636F72726563746C792E0A000A43504574
S3151FFF1760206572726F722064657465637465642089
S3151FFF1770636F72726563746C792E0A000A53424552
S3151FFF1780206572726F722064657465637465642069
S3151FFF1790636F72726563746C792E0A000A5347452D
S3151FFF17A0206572726F722064657465637465642049
S3151FFF17B0636F72726563746C792E0A000A534F4505
S3151FFF17C0206572726F722064657465637465642029
S3151FFF17D0636F72726563746C792E0A000A457272A3
S3151FFF17E06F722063616E63656C207472616E7366C0
S3151FFF17F0657220646574656374656420636F7272B6
S3151FFF18006563746C792E0A000A4552524F52204E59
S3151FFF18104F542044455445435445442121210A0032
S3151FFF18200A4E4F204552524F52204445544543546A
S3151FFF183045442121210A00000A4265666F72652011
S3151FFF1840444D415F455252203D2030782578000098
S3151FFF18500A416674657220444D415F455252203DD1
S3151FFF186020307825780000000A4368616E6E656C2C
S3151FFF1870202564207472616E7366657220697320FA
S3151FFF1880636F6D706C65746520616E64206368613C
S3151FFF18906E6E656C20256420697320707265656D99
S3151FFF18A070746564200A00000A426F7468207468AA
S3151FFF18B065206368616E6E656C732068617665204F
S3151FFF18C0636F6D706C6574656420746865207472D0
S3151FFF18D0616E736665720A00B411FF1F0000000078
S3151FFF18E00100000000000000E71FFF1FBC11FF1FC4
S3151FFF18F0C411FF1FCC11FF1F0000000002000000D4
S3151FFF1900000000003920FF1FD011FF1FDC11FF1F32
S3151FFF1910EC11FF1F00000000010000000000000087
S3151FFF19200321FF1FF411FF1F0012FF1F0C12FF1FC2
S3151FFF19300000000000000000000000004D04FF1F14
S3151FFF19401012FF1F2412FF1F2812FF1F0000000087
S3151FFF195003000000000000008B04FF1F2C12FF1F57
S3151FFF196000000000D412FF1F00000000010000004E
S3151FFF1970000000002412FF1F0500000001000000E9
S3151FFF198010B50C001168012902D0022904D009E005
S3151FFF1990C0B25168884705E0916808709068401C7F
S3151FFF19A09060FFE72068401C206010BD30B41C000C
S3151FFF19B0002300250570401C002A19D0096800293D
S3151FFF19C00AD1302101705B1C180030BC70473035BF
S3151FFF19D011000570401C5B1C0029F5D091FBF4F22A
S3151FFF19E004FB1215002DF2D5E94311F13105EFE77F
S3151FFF19F00968002908D1302101705B1CE4E73735E0
S3151FFF1A0011000570401C5B1C0029DDD0B1FBF4F2F1
S3151FFF1A1004FB12150A2DF2D23035F1E7F8B5040093
S3151FFF1A200D0016001F0005E03A0031003020FFF7BA
S3151FFF1A30A7FF641CAC42F7DBF1BDF8B504000D0030
S3151FFF1A4016001F0005E03A0031002020FFF798FF20
S3151FFF1A50641CAC42F7DBF1BD2DE9F04F8DB00500DD
S3151FFF1A601600002000900C0005E02A0000A91800B0
S3151FFF1A70FFF786FF641C2378002B00F0CE81252BF2
S3151FFF1A8012D00A2B05D02A0000A91800FFF778FFEE
S3151FFF1A9009E02A0000A90D20FFF772FF2A0000A9FF
S3151FFF1AA00A20FFF76DFFE5E70027002101E057F04A
S3151FFF1AB0010700291BD1641C207820280BD023285F
S3151FFF1AC00FD02B2804D02D28F1D0302806D00BE0BD
S3151FFF1AD057F00207EDE757F00407EAE757F0080745
S3151FFF1AE0E7E757F01007E4E7641E0121E1E75FF020
S3151FFF1AF00008002104E00A2000FB0830B0F130087F
S3151FFF1B00002908D1641C2378180030380928F2D918
S3151FFF1B10641E0121F4E7641C20782E280BD10021B7
S3151FFF1B20FFE7002908D1641C207830380928F8D927
S3151FFF1B30641E0121F5E7641E641C20784C2806D01D
S3151FFF1B40682802D06C2801D002E002E001E000E025
S3151FFF1B50641E641C23781800582878D0622800F06A
S3151FFF1B60DA80632800F02481642813D0692811D0F6
S3151FFF1B706E2800F04D816F2800F0C280702800F09C
S3151FFF1B80D580732800F01B81752800F0DA8078282E
S3151FFF1B905DD06AE730680390361D0A23012203A929
S3151FFF1BA004A8FFF703FF824604A81AEB0009039850
S3151FFF1BB0002804D52D2002901AF1010A11E03800E2
S3151FFF1BC0800704D52B2002901AF1010A09E038007D
S3151FFF1BD0400704D5202002901AF1010A01E00020D8
S3151FFF1BE002905FF0000B3800000711D502980028FE
S3151FFF1BF004D02A0000A90298FFF7C2FE5FF0010B6F
S3151FFF1C002B0000AA41465046FFF708FFC24612E0C7
S3151FFF1C103800C0070FD42B0000AA41465046FFF7D6
S3151FFF1C200CFF0298002804D02A0000A90298FFF78C
S3151FFF1C30A7FE5FF0010BBBF1000F07D1029800282B
S3151FFF1C4004D02A0000A90298FFF79AFEA3E0306886
S3151FFF1C500190361D1023002201A904A8FFF7A6FE37
S3151FFF1C60824604A81AEB00095FF0000B3800000735
S3151FFF1C7016D53800C0060BD52A0000A93020FFF75E
S3151FFF1C807FFE2A0000A97820FFF77AFE5FF0010B7F
S3151FFF1C902B0000AA41465046FFF7C0FEC2461CE076
S3151FFF1CA03800C00719D43800C00601D51AF1020A39
S3151FFF1CB02B0000AA41465046FFF7BFFE3800C0065D
S3151FFF1CC00BD52A0000A93020FFF75AFE2A0000A9CC
S3151FFF1CD07820FFF755FE5FF0010B3800C0060ED5C3
S3151FFF1CE0BBF1000F0BD12A0000A93020FFF748FEDA
S3151FFF1CF02A0000A97820FFF743FE1AF1020A4AE0DD
S3151FFF1D0030680190361D0823002201A904A8FFF79A
S3151FFF1D104DFE82461FE030680190361D02230022CA
S3151FFF1D2001A904A8FFF742FE824614E0306801901E
S3151FFF1D30361D1023002201A904A8FFF737FE82468E
S3151FFF1D4009E030680190361D0A23002201A904A865
S3151FFF1D50FFF72CFE824604A81AEB0009380000077E
S3151FFF1D6007D52B0000AA41465046FFF757FEC2462E
S3151FFF1D7011E03800C0070ED42B0000AA414650467B
S3151FFF1D80FFF75BFE07E02A0000A999F80000FFF79F
S3151FFF1D90F7FDB9F1010999F800000028F3D1F807FB
S3151FFF1DA005D52B0000AA41465046FFF746FE61E6C2
S3151FFF1DB03078361D2A0000A9FFF7E2FD5AE6D6F84E
S3151FFF1DC00090361DB9F1000F21D0484600F055FB94
S3151FFF1DD082463800C0070ED42B0000AA4146504644
S3151FFF1DE0FFF72BFE07E02A0000A999F80000FFF76F
S3151FFF1DF0C7FD19F1010999F800000028F3D1F8076B
S3151FFF1E0005D52B0000AA41465046FFF716FE31E6C1
S3151FFF1E103068361D009901602CE600980DB0BDE8AD
S3151FFF1E20F08F0EB400B584B00121009104490191D2
S3151FFF1E3005AA010000A8FFF70FFE04B05DF810FB0F
S3151FFF1E40E324FF1F38B50400002500F045FB0DE016
S3151FFF1E50691C502908DAB0F12001602904D22855E0
S3151FFF1E606D1CC0B200F03DFB00F036FB0D2815D0F0
S3151FFF1E700A2813D0502D11DA0100082901D07F2916
S3151FFF1E80E6D1012D09DB6D1E082000F02AFB20205D
S3151FFF1E9000F027FB082000F024FBE5E7002028556C
S3151FFF1EA00D2000F01EFB0A2000F01BFB200032BD99
S3151FFF1EB030B400220023002405E0002C02D00024AA
S3151FFF1EC01C5400245B1C1D5C002D11D01D5C202D96
S3151FFF1ED0F3D01D5C092DF0D0002CF3D101240A2A63
S3151FFF1EE006DA002902D01D1841F82250521CE9E7D5
S3151FFF1EF0002902D0002041F82200100030BC704795
S3151FFF1F0030B58BB0B848FFF79DFF00A9B648FFF75E
S3151FFF1F10CFFF0400002C08D1B449B34800F0BAFA2A
S3151FFF1F2000A9B148FFF7C4FF0400B04800210170A4
S3151FFF1F30002C43D0002500E06D1CAD48006885428C
S3151FFF1F4033DA00991C20AB4A00FB0520006800F01E
S3151FFF1F50F4F90028F0D1601E1C21A64A01FB0521BA
S3151FFF1F60496888421BDB1C20A24900FB05108068BD
S3151FFF1F70611E884213DB1C209E4900FB0510007B58
S3151FFF1F80C00703D50099994800F084FA00A92000DD
S3151FFF1F901C22984B02FB0532126990470EE00099EF
S3151FFF1FA00FF2FC20FFF73DFF08E000990FF2C0205C
S3151FFF1FB0FFF737FF0FF28020FFF733FF0BB030BD60
S3151FFF1FC038B504000D0000A9200000F0D8F900283D
S3151FFF1FD006D10099A14203D100202860002001E00D
S3151FFF1FE00121296032BD10B582B07CA0FFF719FF12
S3151FFF1FF0002419E01C207F4900FB04108069009014
S3151FFF20001C207C4900FB041003681C20794900FB38
S3151FFF2010041042691C20774900FB041001680FF268
S3151FFF20206C20FFF7FEFE641C714800688442E1DBEB
S3151FFF20306AA0FFF7F6FE13BD70B505000E0067A079
S3151FFF2040FFF7EFFE012D1FD10FF2B410FFF7E9FEC9
S3151FFF2050002411E01420684900FB041001680FF2E9
S3151FFF20608820FFF7DEFE1420634900FB0410016979
S3151FFF20705BA0FFF7D6FE641C604800688442E9DB5D
S3151FFF208056A0FFF7CEFE3BE0032D04D00FF28810BC
S3151FFF2090FFF7C7FE34E0002400E0641C57480068C2
S3151FFF20A0844228DA71681420534A00FB0420006813
S3151FFF20B000F043F90028F0D1A81E14214E4A01FB58
S3151FFF20C004214968884210DB14204B4900FB04108A
S3151FFF20D08068A91E884208DB310028001422464B60
S3151FFF20E002FB0432D26890470AE071680FF2601054
S3151FFF20F0FFF797FE04E071680FF2C410FFF791FE1A
S3151FFF210070BD70B505000C0034A0FFF78AFE012DC8
S3151FFF211021D102250020A060002614E01420364995
S3151FFF212000FB061001680FF2C010FFF77AFE2100B1
S3151FFF213028001422304B02FB0632D268904727A095
S3151FFF2140FFF76FFE761C2D4800688642E6DB23A04D
S3151FFF2150FFF767FE40E0002600E0761C2748006871
S3151FFF2160864234DA61681420234A00FB0620006882
S3151FFF217000F0E3F80028F0D1A81E14211E4A01FB28
S3151FFF21800621496888421CDB14201B4900FB0610E9
S3151FFF21908068A91E884214DB1420174900FB06100E
S3151FFF21A001680FF24410FFF73CFE2100280014229E
S3151FFF21B0114B02FB0632D26890470AA0FFF731FE8A
S3151FFF21C00AE061680FF28800FFF72BFE04E06168E3
S3151FFF21D00FF2EC00FFF725FE70BD00000A0000009E
S3151FFF21E025730A000A0A00000C30FF1F5C30FF1F11
S3151FFF21F07819FF1FD818FF1F6419FF1F7C19FF1FB0
S3151FFF220056616C6964202773657427206F70746924
S3151FFF22106F6E733A0A0000004572726F723A204959
S3151FFF22206E76616C696420617267756D656E742069
S3151FFF22306C6973740A000000456E74657220276807
S3151FFF2240656C702720666F722068656C702E0A009A
S3151FFF22504572726F723A20496E76616C69642061AE
S3151FFF22607267756D656E743A2025730A000000004C
S3151FFF22704572726F723A204E6F20737563682063C3
S3151FFF22806F6D6D616E643A2025730A0025387320C2
S3151FFF229020252D3235732025732025730A00000054
S3151FFF22A04572726F723A20496E76616C696420734C
S3151FFF22B0796E74617820666F723A2025730A000063
S3151FFF22C04572726F723A2020496E76616C6964207F
S3151FFF22D07365742F73686F77206F7074696F6E3AAB
S3151FFF22E02025730A00000000253132733A200000B3
S3151FFF22F0202801D0092801D1012000E000207047C6
S3151FFF2300B0F130010A2906D3B0F141011A2902D3D0
S3151FFF231061381A2801D2012000E0002070473038AB
S3151FFF23200A2801D2012000E00020704741381A28F1
S3151FFF233001D2012000E00020704710B40022002ABE
S3151FFF23401AD10378401C0C78491CB3F16102D2B233
S3151FFF23501A2A00D2203BB4F16102D2B21A2A00D246
S3151FFF2360203CDBB2E4B21A1B002A05D1DBB2002BDD
S3151FFF237002D0E4B2002CE2D1100010BC70472DE949
S3151FFF2380F84F04000D00160000275FF000085FF0EE
S3151FFF23900009002C05D0002E03D4012E01D0252EB7
S3151FFF23A004DB002D00D02C60002064E0A24601E074
S3151FFF23B01AF1010A9AF80000FFF79AFF0028F7D1D2
S3151FFF23C09AF800002D2811D0302814D19AF8010051
S3151FFF23D0782803D09AF80100582806D1002E01D07D
S3151FFF23E0102E02D110261AF1020A04E05FF001092E
S3151FFF23F01AF1010AFFE7002E00D10A2603E006FBAA
S3151FFF240007B71AF1010A9AF800B0BBF1000F06D001
S3151FFF24105846FFF775FF00280DD15FF00108002D05
S3151FFF242001D0C5F800A0B8F1000F23D0002D00D0B2
S3151FFF24302C6000201FE05846FFF771FF002802D0CF
S3151FFF2440BBF1300B09E05846FFF770FF002802D09B
S3151FFF2450BBF1370B01E0BBF1570BB34502DB5FF057
S3151FFF24600108DCE7B9F1000FC9D006FB07F0B0EB97
S3151FFF24700B07C6E73800BDE8F28F0021002802D1FF
S3151FFF2480002006E0491C0200501C1278002AF9D1D1
S3151FFF24900800704702000B0000280BD0002909D047
S3151FFF24A003E0197811705B1C521C19780029F8D1AB
S3151FFF24B000211170704750F8041B61B150F8042BAF
S3151FFF24C0D30744BFA9F101039A18002342F8043B1F
S3151FFF24D0091FFAD1EFE7704780B5054800F07EF870
S3151FFF24E002BD80B50100C9B2014800F07CF801BDED
S3151FFF24F000D0064030B4324B984206D1314B1B6891
S3151FFF250053F480632F4C23602DE02F4B984206D147
S3151FFF25102C4B1B6853F400632A4C236023E02B4B81
S3151FFF2520984206D1274B1B6853F48053254C2360D3
S3151FFF253019E0274B984206D1224B1B6853F40053D1
S3151FFF2540204C23600FE0234B984206D1224B1B687A
S3151FFF255053F48063204C236005E01F4B1B6853F425
S3151FFF256000631D4C2360C37813F0F303C37000236E
S3151FFF257083704FF47A7303FB01F3140193FBF4F398
S3151FFF2580047814F0E0049BB21D0A15F01F052C43B7
S3151FFF2590047043704FF4FA446143120191FBF2F149
S3151FFF25A09BB2B1EB4311827A12F0E00411F01F01C7
S3151FFF25B021438172C17851F00C01C17030BC704745
S3151FFF25C000A006403480044000B0064000C006400D
S3151FFF25D000D0064000A00E402880044001798906DE
S3151FFF25E0FCD5C079704702791206FCD5C1717047B9
S3151FFF25F080B500F025FB00F03FFB00F08BFBB2A080
S3151FFF2600FFF70FFCB1480078400703D50FF2D02024
S3151FFF2610FFF707FCAD480078800703D50FF2D020E0
S3151FFF2620FFF7FFFBA9480078C00703D50FF2DC2091
S3151FFF2630FFF7F7FBA6480078000603D50FF2D82051
S3151FFF2640FFF7EFFBA2480078400603D50FF2D8200D
S3151FFF2650FFF7E7FB9E480078800603D50FF2DC20C5
S3151FFF2660FFF7DFFB9A480078400703D50FF2E420F8
S3151FFF2670FFF7D7FB96480078800703D50FF2EC20AC
S3151FFF2680FFF7CFFB92480078C00703D50FF2F8205C
S3151FFF2690FFF7C7FB00F003F8FEF716F9FEE780B555
S3151FFF26A08C480068000910F00700002806D0022892
S3151FFF26B00ED008D3042815D00FD318E00FF2D4205D
S3151FFF26C0FFF7AFFB17E00FF2D420FFF7AAFB12E0CD
S3151FFF26D00FF2D020FFF7A5FB0DE00FF2D020FFF77B
S3151FFF26E0A0FB08E00FF2CC20FFF79BFB03E00FF2E6
S3151FFF26F0CC20FFF796FB7748006810F00F000228E3
S3151FFF270012D0042815D0052818D006281BD0072855
S3151FFF27101ED0082821D0092824D00A2827D00C2804
S3151FFF27202AD00E282DD031E00FF2B820FFF779FB04
S3151FFF273030E00FF2B820FFF774FB2BE00FF2B42047
S3151FFF2740FFF76FFB26E00FF2B420FFF76AFB21E0CE
S3151FFF27500FF2B020FFF765FB1CE00FF2B020FFF76B
S3151FFF276060FB17E00FF2AC20FFF75BFB12E00FF2E7
S3151FFF2770AC20FFF756FB0DE00FF2A820FFF751FB2A
S3151FFF278008E00FF2A820FFF74CFB03E00FF2A4208F
S3151FFF2790FFF747FB4F48006810F470410FF2BC204C
S3151FFF27A0FFF73FFB4C480068000E00281AD0012890
S3151FFF27B01DD0022820D0032823D0042826D0052881
S3151FFF27C029D006282CD007282FD0082832D0092831
S3151FFF27D035D00A2838D00B283BD00C283ED0FF28EF
S3151FFF27E041D045E00FF27C20FFF71BFB44E00FF2C1
S3151FFF27F08C20FFF716FB3FE00FF29820FFF711FB28
S3151FFF28003AE00FF2A820FFF70CFB35E00FF2B420DA
S3151FFF2810FFF707FB30E00FF2C420FFF702FB2BE0A9
S3151FFF28200FF2D020FFF7FDFA26E00FF2E020FFF7A9
S3151FFF2830F8FA21E00FF2EC20FFF7F3FA1CE00FF294
S3151FFF2840FC20FFF7EEFA17E00FF20830FFF7E9FA61
S3151FFF285012E00FF21830FFF7E4FA0DE00FF2243003
S3151FFF2860FFF7DFFA08E00FF23430FFF7DAFA03E07B
S3151FFF28700FF23C30FFF7D5FA18480068000B10F02F
S3151FFF28800F00052806D0072809D008280CD00928CD
S3151FFF28900FD013E00FF23830FFF7C3FA12E00FF233
S3151FFF28A04430FFF7BEFA0DE00FF24C30FFF7B9FACF
S3151FFF28B008E00FF25830FFF7B4FA03E00FF2643067
S3151FFF28C0FFF7AFFA01BD00000A0A000000E007404C
S3151FFF28D001E00740248004404C8004400070044000
S3151FFF28E0536F6674776172652052657365740A004C
S3151FFF28F0436F7265204C6F636B7570204576656EEF
S3151FFF2900742052657365740A000000004A544147DC
S3151FFF29102052657365740A00506F7765722D6F6E4F
S3151FFF29202052657365740A0045787465726E616C13
S3151FFF29302050696E2052657365740A005761746370
S3151FFF294068646F6728434F50292052657365740A61
S3151FFF2950000000004C6F7373206F6620436C6F631C
S3151FFF29606B2052657365740A000000004C6F772D4C
S3151FFF2970766F6C7461676520446574656374205256
S3151FFF2980657365740A0000004C4C575520526573DA
S3151FFF299065740A000A4B31302D0000000A4B323096
S3151FFF29A02D0000000A4B33302D0000000A4B343038
S3151FFF29B02D0000000A4B36302D0000000A556E729F
S3151FFF29C065636F676E697A6564204B696E657469A7
S3151FFF29D0732066616D696C79206465766963652E00
S3151FFF29E00A000000333270696E0A000034387069BE
S3151FFF29F06E0A0000363470696E0A0000383070693F
S3151FFF2A006E0A0000383170696E0A0000313030706F
S3151FFF2A10696E0A0031303470696E0A0031343470C2
S3151FFF2A20696E0A0031393670696E0A0032353670A3
S3151FFF2A30696E0A000A556E7265636F676E697A65FE
S3151FFF2A4064204B696E65746973207061636B616780
S3151FFF2A506520636F64652E0A00000000726576208D
S3151FFF2A6025640A003132206B4279746573206F66C5
S3151FFF2A7020502D666C617368090000003136206B8C
S3151FFF2A804279746573206F6620502D666C6173687B
S3151FFF2A90090000003332206B4279746573206F661D
S3151FFF2AA020502D666C617368090000003438206B57
S3151FFF2AB04279746573206F6620502D666C6173684B
S3151FFF2AC0090000003634206B4279746573206F66E8
S3151FFF2AD020502D666C617368090000003936206B24
S3151FFF2AE04279746573206F6620502D666C6173681B
S3151FFF2AF009000000313238206B4279746573206FED
S3151FFF2B006620502D666C61736809000031393220CB
S3151FFF2B106B4279746573206F6620502D666C6173E7
S3151FFF2B2068090000323536206B4279746573206F52
S3151FFF2B306620502D666C61736809000033323020A2
S3151FFF2B406B4279746573206F6620502D666C6173B7
S3151FFF2B5068090000333834206B4279746573206F20
S3151FFF2B606620502D666C6173680900003434382067
S3151FFF2B706B4279746573206F6620502D666C617387
S3151FFF2B8068090000353132206B4279746573206FF7
S3151FFF2B906620502D666C61736809000046756C6C64
S3151FFF2BA02073697A6520502D666C61736809000072
S3151FFF2BB0455252212120556E646566696E656420F4
S3151FFF2BC0502D666C6173682073697A650A00000071
S3151FFF2BD0203332206B4279746573206F6620524112
S3151FFF2BE04D0A0A00203634206B4279746573206FB5
S3151FFF2BF0662052414D0A0A00203936206B427974EE
S3151FFF2C006573206F662052414D0A0A002031323804
S3151FFF2C10206B4279746573206F662052414D0A0AF5
S3151FFF2C200000000020455252212120556E64656623
S3151FFF2C30696E65642052414D2073697A650A0A00E1
S3151FFF2C4080B500F009F80A4800884FF6FE71084064
S3151FFF2C500749088001BD000072B606484CF2205195
S3151FFF2C60018004484DF62811018062B670470000A7
S3151FFF2C70002005400E20054080B51C481C49884290
S3151FFF2C800BD0002006E01949194A52F8202041F8B7
S3151FFF2C902020401CB0F5826FF5D3144800F09CF836
S3151FFF2CA01449154A1548801A03E013780B70521CF6
S3151FFF2CB0491C0300581E002BF7D111491148401A12
S3151FFF2CC002E000220A70491C0200501E002AF8D19A
S3151FFF2CD00D490E4A0E48801A03E013780B70521CDB
S3151FFF2CE0491C0300581E002BF7D101BD0000FF1F13
S3151FFF2CF00000FF1F00000000000000000000000092
S3151FFF2D00A82FFF1FAC30FF1F0000000000000000B0
S3151FFF2D100000000080B52448006850F4785022490F
S3151FFF2D2008600321022000F05DF8204908601F4854
S3151FFF2D3000684FF47A7148431D4908601C480068B4
S3151FFF2D401C490968C1F30361491CB0FBF1F01A491D
S3151FFF2D50086000F012F800F01BF818484FF4407196
S3151FFF2D60016017484FF4407101605FF4E13212486A
S3151FFF2D7001681448FFF7BEFB01BD1348006850F4F6
S3151FFF2D8080501149086011484FF4E0610160704798
S3151FFF2D900F48006850F001000D4908600D484FF4B9
S3151FFF2DA0A061016070470000388004400430FF1F98
S3151FFF2DB00030FF1F448004400830FF1F44B004400B
S3151FFF2DC040B0044000D006400480044018900440E1
S3151FFF2DD0408004400CB00440014908607047000062
S3151FFF2DE008ED00E010B4C0B2042801D3002061E053
S3151FFF2DF0C9B2102901D301205CE02F4B2C241C7074
S3151FFF2E002E4B98241C702E4B1B789B07FBD52C4BE8
S3151FFF2E101B78DB06FBD42A4B1B78C3F38103DBB27C
S3151FFF2E20022BF8D111F01F01264B197026490023DB
S3151FFF2E300B70C0B2002805D0022814D00BD303286D
S3151FFF2E4019D020E021485FF4803101601E484121DF
S3151FFF2E500170322217E01D481D4901601A485A2189
S3151FFF2E60017064220FE0194819490160164858215D
S3151FFF2E700170602207E015485FF480310160124838
S3151FFF2E804021017030220E4800788006FBD50C4882
S3151FFF2E9000784006FBD50948007810F03F00074928
S3151FFF2EA0087007480078C0F38100C0B20328F8D125
S3151FFF2EB01000C0B210BC70470140064000400640DC
S3151FFF2EC00640064004400640054006404480044035
S3151FFF2ED00000130180B504480178C9B20FF20C0038
S3151FFF2EE0FEF79FFF01BD000004ED00E00A2A2A2A14
S3151FFF2EF02A64656661756C745F69737220656E748B
S3151FFF2F0065726564206F6E20766563746F72202508
S3151FFF2F10642A2A2A2A2A0D0A0A00000010B5084920
S3151FFF2F2079441C31074C7C441A34A14206D0081D34
S3151FFF2F300A68511888470146A142F8D110BD00BF44
S3151FFF2F4008000000140000006FF5FFFF04010000DA
S3151FFF2F50A82FFF1F0000000000F009F8002801D06E
S3151FFF2F60FFF7DCFF0020FDF7AFFC00F002F80120A2
S3151FFF2F70704780B500F002B800BF0000074638460D
S3151FFF2F8000F002F8FBE7000080B5C046C046024AC4
S3151FFF2F9011001820ABBEFBE726000200C046C04645
S30D1FFF2FA0C046C046FFF7D8FF2C
S7051FFF2F9D10
