S01D00004578325F53696E676C654368616E6E656C5F434D502E737265635F
S1130000F80B002011040000F5100000F5100000AA
S1130010F5100000F5100000F5100000F5100000C8
S1130020F5100000F5100000F5100000F5100000B8
S1130030F5100000F5100000F5100000F5100000A8
S1130040F5100000F5100000F5100000F510000098
S1130050F5100000F5100000F51000006D00002000
S1130060F5100000F5100000F5100000F510000078
S1130070F5100000F5100000F5100000F510000068
S11300806D000020F5100000F5100000F5100000D0
S1130090F5100000F5100000F5100000F510000048
S11300A0F5100000F5100000F5100000F510000038
S11300B0F5100000F5100000F5100000F510000028
S11300C0F5100000F5100000F5100000F510000018
S11300D0F5100000F5100000F5100000F510000008
S11300E0F5100000F5100000F5100000F5100000F8
S11300F0F5100000F5100000F5100000F5100000E8
S1130100F5100000F5100000F5100000F5100000D7
S1130110F5100000F5100000F5100000F5100000C7
S1130120F5100000F5100000F5100000F5100000B7
S1130130F5100000F5100000F5100000F5100000A7
S1130140F5100000F5100000F9100000F510000093
S1130150F5100000F5100000F5100000F510000087
S1130160F5100000F5100000F5100000F510000077
S1130170F5100000F5100000F5100000F510000067
S1130180F5100000F5100000F5100000F510000057
S1130190F5100000F5100000F5100000F710000045
S11301A0F5100000F5100000F5100000F510000037
S11301B0F5100000F5100000F5100000F510000027
S11301C0F5100000F5100000F5100000F510000017
S11301D0F5100000F5100000F5100000F510000007
S1130400FFFFFFFFFFFFFFFFFFFFFFFFFEFBFFFFFD
S113041000200021002200230024002500260027BC
S113042062B600F0D3FEFEE710B50C001168012996
S113043002D0022904D009E0C0B25168884705E01F
S1130440916808709068401C9060FFE72068401C29
S1130450206010BDF0B51C000026050000202870A7
S11304606D1C002A1CD00F68002F09D13020287081
S1130470761C3000F0BD30320F002A706D1C761CE3
S1130480002FF6D03800210000F02CFA01000800FB
S113049060433A1A002AEED5D04302003132EBE72A
S11304A00F68002F08D130202870761CE1E737311F
S11304B0070029706D1C761C002FDAD0380021004B
S11304C000F024FA01006143791A0A29EFD230318D
S11304D0EEE7F8B50F0015001E00040005E0320039
S11304E029003020FFF7A0FF641CBC42F7DBF1BDFC
S11304F0F8B50F0015001E00040005E032002900C5
S11305002020FFF791FF641CBC42F7DBF1BDF1B57D
S113051090B01700002000900E0005E0109A694684
S11305201800FFF781FF761C3378002B00D1C4E15B
S1130530252B12D00A2B05D0109A69461800FFF714
S113054073FF09E0109A69460D20FFF76DFF109ABA
S113055069460A20FFF768FFE5E70025002102E06D
S113056028000125054300291FD1761C3078202856
S11305700CD0232812D02B2804D02D28F0D03028DA
S113058008D00FE0280002250543ECE728000425E5
S11305900543E8E7280008250543E4E7280010257B
S11305A00543E0E7761E0121DDE7002002900021EB
S11305B005E002980A225043C018303802900029FE
S11305C008D1761C3378180030380928F1D9761E02
S11305D00121F4E7761C30782E280BD10021FFE7A7
S11305E0002908D1761C307830380928F8D9761ECD
S11305F00121F5E7761E761C30784C2806D0682851
S113060002D06C2801D002E002E001E000E0761E96
S1130610761C33781800582871D0622800D1CAE0BB
S1130620632800D113E1642813D0692811D06E28FF
S113063000D13DE16F2800D1B2E0702800D1C5E0BF
S1130640732800D10BE1752800D1CAE0782856D070
S113065064E7386806903F1D0A23012206A907A80B
S1130660FFF7F8FE040007A8001905900698002873
S113067003D52D200190641C0DE0A80703D52B2081
S11306800190641C07E0680703D520200190641CD6
S113069001E00020019000200490280711D5019862
S11306A0002804D0109A69460198FFF7BDFE012086
S11306B00490109B6A4602992000FFF70AFF029CEF
S11306C011E0E8070FD4109B6A4602992000FFF757
S11306D00FFF0198002804D0109A69460198FFF78B
S11306E0A3FE012004900498002807D10198002853
S11306F004D0109A69460198FFF796FE9AE038688C
S113070003903F1D1023002203A907A8FFF7A2FEB0
S1130710040007A80019059000200490280715D5A7
S1130720E8060BD5109A69463020FFF77DFE109A33
S113073069467820FFF778FE01200490109B6A46F2
S113074002992000FFF7C5FE029C18E0E80716D4C2
S1130750E80600D5A41C109B6A4602992000FFF706
S1130760C7FEE8060BD5109A69463020FFF75CFEF9
S1130770109A69467820FFF757FE01200490E80696
S11307800DD5049800280AD1109A69463020FFF745
S11307904BFE109A69467820FFF746FEA41C49E0F8
S11307A0386803903F1D0823002203A907A8FFF718
S11307B051FE04001FE0386803903F1D022300220D
S11307C003A907A8FFF746FE040014E03868039065
S11307D03F1D1023002203A907A8FFF73BFE0400D6
S11307E009E0386803903F1D0A23002203A907A8E3
S11307F0FFF730FE040007A800190590280707D565
S1130800109B6A4602992000FFF763FE029C11E0E8
S1130810E8070FD4109B6A4602992000FFF768FE90
S113082008E0109A694605980078FFF7FDFD0598E1
S1130830401E0590059800780028F2D1E80705D5F8
S1130840109B6A4602992000FFF752FE6BE6386857
S1130850C0B23F1D109A6946FFF7E6FD63E63868AB
S113086001903F1D0198002821D0019800F065F8FF
S11308700400E8070FD4109B6A4602992000FFF792
S113088037FE08E0109A694601980078FFF7CCFD1E
S11308900198401C0190019800780028F2D1E807E3
S11308A005D5109B6A4602992000FFF721FE3AE61F
S11308B038683F1D0099016035E6009811B0F0BD1D
S11308C00EB400B584B0012100910549019105AA37
S11308D001006846FFF71BFE049908B008470000B2
S11308E029120000CA0F00D0494203105A400DD00B
S11308F004B500D3404200F009F8009AD20701D3AE
S11309004942124200D5404204BD0000094210D0C1
S113091088420BD30122002300185B418B4200D391
S11309205B1A5241F8D319001000704701000020EF
S1130930704708B500F010F808BD00B501000020AC
S1130940002902D1002006E0401C0A001100491CC5
S11309501278002AF8D100BD704738B40121002272
S11309600368001D002B0BD00468001D0C4202D04C
S11309704D466D1E64192260241D1B1FF0D0FAE73A
S113098032BC704708B4024B9C4608BC6047C04662
S11309901100002080B533482A210170012132481A
S11309A000F0D4F93149884200D0FEE7304800789D
S11309B0DF2101402E4801702E48007802210143B6
S11309C02C4801702C4800688021090301432A48FF
S11309D001609C480068012101439A48016000F0CD
S11309E05BF800F019F800F004F8FFF7CBFF0020E3
S11309F002BD9548002101602048002101601F4884
S1130A000068052101431D4801601D48092101605A
S1130A108D4880210160704780B58C4800210170A9
S1130A201848002101708948007820210143874833
S1130A3001701548007810210143134801701348D0
S1130A409F21017012480F21017012480221017088
S1130A50072000F018FA7D480078012101437B4803
S1130A60017001BD00E0074000093D0080841E00C4
S1130A700540064001400640348004400400044020
S1130A8008000440003007400330074004300740AA
S1130A900530074002C007406D48006880214901C5
S1130AA001436B4801606B480068802149010143A0
S1130AB06848016068480068402101436648016055
S1130AC0664800684021014364480160644800218D
S1130AD001606448002101606348002101606348AB
S1130AE00021016062480021016062480021016028
S1130AF061480021016061480021016060480021D3
S1130B00016060488021490001605F480021016064
S1130B105E48002101605E488021490001605D4813
S1130B20002101605C48002101605C4800210160F3
S1130B305B48002101605B48002101605A480021A4
S1130B4001605A4800210160594800210160594858
S1130B5000210160584800210160584800210160CB
S1130B605748002101605748002101605648002180
S1130B700160564800210160554800210160554834
S1130B8000210160374800210160534800210160C1
S1130B905248002101605248002101603048002180
S1130BA0016050488021490001604F4800210160E4
S1130BB04E48002101604E48002101604D4800214B
S1130BC001604D48002101604C48002101604C48FF
S1130BD0002101604B48002101604B480021016065
S1130BE04A48002101604A48002101604948002127
S1130BF001604948002101604848002101604848DB
S1130C00002101604748002101604748002101603C
S1130C104648002101604648002101604548002102
S1130C2001604548002101604448002101604448B6
S1130C300021016043480021016043480021016014
S1130C407047000038800440000004400130074031
S1130C5014F00F4004F00F4054F00FF848F00FF870
S1130C6014A0044004A004401490044018900440CC
S1130C701C90044020900440249004402890044098
S1130C802C90044030900440349004403890044048
S1130C903C900440409004404490044048900440F8
S1130CA04C900440509004405490044058900440A8
S1130CB05C90044060900440649004406890044058
S1130CC06C90044070900440749004407890044008
S1130CD07C90044000A0044008A004400CA0044000
S1130CE010A0044018A004401CA0044020A004400C
S1130CF024A0044028A004402CA0044030A00440B8
S1130D0034A0044038A004403CA0044040A0044067
S1130D1044A0044048A004404CA0044050A0044017
S1130D2054A0044058A004405CA0044060A00440C7
S1130D3064A0044068A004406CA0044070A0044077
S1130D4074A0044078A004407CA0044000B5454A47
S1130D501278D2B292089207920F002A03D1414A24
S1130D601278D20601D4012079E0C9B2002906D153
S1130D703E4A821A3E4B9A4208D331206FE03D4AE4
S1130D80821A3D4B9A4201D3322068E0C9B200294D
S1130D9006D03A4A127801231343384A137005E007
S1130DA0364A1278FE231340344A13702E4A1278BE
S1130DB09206920E130040221A432B4B1A70C9B2AA
S1130DC0002911D1002200E0521CFA23DB0012B2E8
S1130DD09A4203DA234B1B78DB07F5D4214A1278B5
S1130DE0D20713D513203AE0002200E0521CFA2364
S1130DF0DB0012B29A4203DA1A4B1B78DB07F5D5F3
S1130E00184A1278D20701D4142028E0002200E006
S1130E10521CFA23DB0012B29A4207DA114B1B78F8
S1130E20DBB29B089B079B0F012BF1D10D4A127873
S1130E30D2B292089207920F012A01D019200EE033
S1130E40C9B200290BD00121054A1278D2B2520846
S1130E505207520F9140C9B2FFF744FDFFE700BDAE
S1130E60084006400640064000400640127A000052
S1130E70861E0000C0C62D0081841E00014006406D
S1130E8010490860704770B50400312C03DB0E482C
S1130E90FFF716FD15E00D48056801262000202106
S1130EA0FFF720FD8E402E43084806600848056879
S1130EB0012620002021FFF715FD8E402E43044813
S1130EC0066070BD08ED00E05C11000080E200E007
S1130ED000E100E010480068012101430E48016070
S1130EE00E480078032101430C4801700C48062188
S1130EF001600C480068012101430A4801600A4866
S1130F000078062101430848017008480021C943BC
S1130F10016030BFFEE700BF4C80044001E00740A1
S1130F2010ED00E0000004400330074080E200E0E0
S1130F3000B51948007819490978DF220A40174991
S1130F400A7017491F220A7013490978C90703D583
S1130F50144940220A6002E0134940220A60C0B2E8
S1130F60400707D50C480C21017010488021490125
S1130F70016006E00848122101700D4880214901F2
S1130F8001600648007820210143044801700448A8
S1130F900F21017000BD00BF03300740013007403E
S1130FA00530074044F00FF848F00FF804F00FF84C
S1130FB008F00FF810B51E481E4988420ED00020D4
S1130FC008E0042141431A4A04234343194CE358DB
S1130FD05350401C822149008842F2D31448FFF741
S1130FE04FFF1549154A1648801A03E013780B7011
S1130FF0521C491C0300581E002BF7D111491248FA
S1131000401A02E000220A70491C0200501E002A05
S1131010F8D10E490E4A0F48801A03E013780B707A
S1131020521C491C0300581E002BF7D110BD00BFF1
S113103000FCFF1F00000000000000000000000092
S113104000000000F0000020040100201000002037
S1131050D40E0000B40F000000B51D480068C02184
S1131060C90001431A4801601A480078000705D5F1
S1131070184800780821014316480170164817499A
S1131080016015480068FA218900FFF72BFC144918
S1131090086011480068FA218900FFF723FC114910
S11310A008601048006810490968090F491CFFF7D7
S11310B02DFC0E4908600D4800680B490968090CAD
S11310C04907490F491CFFF721FC0949086000BD85
S11310D03880044002D00740F0000020406F4001F7
S11310E000010020F400002044800440F8000020A7
S11310F0FC0000207047704780B5154800680090D8
S113110013480068C00709D5114800684007400F1C
S11311100F4908600F480521016017E00C4800687A
S113112080070CD50A4800684007400F084908604A
S113113008480521016006481021016006E00448C2
S11311400068400702D504480021016001BD000089
S113115014D0034000D0034008D003400A45525243
S11311602120496E76616C69642049525120766170
S11311706C75652070617373656420746F20656E8F
S113118061626C65206972712066756E6374696F43
S11311906E210A0010B5074979441831064C7C4485
S11311A0163404E0081D0A68891888470100A14222
S11311B0F8D110BD08000000140000009FF7FFFFE5
S11311C014000000F000002000000000044800218A
S11311D00160FFF7EFFEFFF73FFFFFF7DBFBFEE7E2
S11311E00081044000F009F8002801D0FFF7D2FF85
S11311F00020FFF7CFFB00F002F80120704780B514
S113120000F002F801BD00000746384600F002F87D
S1131210FBE70000C046C046024A11001820ABBEDE
S1131220FBE700BF2600020080B50100C9B20248F6
S113123000F004F801BD000000A0064000B50279EA
S11312401206FCD5C17100BDC046C046C046C046AA
S1071250FFF7C8FFD9
S9031249A1
