S01900004B36305F444D415F417564696F5F4D51582E7372656383
S1130000F0FE002051040000679A0200679A020083
S1130010679A0200679A0200679A020000000000D3
S11300200000000000000000000000008F990200A2
S1130030679A020000000000059A0200679A020015
S1130040679A0200679A0200679A0200679A0200A0
S1130050679A0200679A0200679A0200679A020090
S1130060679A0200679A0200679A0200679A020080
S1130070679A0200679A0200679A0200679A020070
S1130400FFFFFFFFFFFFFFFFFFFFFFFFFEFFFFFFF9
S107041000000000E4
S113042000B501464FF00300ABBE00BD00B5014668
S11304304FF00400ABBE00BD00B54FF000014FF01B
S11304400700ABBE00BD000000000000000000007B
S11304500F481049104A4FF0080333B140F8042BF9
S113046041F8042BA3F10103F7E7EFF3088080F3CD
S11304700988EFF3148040F0020080F3148800F040
S11304800DB880F3088870470000000000000000E9
S113049080E100E080E200E0FFFFFFFFC046C046CD
S11304A0C046C04600F000F800F009F8002801D06A
S11304B000F00CF8002000F01FF800F027F800B559
S11304C081B000F032F8012001B000BD10B5084938
S11304D079441C31074C7C441A34A14206D0081DCF
S11304E00A68511888470146A142F8D110BD00BFDF
S11304F088960200BC96020000B581B0024800F064
S113050075F8002001B000BD609F020000F02CB916
S11305102F484CF22051C1814DF62811C181018828
S11305204FF6FE7211400180704710B52A4C206AC4
S113053000F08EFA00F03FFDE06B4FF4407140F0A4
S11305400100E06320680843206024484FF4A06160
S1130550016041608161C161016241628162C16285
S113056001634163C0F8D81FC0F8DC1FC0F8E01F66
S1130570C0F8E41FC0F8E81FC0F8EC1FC0F8F01F73
S1130580C0F8F41FC0F8F81FC0F8FC1F144801603D
S113059041608160C16001614161C0F8D81FC0F849
S11305A0DC1FC0F8E01FC0F8E41FC0F8E81FC0F863
S11305B0EC1FC0F8F01F07484FF08051016609494D
S11305C001604FF4166181600749416010BD00006D
S11305D00020054000C000400480044028A00440DE
S11305E028B004400000007001000700F0B5064682
S11305F07068574D0F30040924010FF264102C6009
S113060020600FF2601083B020604FF448712046E0
S113061000F026FDB6E88E5004F28C10A0E88E504F
S1130620B6E88E50A0E88E50C4F89041D4F89401F6
S113063000090001C4F8940100F08EFD00F0FAFDF9
S113064010B100F00BFEFEE7D4F89861D4F8B47151
S11306509FB9D82E3CBFD820C4F89801D4F898018B
S113066000F11006304600F009FE070002D100F048
S1130670F5FDFEE7022100F00BFE3146384600F09E
S1130680C7FEF019401E00090001E063D82000F005
S1130690F5FD060002D100F0E1FDFEE7012100F0C6
S11306A0F7FD06F1D7000009000104F25001A0F1A2
S11306B064024A61086106F10F00000900018861C3
S11306C04869686000F0E0FE10B100F0C7FDFEE785
S11306D0012104F2BC1000F00BFF012104F23010E0
S11306E000F006FF00F036FF10B100F0B7FDFEE7A2
S11306F001900090E0690123C168002204F2BC204B
S113070000F0E2FD10B900F0A9FDFEE700F089FE5B
S1130710D4F89C5103E000BF00F083FE2035286824
S113072088B1287DC007F9D5002001900090E069C8
S11307300023C168AA69284600F0C6FD0028EBD151
S113074000F08CFDFEE729F00BF9002003B0F0BDAA
S11307500000FF1F00B581B000F080FDFEE700003F
S113076000000803F89B02000746384600F0E0FF4B
S1130770FBE750F8041B61B150F8042BD30744BFC6
S1130780A9F101039A18002342F8043B091FFAD186
S1130790EFE7704770B40022010003D0012808BFBE
S11307A0012200E00422DFF81C341C7814F0C00499
S11307B00ED0402C07D0802C0CD15C7964064CBF41
S11307C00324022408E05C78640804F0010403E0D4
S11307D0042401E05FF000040FF2084504EB8404F4
S11307E05519645D042C00F2CB80DFE804F0033B70
S11307F04D83B000B8B1012840F0C28047251D7078
S113080021255D70DD78002605F01F05DD70DFF819
S1130810B8532E70DFF8B4532E68760876002E6035
S113082000251D7114E044251D7021255D70DD78BF
S1130830002605F01F05DD70DFF88C532E70DFF8FD
S11308408C532E68760876002E6038251D71182585
S11308505D719D79ED06FCD59D7905F00C05042D9F
S1130860FAD18DE0012840F08B8047251D702325A7
S11308705D70DFF8545300262E709D79ED06FCD58B
S11308809D79ED07FCD57BE0D0B1012878D1DFF864
S1130890385300262E70DFF834532E68760876001D
S11308A02E6021255D70AB251D70DD7805F01F05D8
S11308B0DD7000251D715D719D79ED06FCD440E06D
S11308C0DFF8045300262E70DFF800532E687608F4
S11308D076002E6021255D70A8251D70DD7805F059
S11308E01F05DD7038251D7118255D719D79ED0694
S11308F0FCD426E098B1012842D1DFF8CC5200267E
S11309002E70DFF8C8522E68760876002E60AB256C
S11309101D7021255D700D251D71402510E0DFF847
S1130920A85200262E70DFF8A4522E6876087600AE
S11309302E60A8251D7021255D7038251D71582550
S11309405D719D7905F00C05082DFAD118E0B8B950
S11309509D4D00262E709D4D2E68760876002E60E3
S113096028251D7021255D7038251D7158255D7160
S11309709D7905F00C050C2DFAD19D796D06FCD5F9
S1130980A2427FF429AF70BC704770B50446032CB3
S113099001D3022070BD34B1022C3AD01ED3874853
S11309A00470002070BD8548884D007802280DD160
S11309B0874E307800F0DF003070864828640020CD
S11309C0FFF7E8FE307840F0200030708248286459
S11309D0686C20F00D0040F002002BE077487B4D5E
S11309E0007802280DD17A4E307800F0DF003070A4
S11309F0784828640020FFF7CDFE307840F02000CE
S1130A00307076482864686C20F00D0040F00200D5
S1130A1010E06F4E6D4D307800F0DF0030706D489F
S1130A2028640120FFF7B6FE4FF440302864686C58
S1130A30000900016864286840F480302860684830
S1130A40016841F4002101605C480470002070BD1D
S1130A5000B581B0FFF75CFD012191F8FE13594800
S1130A60FF2907D0817040F2FE310978C27861F322
S1130A700402C2705549584A0A644A6C22F00D02B5
S1130A8042F002024A640A6842F480320A60544A1C
S1130A90136843F4002313604B4A002313700B685C
S1130AA05B085B000B6021234370A8230370C378A9
S1130AB003F01F03C3703823037118234371837930
S1130AC0DB06FCD4837903F00C03082BFAD1002352
S1130AD013700B685B085B000B60A8230370212371
S1130AE043703823037158234371837903F00C0353
S1130AF0082BFAD1002313700A68520852000A60C6
S1130B002822027021224270382202715822427136
S1130B10827902F00C020C2AFAD182795206FCD5B1
S1130B20427901B042F020024271486B4FF40072E6
S1130B301043486300BD10B50446FFF726FF38B9DB
S1130B400021204600F000FEC82100F0FDFC00203A
S1130B5010BD1A4800787047032838BF1E2908D2F0
S1130B6000EB80020FF2980000EBC20050F8210065
S1130B707047002070471148007801280ED11048B2
S1130B801E2181700A21C17080210170017809063B
S1130B90FCD40178890603D51B20704701207047D7
S1130BA01F2181708021C170C02101700178090664
S1130BB0FCD400788006EFD4002070479C0CFF1F03
S1130BC008400640004006400050064004800440AF
S1130BD00540064000003301000013010000777750
S1130BE00070044000010202020001000000000045
S1130BF002030302020203040303030304000000CC
S1130C0000D8B805006CDC02006CDC0200366E0112
S1130C10006CDC0200D8B8050000000000000000F1
S1130C20008000005E5F0000001BB700001BB700DF
S1130C30001BB700001BB700006CDC0200D8B8052D
S1130C400000000000000000008000005E5F000063
S1130C5080841E0080841E0080841E0020A1070062
S1130C60000000000000000080841E00000000005E
S1130C700080000000400000052800F2C680DFE884
S1130C8000F00324436887A6C80705D5DFF850039E
S1130C904FF45072C2600261880704D5DFF8400344
S1130CA00022C2600261480705D5DFF83803C26834
S1130CB042F48062C260080705D5DFF82803C168E2
S1130CC021F48061C16000207047C80705D5DFF8B2
S1130CD018034FF4507202604260880704D5DFF8AD
S1130CE00803002202604260480705D5DFF8F402D9
S1130CF0C26842F40062C2600807E4D5DFF8E40287
S1130D00C16821F40061DDE7C80708D5DFF8D8021F
S1130D104FF45072C0F8FC2FDFF8C4020260880759
S1130D2007D5DFF8C4020022C0F8FC2FDFF8B002B8
S1130D300260480705D5DFF8AC02C26842F480526D
S1130D40C2600807BFD5DFF89C02C16821F4805156
S1130D50B8E7C80705D5DFF890024FF45072426334
S1130D608263880704D5DFF880020022426382632D
S1130D70480705D5DFF86C02C26842F40052C2602D
S1130D800807A0D5DFF85C02C16821F4005199E797
S1130D90C80705D5DFF854024FF450724264026468
S1130DA0880704D5DFF8440200224264026448073D
S1130DB004D58C48026842F480620260080782D538
S1130DC08848016821F48061016000207047C807E9
S1130DD004D586484FF4507202604260880703D5F8
S1130DE08248002202604260480704D57D480268B8
S1130DF042F40062026008077FF565AF7948016834
S1130E0021F400610160002070474FF0FF3070470B
S1130E1030B97748C16841F00061C1600020704773
S1130E20012806D17248016841F000610160002088
S1130E3070474FF0FF30704710B4002100F01F02DC
S1130E40030504D5042A04D34FF0FF3043E0022AFB
S1130E501FD01A2A22D200F47044B4F5805F08BF70
S1130E600FF2C0100AD000F4C063B3F5806F1CBF4A
S1130E704FF4C063184203D10FF2C410105C07E0B2
S1130E80101F042805D20FF2D410101810F8040C07
S1130E9010B94FF0FF301EE0012801D100201AE004
S1130EA04209521E042A0DD8DFE802F0030507099F
S1130EB00B00504906E0504904E0504902E0504913
S1130EC000E0504900F01F0051F8202022F4E062B5
S1130ED041F82020002010BC70474B48016841F0C5
S1130EE0005101600020704728B102281DD010D3A2
S1130EF04FF0FF30704742484FF400710160416089
S1130F008160C1603A48C16841F48051C1600020E9
S1130F1070473E484FF40071016041608160C160D8
S1130F203348C16841F40051F0E735484FF400718B
S1130F30C162016341638163C1632D48016841F467
S1130F40805101600020704790B940F243402D4A1F
S1130F5008401060506001F488619160D0601061B5
S1130F6050612348016841F400310160002070475A
S1130F704FF0FF30704720B1012810D04FF0FF3000
S1130F80704723484FF40871C0F8F81FC0F8FC1FDD
S1130F902048016841F040010160002070471C486E
S1130FA04FF40871016041601A48016841F0800102
S1130FB00160002070471848016841F478510160CD
S1130FC000207047032802D0042802D005E013480B
S1130FD000E013484FF440710160002070470000A6
S1130FE00CC00440288004400CB0044020D00440CD
S1130FF0308004400090044000A0044000B004404D
S113100000C0044000D004403C80044004D00440AC
S113101028B00440348004403880044048B0044080
S11310206CD004400101010162818586404127287A
S11310304243606101B8B9010101010100000000EF
S11310400101010168696A6B4041444546474A4BC6
S1131050013101010100000100000000A0A1A2A3D0
S1131060024604296ED3C30704D5002002F8010BFD
S11310701046491E820703D5002220F8022B891E40
S11310808A0922D0002340F8043B40F8043B40F88E
S1131090043B40F8043B40F8043B40F8043B40F870
S11310A0043B40F8043B40F8043B40F8043B40F860
S11310B0043B40F8043B40F8043B40F8043B40F850
S11310C0043B40F8043B521EDCD18A0802F00F02B4
S11310D0521E0E2A36D8DFE802F0322F2C2926239E
S11310E0201D1A1714110E0B0800002240F8042BBF
S11310F0002240F8042B002240F8042B002240F880
S1131100042B002240F8042B002240F8042B002278
S113111040F8042B002240F8042B002240F8042B52
S1131120002240F8042B002240F8042B002240F84F
S1131130042B002240F8042B002240F8042B002248
S113114040F8042B8A0744BF002220F8022BC90769
S113115044BF00210170704730B52F4881B0046846
S113116043F6F83020824FF4C57060820820206076
S1131170012060600220E0810F206081A081D4F80A
S11311809C0110B90120FFF7E5FA0120C4F8000121
S113119000F05CF904F25000E061E18A4FF6FF755B
S11311A06183E18A8184D4F88C1145EA0141C160EC
S11311B003218160002104F2241000F0C7FA002109
S11311C004F2641000F0C2FA0020D4F89C1100224A
S11311D005E0CB68984238BF1846521C20310B6892
S11311E00BB1AA42F5D30D4AC4F8FC0004F2BC21A9
S11311F00A60E0228A600FF22C02401C0A61084A4D
S11312004A60C860002104F2041000F09FFA012033
S1131210C4F8100101B030BD0000FF1F03000080BE
S1131220219602005F6D71785F69646C655F74611B
S1131230736B000000B5084881B0026802F22030E8
S1131240C2F8EC02D2F8942100F23001521A00F0F4
S113125083FA002001B000BD0000FF1F06480068AB
S1131260C169496D11B9C18A81F31188C069416DA1
S1131270491C4165704700BF0000FF1F034900235C
S11312800968D1F8EC22503100F09ABA0000FF1F2F
S113129010B120F8021C0120704710B450F8041B50
S11312A081B102681218001D50F8043BDC0744BFEA
S11312B0A9F10104E31852F8044B43F8044B091F45
S11312C0F9D1EBE710BC70472DE9F24F07465D48B2
S11312D0F968D0F800B084B0DBF8FC0090461D46F5
S11312E0DDF838900F9E884205D20BF2BC2087426D
S11312F018BF0E2027D1B9F1000F10D0B6F5BC7F6E
S113130098BF02201FD900234A4602A9304600F0A4
S11313103BFB04460298361A9DB1203E11E0B868A2
S1131320D92838BFD8200F3000090601002D14BF7A
S113133006F1200030460023002202A900F024FB1D
S1131340044624B90A2000F079FB00205CE0032065
S1131350A060D4F810A0BAF1000F04BF029800EB0B
S1131360040A75B1B7E80E505046A0E80E500ECFEF
S11313700AF1200A0EC020380746386840F00040C1
S11313803860B1085046491C2F4A01E040F8042B4C
S1131390491EFBD1F868DBF82010000140424018D8
S11313A0E06120628189B9F1000FA184796918BFD5
S11313B041F02001A162CDF8048080893B46324689
S11313C000905146204600F051FBE8B1A76638680A
S11313D0B9F1000F6066DBF880026067DBF8840215
S11313E0A067DBF88802E067049820660BD12146E9
S11313F0204600F065FB002D14BFAAF120005046E2
S1131400214600F05DFB204605B0BDE8F08F0000EA
S11314108908491C0C4A01E040F8042B491EFBD101
S113142070470849C26909685368D1F824C09445D3
S113143038BF4A6202218160436019680160186004
S1131440506070470000FF1F6B61747300B525483E
S1131450006800F28C114A69082A28BF072201D2C9
S11314600AB901224A61510101F0E001C182C0229E
S11314706A211D4800F028FB1C494FF0FF3008602A
S113148048608860C86000BD70B5164804680020D4
S11314902062D4F8FC00861C300100F033FB050008
S11314A001D1042070BD0521FFF7F2FEB6B1D4F8D6
S11314B0A0018119491E2D60761E6D60EE810729F9
S11314C03DBF8219520102F0E002C022AA81226AC1
S11314D0491EAA6025621035002EECD1206A606294
S11314E0002070BD0000FF1F00E400E080E100E088
S11314F030B50446124881B00568A161002104F1A9
S1131500080000F023F9FFF7A9FED5F8240105F23D
S1131510241100E00068884206D0A042FAD100F00D
S1131520FBFA4FF4826009E0214605F2241000F032
S113153007FB0448606100F0EFFA002001B030BD01
S11315400000FF1F6D73776CB0FBF1F05949401E2A
S11315500860704710B542F2620000F00FFB4FF0D4
S11315600051002000F018FBFA21002000F024FBB9
S1131570002840F08380504800F028FB0F2000F042
S11315802DFB00220FF2F9010F2000F02FFB10B306
S113159000F0D8F8494C002100F0D6F8C821B0FB7F
S11315A0F1F0401E606007202060D4F80C0D40F07C
S11315B08050C4F80C0DD4F8100D40F08040C4F8ED
S11315C0100D0120FFF7B7FA28B9FFF7D4FA10B9C4
S11315D0FFF7B1FA08B1262010BD3948046839482C
S11315E0C4F87C01C82000F049FBD4F87C0100F069
S11315F04DFB00210FF28D0000F050FB00F058FB72
S113160000F060FB002839D1FFF767FC28B90420FB
S113161000F06AFB012000F083FC2B490FF2C400A8
S11316200A6800F0C1FC29490FF2C00000F06EFE08
S1131630274C0FF2C000214600F068FE21460FF24D
S1131640BC0001F0E3FA23490FF2B80001F022FED6
S11316500FF2B80002F008FA1F490FF2B80002F0C6
S1131660E3FA1E490FF2B40002F06FFE1C490FF2B8
S1131670B40003F0BDFA03F045FC002010BD0000E7
S113168003F056BC0B4900200A684B681202120A88
S11316901B02D1F8F0CC521C1B0A5FEA4C1C03D588
S11316A0486803021B0A104603B91346D11A4018AE
S11316B07047000014E000E00000000010E000E0CB
S11316C00000FF1F00530700A89C0200749C020046
S11316D0889C0200389C0200209C0200689C020046
S11316E09C9C0200747479643A000000693263308F
S11316F03A000000693263313A00000069693263DC
S1131700313A0000737069323A0000006770696F03
S11317103A000000616463313A0000006573646854
S1131720633A0000696F64656275673A00000000FF
S113173080B5C046C046024A11001820ABBEFBE784
S113174026000200FFF705BAFFF706BA0060406002
S1131750002202814181704730B50446164881B0A9
S11317600568501800090001206101F10F0000090B
S11317700001E060E0622169091A016000218160D2
S113178044606061A061E0612062FFF767FDD5F805
S1131790E00220B9002105F2E020FFF7D7FF21463F
S11317A005F2E02000F0CCF900F0B6F9034801B0EE
S11317B0A060204630BD00000000FF1F70656D6C06
S11317C02DE9F043044688461546A8686D4900276C
S11317D081B09946884204D0382000F02FF90020C7
S11317E056E004F10C00102838BF10200F30000917
S11317F00401FFF733FD6E6901E03746B668002E39
S113180040D0AE6100F088F9FFF728FDAE69686941
S1131810864208BF37463068A042EED3011B102928
S113182007D3A01901604560B1688160B06034607D
S113183001E00446B06869698E420CBF6861B86013
S11318406869A8616869E86168692862E86868622B
S1131850E868A862D8F80C003081002070817560B7
S1131860E86AB04238BFEE6200F056F9B9F1000FF1
S113187005D0A4F10C0106F10C00FFF7F1FB06F111
S11318800C0005E000F048F9042000F0D7F800202F
S113189001B0BDE8F0832DE9F04F044689461E46A9
S11318A0B068384981B093460A9F4FF000088842D7
S11318B004D0382000F0C2F8002060E004F10C00ED
S11318C0102838BF10200F3000090401FFF7C6FCB0
S11318D0706904EB0901A9F10C05A1F10C0A00954A
S11318E001E080468068002843D0B06100F014F91C
S11318F0FFF7B4FCB0697169884208BF8046009A5A
S113190000F1100301689A4224BF0A185245E8D333
S11319102A1A091B891A0260102906D36219116058
S1131920566081689160826001E00C198268C8F891
S113193008202C60AA607169B1617169F1617169F3
S11319403162F1687162F168B162DBF80C102981CF
S1131950002169816E60F16A814238BFF06200F053
S1131960DBF827B1A4F10C014846FFF779FB4846A0
S113197005E000F0D1F8042000F060F8002001B088
S1131980BDE8F08F70656D6C70B506462A48144644
S113199005684FF6FE72B5F80C01904213D2A020F0
S11319A0086024B1A0212046FFF75AFB15E000F09F
S11319B0A9F8040007D0304600F0E6F8206120B909
S11319C0204603F01DFB002070BD24212046FFF7B4
S11319D05FFC25212069FFF75BFCD5F81061D5F881
S11319E08C01D5F81411B6B246EA0040E060002933
S11319F00CBF05F2041101F26C0104F16C0205F252
S1131A00041003F06BFB204605F204130146C86E74
S1131A10761CA0F16C021046B6B206B901269A42B1
S1131A2003D0D26892B2B242F0D0C5F81411C5F80E
S1131A301061204670BD00BF0000FF1F0A490A68FC
S1131A40138B002B19BF516BC968D169C96D00286C
S1131A5018BF002905D1002B19BF526BD060D26981
S1131A60D0650846704700BF0000FF1FF0B552184C
S1131A70521E81B012090F31069D079E12010909F9
S1131A8002610901A2F16407816147611C46642176
S1131A903846FFF7E5FA0020386008487D6038646E
S1131AA0FE62606801B040F0010078644FF080701D
S1131AB0B8646FF00200B8620120F0BD59960200CC
S1131AC0C96820F8041C704762F30F2262F31F42B6
S1131AD000B500BF130096469446103928BFA0E80D
S1131AE00C50FAD85FEA417C28BF0CC048BF40F8CC
S1131AF0042BC90728BF20F8022B48BF00F8012B8C
S1131B0000BD0000034901230968D1F8EC22C9692A
S1131B10FFF756BE0000FF1F08480068C1694A6D00
S1131B2052B1521E4A6507D1018B00291ABF406B7E
S1131B308068408B80F31188704700BF0000FF1F4E
S1131B4030B581B004460D46FFF788FB20896189D2
S1131B5029B1884203D3FFF7DFFF00200CE061685E
S1131B60401C096829606268156062686A604D609B
S1131B702081FFF7D1FF012001B030BD0149096880
S1131B80088170470000FF1F0A4900230968D1F843
S1131B90EC22C969FFF714BE00B5064A81B0126889
S1131BA000230093D2F8EC32D269FFF774FE01B03F
S1131BB000BD00000000FF1F10B503F0ABFA0400E5
S1131BC008BF03F0E1FA204610BD0000024A116884
S1131BD0106008467047000008ED00E002490968FB
S1131BE0C1F87001704700BF0000FF1F2DE9F041EC
S1131BF0044620480D4607689046B86B20B9182063
S1131C00FFF71CFF002033E0F86A844224BF386BDE
S1131C10A04204D21420FFF711FF002028E0FFF7B0
S1131C201DFBF86AB96B201AC00851F8206003E064
S1131C303068A04214D03669002EF9D11420FFF781
S1131C401DFB06462321FFF723FBF86AB96B201A14
S1131C50C00851F82020084F326141F8206000E0AC
S1131C60776834607560C6F80C80FFF755FF384616
S1131C70BDE8F0810000FF1FD59502000249096804
S1131C80C1F87801704700BF0000FF1F02490968CE
S1131C90C1F88001704700BF0000FF1F034A1268AB
S1131CA0C2F88401C2F88811704700BF0000FF1F0A
S1131CB0034801684908490001600020704700009A
S1131CC000D0004003480121006800F25820FFF7CB
S1131CD00FBC00BF0000FF1FDFF8A412484302D06E
S1131CE000BF401EFCD1704770B504460025C007F4
S1131CF018D5FFF7B3FADFF88C62306940F00100C1
S1131D003061DFF88402056045608560C560306934
S1131D104008400030614FF0FF30B0600120306077
S1131D20FFF7FAFEA00713D5FFF798FADFF854621D
S1131D30306940F001003061306940084000306192
S1131D4001203060DFF840028560C560FFF7E4FEE3
S1131D5060072AD5DFF82C623069C00703D53069E3
S1131D6040084000306132460FF245015220FFF72F
S1131D703DFF18B903F010FA050016D17069C006CA
S1131D8002D53069C0050BD430694FF48071084323
S1131D9030617D20FFF7A0FF706940F01000706192
S1131DA001220421522003F003FA284670BD0000EA
S1131DB070B4DFF8D001DFF8D0114469012281B09A
S1131DC0CB6814F0030515D0456925F0100545616D
S1131DD04FF0FF3585600260456945F010054561A7
S1131DE0E5074CBF08250025A6074CBF042600269E
S1131DF035432B4364071BD584680D68AC4209D175
S1131E000A7A43F00103920754BF4FF0FF324A6845
S1131E10826000224E68B44206D10A7A43F002037B
S1131E20D20702D5856003E012B14FF0FF32826021
S1131E300A69CB6013001EBFCB6889680B4202D0CD
S1131E4001B070BC104701B070BC70472DE9F0417F
S1131E500246118840F26D1040F2B277A1F2B273DB
S1131E6000FB03F840F2B37399421CD34FF4C874D7
S1131E70642603254FF0000E2F4210D1B8B290FB18
S1131E80F6F34FF0010E06FB13030BB94FF0000EEF
S1131E9090FBF4F304FB13030BB94FF0010E7F1C0A
S1131EA0F0448F42E6D3B2F802E00127BEF1020FFC
S1131EB022D30FF2DC0C4FF4C87564265FF00300E4
S1131EC0BCF80030022F18FA83F810D10024014224
S1131ED00CD191FBF6F3012406FB131303B9002480
S1131EE091FBF5F305FB131303B90124A0447F1CF4
S1131EF00CF1020C7745E3D3D38890884FF46164E6
S1131F006343401E2149404401FB00301189C1EB69
S1131F100113518900EB830010FA81F0BDE8F081D0
S1131F2010B58AB0174C012810D120680090039096
S1131F300020049005A903A803F092F901A905A8BB
S1131F4003F0F6F901A803F09BFA14E001A803F0EA
S1131F50BBFA05A901A803F083F905A8FFF776FFEA
S1131F600090606920F01000606100982060606952
S1131F7040F01000606100200AB010BD00000000B5
S1131F800077010000D00340480CFF1F805101007E
S1131F901F001C001F001E001F001E001F001F004A
S1131FA01E001F001E001F0000B585B003910FF234
S1131FB07511049202910FF25D110FF23113019128
S1131FC00FF23D110FF2051200910FF20D0103F013
S1131FD087FA05B000BD00002DE9F04307467D688F
S1131FE081B08846E8B203F075FC040008BF2B20DA
S1131FF068D0542003F090FC060008BF042061D090
S1132000C8F800603462B7E80F531746A6E80F53C8
S1132010203E1521E8B2FEF72FFE0421E8B2FEF7B8
S11320202BFE00210022F068002F18BF002812D0D8
S11320300101B7FBF1F171B10A0102FB107243080F
S113204003EB4202B2FBF0F2202A24BF491C002217
S1132050B1F5005F0DD2080A00F01F002070617016
S1132060A07A02F01F0100F0E000A072A07A0843F9
S1132070A0720020A070E07800F0FD00E070A07A6B
S113208000F03F00A072002020726072A071207CDA
S1132090C0F3021030B1217C0120C1F30211491CAC
S11320A08840401EE07401206075607C40F0C000F0
S11320B06074207C40F088002074E07840F00C00CC
S11320C0E070002001B0BDE8F083000010B5406866
S11320D00C460421C0B2FEF7CFFD206A0021C17076
S11320E0204602F08DFF002010BD0000016A0A792D
S11320F09206FCD5426B521C4263C87970470000BB
S1132100026A13791B06FCD5D171816B491C81636A
S113211070470000006A807C00F04001481E804146
S1132120C00F704770B5046AC91E00F0E48040F621
S1132130FF43C91A00F0B080491E30D0491E30D088
S1132140491E5DD0491E74D0891F1DD0491E14D06C
S1132150891E00F0D880491E00F08880491E7BD07B
S1132160091F71D0491E72D0491E00F0B680491E65
S113217000F0BE8040F6092070BDA078C0F30010C6
S113218008301060002070BDA078116820F01000A5
S1132190092908BF40F01000A070002070BDC0687D
S11321A0EFE78368002500261168002B18BF00297B
S11321B014D00D01B3FBF5F585B12E0106FB1133E7
S11321C04E0806EB4303B3FBF1F6202E24BF6D1C2F
S11321D00026B5F5005F01D3162070BD290A01F071
S11321E01F0121706570A17A06F01F0301F0E00160
S11321F0A172A17A1943A1721168C160002070BD57
S1132200016B1160416B42F8041F816B42F8041F9B
S1132210C16B42F8041F016C42F8041F416C42F880
S1132220041F816C42F8041FC06C42F8040F0020A4
S113223070BD0021016341638163C1630164416432
S11322408164C164002070BD2079C00999E72079B8
S1132250400900F0010094E7A1780120890790D596
S1132260A078C00754BF032002208AE7A078116831
S11322708008800001298FD00CD3032905D009D20E
S113228040F00300A070002070BD40F00200A07078
S1132290002070BD0C2070BD11688A060CD5406802
S11322A0FEF790FE607B00F0F6006073607B40F008
S11322B002006073002070BD0807607B08D500F041
S11322C0FD006073607B40F009006073002070BD06
S11322D000F0F4006073002070BD10680128E078FD
S11322E014BF40F0040000F0FB00E070002070BD5B
S11322F02079002070BDA07C0006FCD52079400622
S1132300FCD5002070BD01203BE7000000B583B080
S113231002910FF271110FF2614301910FF2D14159
S11323200FF22D1200910FF20D0103F0FFFA03B02A
S113233000BD00002DE9F04705460F46287803F05C
S113234095FB040008BF4AF6021000F07E805C2072
S113235003F0E2FA060008BF042076D040F20B41F5
S1132360FEF796FF2878FEF706FE3E608FCD143DFB
S11323708FC6143E74610020B061F06130626878E9
S11323800021002286F82400002086F8250086F823
S1132390260086F82700B062F06230637063B06391
S11323A0F06330647064B064F06430657065B06587
S11323B0A070E070A8784FF0FF330FF2447640002D
S11323C0207068684FEA0105DFF8A4730FF23C7CC3
S11323D04FF000094FEA0C0EDEF800A0D6F800809A
S11323E00AFB00FA08FB0A7ABAF1000F48BFCAF1E7
S11323F0000A9A4502D2534629464A46DEF804A00A
S113240009F101090AFB00FA08FB0A78B8F1000F88
S113241048BFC8F10008984502D2434629464A46B7
S113242009F101090EF1080EB9F1400FD4D36D1C66
S1132430361D032DCCD302F03F0040EA81106070BA
S1132440A07840F08000A0700020BDE8F087000074
S113245010B50446002918BF002C02D14AF6031017
S113246010BD4869C178890602D54AF6011010BD2D
S113247000218170FF21C170A06902F0C1FD00201C
S1132480A06110BD2DE9F04F0346002087B05C69C0
S1132490C91E36D040F2FE35491B00F0CB80491EE0
S11324A000F01581491E00F0B180491E00F0B4808F
S11324B0491E00F0B880491E00F02881491E00F032
S11324C02A81491E00F01881491E00F01A81491E14
S11324D000F08C80491E3DD0491E59D0491E00F0A1
S11324E01F81491E00F02181491E00F02B81491EE5
S11324F000F08280491E00F08480491E00F029818A
S113250033E1E1788DF80010A178C90609D59DF86A
S1132510001001F0A0012029F3D0D96B1D6CA94251
S1132520EFD1196CD96393F82710890709D59DF861
S11325300010890605D483F827009862072183F8E0
S11325402510002A00F011819DF8001001F001010E
S113255011600AE1A1784AF60110890640F105816B
S113256093F82510022902BFD96B1A6C91420AD044
S113257093F82510032907BF996A002993F82510B9
S1132580072940F0F280012083F825000020ECE0C8
S1132590A17801F0E701A170E17841F01201E17046
S11325A0986283F8270083F82500196B5963A17892
S11325B089065CBF21798DF8001003D5A17801F05C
S11325C0DF01A170E1788DF800109DF800108906F4
S11325D040F1CB809DF800108907F3D5E17841F0F4
S11325E00201E17021798DF80010EBE7002A00F078
S11325F0B18011689962B8E0A17801F07F01A170FF
S1132600B3E0A17841F08001A170AEE093F8251009
S113261031B14AF60110A8E093F8251081B90121DF
S113262083F82410A1E0002A00F0948093F8241089
S113263011609AE0002A00F08D80E178890602D5C5
S11326404AF6011091E01168002203464FF0FF356D
S113265006460FF2AC47DFF818C10FF2B04E8246BF
S11326604FEA0E08D8F800B0D7F800900BFB01FB36
S113267009FB0BCBBBF1000F48BFCBF1000BAB4503
S113268002D25D4632465346D8F804B00AF1010A34
S11326900BFB01FB09FB0BC9B9F1000F48BFC9F1E2
S11326A00009A94502D24D46324653460AF1010AB1
S11326B008F10808BAF1400FD4D3761C3F1D032E4D
S11326C0CDD303F03F0141EA821161704DE0002A4D
S11326D040D061780FF22845264B890955F821101E
S11326E064780FF2284504F03F0455F82440614310
S11326F0B3FBF1F1116038E062B3116883F826107E
S113270033E03AB393F8261011602EE012B3116847
S11327104900217029E0EAB121784908116024E0D8
S1132720C2B193F8251011601FE09AB14433B3E8A5
S1132730F05001A9A1E8F05001A9B1E8F810A2E80D
S1132740F81012E058649864D86418655865986560
S11327500BE012B94AF6031007E0E17801F020011A
S11327604B1E9B41DB43DB0F136007B0BDE8F08FCA
S1132770009423FD006CDC0230B48469606994F831
S1132780273043F0010384F8273094F82530002BD8
S113279018BF012B27D1032584F8255094F8245021
S11327A00DBB8578012B45F010058570C57845F083
S11327B00205C57083780CBF43F0040343F0200383
S11327C0837094F8273043F0020384F8273094F898
S11327D026305B0043F001030371E36C5B1CE3648C
S11327E0C3789B07FCD513460A46214630BC39E022
S11327F030B48469606994F8273003F0FE0384F8E8
S1132800273094F82530002B18BF012B25D1022541
S113281084F8255094F82450FDB98578012B45F0AF
S113282010058570C57845F00205C57083780CBF26
S113283043F0040343F02003837094F8273043F0FB
S1132840020384F8273094F826305B000371E36CAC
S11328505B1CE364C3789B07FCD513460A462146F8
S1132860BDE83000F0B404460D46184681B000219E
S11328704FF0FF3301E00846491C8842C0F03D8117
S1132880E678A778BF0610D481420CD095F827705B
S1132890BF070AD5B70608D4002085F82700A86228
S11328A0072085F82500084627E1B707E8D595F8FD
S11328B0277047F0020785F82770A778BF067DD5F3
S11328C0A778FF0645D5F6070AD5E07840F0020060
S11328D0E070072085F82500A86D401CA865CAE7AC
S11328E095F82560022E10D195F82760F607C2D41A
S11328F08142C1D2E67846F00206E67012F8016B16
S11329002671EE6C761CEE64B6E795F82560032E0E
S1132910B1D195F82760F607ADD5A67806F0EF0695
S1132920A670AE6A012EA6780CBF46F0080606F023
S1132930F706A670E67846F00206E670AE6A1EB99F
S1132940072085F8250096E72679491E8DF8006052
S113295092E795F82560032E8DD195F82760F60748
S113296089D5AE6A002E86D0814285D2E67846F0BB
S11329700206E670AE6A761EAE62AE6A012EA678D4
S11329800CBF46F0080606F0F706A670AE6A1EB93C
S1132990A67846F01006A670267902F8016BAE6A96
S11329A046B9A07800F0EF00A070072085F8250054
S11329B0481C0146AE6C761CAE645DE7F7060AD58A
S11329C0E07840F01000E070062085F82500286DBE
S11329D0401C2865084677063CD595F8247017B93D
S11329E06F6D7F1C6F6576070FD5052685F825600A
S11329F095F82760F6073FF53EAF8142BFF43CAF40
S1132A00A67846F01006A67074E7042685F82560BB
S1132A1095F82760F6077FF52EAF00297FF42BAFDA
S1132A20AE6A002E3FF427AFA17801F0EF01A17048
S1132A30E17841F00201E170A96A0129A1780CBF93
S1132A4041F0080101F0F701A17021798DF800101F
S1132A50194611E7F7063FF50EAFA778FF061BD519
S1132A60F6070AD5E07840F00200E070072085F808
S1132A702500A86D401CA865FDE695F82560022E8A
S1132A801CBF95F82560052E7FF4F5AE95F82760F8
S1132A90F6073FF5F0AE2BE795F82560032E1CBF33
S1132AA095F82560042E7FF4E6AE95F82760F607C6
S1132AB07FF5E1AEAE6A002E3FF4DDAE8142BFF495
S1132AC0DBAEE67846F00206E670AE6A761EAE62CB
S1132AD0AE6A012EA6780CBF46F0080606F0F7068B
S1132AE0A670AE6A16B9072685F82560267902F81D
S1132AF0016BAE6C761CAE64BEE601B0F0BC7047F0
S1132B0001000000020000000400000014000000A6
S1132B1016000000180000001A0000001C0000004D
S1132B201E00000022000000280000001C0000001D
S1132B302000000024000000280000002C000000F9
S1132B4030000000380000004400000030000000A5
S1132B503800000040000000480000005000000061
S1132B6058000000680000008000000050000000D1
S1132B706000000070000000800000009000000071
S1132B80A0000000C0000000F0000000A000000051
S1132B90C0000000E000000000010000200100006F
S1132BA04001000080010000E0010000400100003D
S1132BB080010000C001000000020000400200008B
S1132BC08002000000030000C00300008002000037
S1132BD000030000800300000004000080040000E3
S1132BE0000500000006000080070000000500004A
S1132BF000060000000700000008000000090000B3
S1132C00000A0000000C0000180B000000B583B09F
S1132C10029107490FF2091301910FF2F5110FF216
S1132C20AD0200910FF20D0102F038FF03B000BDB8
S1132C3085240000F0B5044665690A4681B004F1B4
S1132C4018012846FFF776FB00283CD1A469666981
S1132C50287802F019FF070008BF4AF6021032D0A4
S1132C6027622869FEF70AFBE062E06A50B1E8686F
S1132C70FEF704FBA063A06B30B9E06A02F0C0F970
S1132C800020E06204201EE040F20941E06AFEF701
S1132C90FFFA40F20A41A06BFEF7FAFA384602F056
S1132CA09BFFE06122460FF23D213846FEF79EFF6E
S1132CB0A0610122297AF8B202F07AFAB07840F0E1
S1132CC04000B070002001B0F0BD000030B581B00C
S1132CD005460C0014BF002D4AF603101ED060698F
S1132CE0C178890648BF4AF6011017D400218170C3
S1132CF0FF21C170E269A169206AFEF777FFA86924
S1132D0002F07EF90020A861E06A02F079F900205F
S1132D10E062A06B02F074F90020A06301B030BD42
S1132D202DE9F041846982B0884617466569FEF74B
S1132D3095FA206A02F07FFAFEF7EEFE00269FB1B4
S1132D40606B216B88420FD0E06A616B4A1C62633E
S1132D50085C08F8010B606B2169884224BF0020DD
S1132D606063761CBE42EBD394F8270040F0010068
S1132D7084F8270094F825008DF800009DF80000E1
S1132D8000281CBF9DF80000012829D1032084F8E5
S1132D90250094F8240018BBA87840F01000A8700F
S1132DA0E87840F00200E8709DF800000128A87857
S1132DB00CBF40F0040040F02000A87094F82700F5
S1132DC040F0020084F8270094F82600400040F008
S1132DD001002871E06C401CE064E8788007FCD5B1
S1132DE0A87880060DD494F82700800709D5E878E0
S1132DF0800606D4002084F82700A062072084F807
S1132E002500206A02F007FA304602B0BDE8F081DE
S1132E102DE9F0418469884617466569FEF71EFA74
S1132E20206A02F008FAFEF777FE00268FB1E06B05
S1132E30E168401C884228BF0020216C884208D0E9
S1132E40E16BA26B18F8013B761CBE428B54E06325
S1132E50EDD394F8270000F0FE0084F8270094F8DE
S1132E602500010018BF012825D1022184F825106E
S1132E7094F82410F9B9A978012841F01001A97037
S1132E80E97841F00201E970A8780CBF40F0040031
S1132E9040F02000A87094F8270040F0020084F865
S1132EA0270094F8260040002871E06C401CE06480
S1132EB0E8788007FCD5A87880060DD494F827001C
S1132EC0800709D5E878800606D4002084F8270016
S1132ED0A062072084F82500206A02F09CF930469D
S1132EE0BDE8F08110B50446606982B0C178626CB7
S1132EF0521C62648278920640F188808278D206FD
S1132F0037D5C90700F1DB8094F8251002290CD1CC
S1132F10E16B226C914200F0468194F8271001F095
S1132F200301022940F03F81E8E094F825100329C9
S1132F3002BF94F8271001F00301032940F0338104
S1132F40817801F0EF018170A16A012981780CBFB9
S1132F5041F0080101F0F7018170C17841F00201EC
S1132F60C170A16A002940F09F80072084F82500E1
S1132F701CE194F82510032902BF94F8271001F0EE
S1132F800301032940F00F81A16A002900F00B819D
S1132F90216B491C8DF800109DF8001022699142A4
S1132FA024BF00218DF800109DF80010626B91423F
S1132FB000F0F980C17841F00201C170A16A491E94
S1132FC0A162A16A012981780CBF41F0080101F0D6
S1132FD0F7018170A16A19B9817841F010018170FB
S1132FE0216BE26A03798B549DF800102163A16A76
S1132FF0002940F0D480817801F0EF01817007202E
S113300084F82500A06C401CA064CFE011F01002ED
S113301009D0C37843F01003C370062384F8253025
S1133020236D5B1C23654B0642D594F8242012B90A
S1133030626D521C6265490713D5052184F8251079
S113304094F8271001F00301022940F0AC80E16BF1
S1133050226C914200F0A780817841F010018170C8
S11330604CE0042184F8251094F8271001F00301A2
S1133070032902BF616B226B914240F09480A16AE4
S1133080002900F09080817801F0EF018170C1780F
S113309041F00201C170A16A012981780CBF41F09D
S11330A0080101F0F701817000798DF800007DE0DE
S11330B0002A78D18278D20634D5C9070CD5C178D4
S11330C041F00201C170E06B2064072084F8250000
S11330D0A06D401CA06569E094F8251002291CBF6E
S11330E094F8251005295ED1E16B226C91425AD0E7
S11330F094F8271001F00301022954D1C17841F05A
S11331000201C170A16B226C531C2364515C0171D8
S1133110206CE168884224BF00202064E06C401CDD
S1133120E06443E094F8251003291CBF94F82510AB
S1133130042902BF94F8271001F00301032932D1B6
S1133140A16A81B3216B491C8DF800109DF8001011
S11331502269914224BF00218DF800109DF80010CF
S1133160626B91421FD0C17841F00201C170A16A23
S1133170491EA162A16A012981780CBF41F00801AE
S113318001F0F7018170A16A11B9072184F82510B3
S1133190216BE26A007988549DF800002063A06CDA
S11331A0401CA06402E0206A02F045F894F827006D
S11331B002B040F0020084F8270010BD2DE9F04F62
S11331C00022012600234FF0FF3994460FF6380EF3
S11331D000240FF644080127DEF800A0D8F800B058
S11331E007FB00F50BFB0AFAB5FBFAF54D1B48BFCC
S11331F06D424D4503D2A946624623463E467F1C96
S1133200032FE9D3641C08F10408102CE3D30CF158
S1133210010C0EF1040EBCF1040FD9D3140404F410
S1133220403403F00F052C43751EED076D4245EA4B
S113323004064FF0FF3989004FF0000C0FF6180E0A
S11332405FF00004DEF800504D43A5402D1A48BF3E
S11332506D424D4502D2A94662462346641C102C99
S1133260F0D30CF1010C0EF1040EBCF1040FE7D302
S1133270180300F470409105304301F44001084301
S1133280190101F0F0010843910401F440210843BD
S1133290BDE8F08F00B583B002910FF20D210FF25B
S11332A0996301910FF20D710FF2951200910FF2D3
S11332B00D0102F0BFFC03B000BD00002DE9F04198
S11332C0064630680C46C0B202F060FD050005D029
S11332D03068FDF709FE10F1010F02D14AF20570C2
S11332E081E0286820F48040286043F6014028608B
S11332F0F42002F011FB070008BF042073D040F251
S11333000341FDF7C5FF27603D60B6E80E51381D47
S1133310A0E80E51B6E80E51303EA0E80E51002050
S11333207866B866F86638677867B867F867C7F884
S11333308000C7F88400C7F8880040480821C7F80F
S11333408C000020C7F8900070680022C0F305408C
S1133350C7F894000020C7F898003846C0F89C20AD
S1133360C0F8BC20001D491EF8D1C7F8DC20C7F8FE
S1133370E020C7F8E420C7F8E820C7F8EC20C7F835
S1133380F0204FF06050E860F1683069FFF716FFF5
S1133390E9680843E860706903283AD8DFE800F078
S11333A002252D31E86820F08060E860E86820F0AC
S11333B00070E860286840F080702860286840F455
S11333C07F002860B06801282BD12868400040089D
S11333D02860002028636FF00070E86228684008C5
S11333E0400028600020BDE8F081E86820F080609B
S11333F0E860E86840F00070DBE7E86840F080606F
S1133400D3E7E86840F08060E860E86840F0007066
S1133410CFE7206801F0F4FD002020604AF201703B
S1133420E1E718B9286840F00040D1E7206801F0CE
S1133430E7FD002020604AF20270D4E7FFFF00801D
S1133440F0B581B004460D0014BF002C4AF206709A
S113345027D02868016841F0010101600068002854
S11334601AD500264FEA0507D7F89C3018001FBF6D
S11334700120B040D5F89810014206D00004D7F8D6
S1133480BC20012100F47C109847761C3F1D082EB7
S1133490EAD30020C5F89800A06901F0B1FD00202E
S11334A0A06101B0F0BD00002DE9F04704460025FD
S11334B02668C81E00F0148140F6FE57C01B3BD09E
S11334C0401E52D0401E6AD0401E7DD0401E00F0E7
S11334D0C281401E00F0C381401E00F0A580401E42
S11334E000F0AD80401E00F0C180401E00F0C98095
S11334F0401E00F05081401E4CD0C01E00F0D98008
S1133500401E00F0E080401E00F02B81401E00F0C1
S11335103081401E00F04481401E00F04981401E6D
S113352000F04D81401E00F06081401E00F0D88004
S1133530401E00F0908190E1002A00F05781F0686D
S113354061690FF2C444C0F3014354F823300FF20D
S1133550C84600F00F0456F82440C00F634323FA12
S113356000F0B1FBF0F0106079E1002A00F03E8138
S1133570106810B94AF2037571E1306840F0010037
S11335803060F068116800F0FE476069FFF716FECE
S11335903843FFE0306840F0010030605FE1002A0A
S11335A000F02481F0684001F06805D5800154BF23
S11335B002200320106052E100F00070401E8041A0
S11335C0C043C00F10604AE1002A00F00F81306848
S11335D040F0010030601068032822D8DFE800F0D2
S11335E0020B0F18F06820F08060F060F06820F0A3
S11335F00070F060CFE0F06820F080600BE0F068CD
S113360040F08060F060F06820F00070F060C2E08C
S1133610F06840F08060F060F06840F00070F060A6
S1133620B9E04AF20175B6E0002A00F0DF803068A4
S113363000F00040401E8041C00F10600FE1002ADE
S113364000F0D480306840F0010030601068012838
S113365002BF30684000400803D020B9306840F011
S11336600040306097E04AF2027594E0002A00F0CE
S1133670BD80F068C00154BF01204FF400401060C9
S1133680EDE0002A00F0B280306800280ED5106802
S1133690B0F5004F04BFF06840F0807004D00128FA
S11336A004D1F06820F08070F060D8E04AF204752C
S11336B0D5E0002A00F09A8004F1DC00B0E8DA10CA
S11336C0A2E8DA10CBE0C4F8DC50C4F8E050C4F847
S11336D0E450C4F8E850C4F8EC50C4F8F050BEE02C
S11336E0606F00287FF4FCAFD4F888000028FBD179
S11336F0D4F890000028FBD1980304D540F6176055
S1133700814240F0AC803068002840F1A880002756
S11337104FEA04094FF00108D9F89C3018001EBF85
S113372008FA07F0D4F89810014206D00004D9F83A
S1133730BC20012100F47C1098477F1C09F1040986
S1133740082FE9D3C4F89850306840F00100306085
S11337503068400040083060306840F0004030601D
S113376019E0002A42D0F068C0F3C360401C106026
S113377075E0002A3AD0306840F001003060F0680B
S113378020F0F040F060F0681168491EC90601F0AD
S1133790F0410843F06030684008400030605EE06B
S11337A022B3D4F89400000400F47C10106056E0B6
S11337B0E2B11068C0F30540C4F894004FE0AAB128
S11337C000270123116803FA07F001EA004010F40E
S11337D07C1F05D05068C4F89C009068C4F8BC00F5
S11337E07F1C241D082FEDD339E012B94AF2077566
S11337F035E0D4F89400D2F800A0000400F47C1062
S113380040F00047D2F80480D2F80890BAF1000FD3
S113381025D03B4601224146204600F023F8F168BA
S1133820C1F3C361082904D3010A09F8011B08F193
S1133830010809F8010BD4F8E00008F10108401C64
S1133840C4F8E000D4F8E800401CC4F8E800BAF179
S1133850010ADED103E02C2501E040F609252846C3
S1133860BDE8F0872DE9F043804681B00D461E4641
S1133870D8F80070002A3AD0D8F89400D8F89810F4
S113388091EA000F25D03868002822D50EB3002411
S11338904FEA0809D8F89810D8F894200120A040DD
S11338A04A4002420CD0D9F89C301A0008D0E140BA
S11338B00004D9F8BC2001F0010100F47C10984701
S11338C0641C09F10409082CE4D3D8F89400C8F85E
S11338D098002878F968C1F3C361082924BF69787E
S11338E041EA0020F96A8901FCD530437863F86A1B
S11338F08003FCD5B86BF96A41F40031F962F96AC6
S1133900090308D5F96A41F40021F962D8F8E410F2
S1133910491CC8F8E410F96A090108D5F96A41F0AC
S11339200061F962D8F8F010491CC8F8F01080B2B0
S113393001B0BDE8F08300002DE9F0438769006A17
S11339409146002681B088463C6800F48035B9F180
S1133950000F2BD02068414600F000402843421E4F
S1133960D7F894009241000400F47C10D24340F054
S11339700043D20F3846FFF775FF25B1D7F8E8109A
S1133980491CC7F8E810D7F8E010491CC7F8E01044
S1133990E168C1F3C361082903D3011208F8011BCC
S11339A0761C761C08F8010B4E45D3D3304601B083
S11339B0BDE8F0832DE9F0418669904600250C4668
S11339C03768B8F1000F1BD0D6F894000122000428
S11339D000F47C1040F0004321463046FFF742FFDC
S11339E0F868C0F3C360082824BF641C6D1CD6F8B3
S11339F0E800641C401C6D1CC6F8E8004545E3D390
S1133A002846BDE8F0810000020000000300000029
S1133A100500000007000000020000000400000090
S1133A200600000008000000100000002000000054
S1133A3040000000800000000001000000020000BF
S1133A400004000000080000001000000020000036
S1133A50004000000080000001000000030000009E
S1133A60050000000700000010B584B0044602F011
S1133A702DFA78B9029067480FF2A51301900FF25E
S1133A80A5100FF2351200900FF21101204602F03A
S1133A9079FD01E04FF0FF3004B010BD2DE9F04195
S1133AA0054690460E4647465C2001F035FF04006B
S1133AB013D04FF47D71FDF7EBFB6C60FDF7CEFB8B
S1133AC0E7B942463146284602F007FA00285BD09F
S1133AD0FEF722F8204601F093FA4FF0FF3068E039
S1133AE004EB8002136A0B431362936C0B439364DD
S1133AF004EB8002D0683F1D0843D0603A68002A76
S1133B00DFD0E5D5012102F01F03C2F35210994022
S1133B100528DDD2404B53F820300B42D8D112F0A7
S1133B20706FE5D03D4B53F820300B42D0D102F0FA
S1133B307062B2F1807F12D0B2F1007F09D0B2F18D
S1133B40407F12D0B2F1806F18D0B2F1006FC7D0AD
S1133B50BEE704EB8002136A0B431362C8E704EB6D
S1133B608002536B0B435363C2E704EB8002136A76
S1133B700B431362536B0B435363B9E704EB8002AB
S1133B80536B0B435363B0E723482449052203686E
S1133B90E5682B4340F8043B256A666B0B683543A4
S1133BA02B43241D41F8043B521EF0D1FDF7B4FF12
S1133BB00020BDE8F0810000F0B5054681B06C68D6
S1133BC0FDF74CFB00224FF44271284602F0E8FC5A
S1133BD0002240F20631284602F0E2FC0E4821465B
S1133BE00E4A05230568CE68B54340F8045B0E6AA7
S1133BF04F6B15683E43B543091D42F8045B5B1ED9
S1133C00F0D1FDF789FF204601F0FAF9002001B058
S1133C10F0BD00003D600000740CFF1F880CFF1F06
S1133C200020704700207047F0B5044683B00D466D
S1133C302420FDF7A9FF060008BF4AF6016026D03C
S1133C402421FDF70DFA2A463146204602F06AFE89
S1133C50070017D12A463146204603F0A3F907008E
S1133C6010D10FF2D130029601900FF2C5300FF24D
S1133C706D3300900FF2B5220FF21901204602F0C5
S1133C8081FC074617B1304601F0BAF9384603B053
S1133C90F0BD00002DE9F04F8146D9F800000C4634
S1133CA0456A806881B01646017821B110F8011F79
S1133CB0641C0029FAD1207890BBB6B32868002888
S1133CC04BD11420FDF71EFF286030B10820FDF70A
S1133CD019FF686030B901F093F94AF6016001B048
S1133CE0BDE8F08F28683168016068680021416090
S1133CF02968484602F01AFE834638B9696848467E
S1133D0003F052F98346002800F0F280286801F09D
S1133D1077F9686801F074F9002028606860E7E0CA
S1133D2005F1080A05F1100826B94AF6036001B046
S1133D30BDE8F08F286820B94AF6056001B0BDE8F7
S1133D40F08F706820B94AF6066001B0BDE8F08FC4
S1133D502146A86903F07AFC20B94AF6046001B050
S1133D60BDE8F08F2146E86903F070FC0028F4D028
S1133D7000272846816919B17F1C001D022FF9D341
S1133D80022F08BF4AF6076000F0B3801C20FDF73D
S1133D90B9FE009010B94AF6016BA9E05AF8270061
S1133DA098BB2020FDF7AEFE4AF8270010B94AF66A
S1133DB0016B9AE02C20FDF7A5FE48F8270010B906
S1133DC04AF6016B8AE05AF827000099086058F80F
S1133DD02700009948600098C9F804007069401CE5
S1133DE04000FDF78FFE5AF82710C8605AF82700E4
S1133DF07169C26802EB4101891C01615AF827000C
S1133E00C16839B94AF6016B61E04FF0FF3001B087
S1133E10BDE8F08F41615AF82700C16881615AF802
S1133E202700076071885AF82700818031885AF882
S1133E302700C18058F82700B169C16158F82700EC
S1133E40B168816058F82700F168C16058F827000C
S1133E500760718858F827008180716858F8270036
S1133E60491E816158F827008169416158F827008B
S1133E70F169016258F82700316A01B901214162F0
S1133E805AF82710484602F032FE8346D0B958F853
S1133E902710484603F0A4F9834670B9204603F07E
S1133EA0F7FB05EB8705401CFDF72CFEA86118BB4A
S1133EB058F82710484603F015FA5AF827104846D0
S1133EC002F088FE5AF82700C06801F099F858F803
S1133ED0270001F095F8002048F827005AF8270039
S1133EE001F08EF800204AF82700009801F088F8C5
S1133EF0584601B0BDE8F08F002003E014F8012B10
S1133F004254401C21780029A969F7D10022425467
S1133F10B078800706D4484601B0BDE8F04F41F2BE
S1133F20011187E0002001B0BDE8F08F2DE9F043D6
S1133F300546286881B0446A6F6804F1080604F1F4
S1133F401008EFB9306810B14AF6086043E07068B1
S1133F500028F9D16168284603F081F800283AD195
S1133F602168284602F0B6FDA8BB606801F048F855
S1133F7000206060206801F043F8002020602AE0FF
S1133F8038680022D0F800907968284603F0CCFA0B
S1133F907968284603F0A6F9E8B93968284602F09A
S1133FA019FEC0B904EB8904A06901F029F80020C6
S1133FB0A0613868C06801F023F8386801F020F87F
S1133FC0786801F01DF8384601F01AF8002046F828
S1133FD0290048F8290001B0BDE8F08370B44068B6
S1133FE00B46006844690CB900201EE085692C1B4F
S1133FF0641004D50569C668AD1B04EB650452085A
S1134000A24238BF14467CB142690025128823F8C5
S1134010022B426922F8025B42610569AA4224BF6D
S1134020C2684261641EEFD1581A70BC7047000028
S1134030002070472DE9F04105460E461446686895
S113404009394AD041F2F802891A0ED0491E13D018
S1134050491E18D0491E1DD0491E22D0491E27D002
S1134060491E2CD0491E31D040E041682846BDE8A5
S1134070F041002203F07CB922462846BDE8F04115
S1134080002103F075B941682846BDE8F0410022DB
S113409003F04ABA22462846BDE8F041002103F065
S11340A043BA41682846BDE8F041002203F0B9B99B
S11340B022462846BDE8F041002103F0B2B9416828
S11340C02846BDE8F041002203F0E6B9224628461E
S11340D0BDE8F041002103F0DFB915202060002085
S11340E060600820A0600020BDE8F08122463146CF
S11340F0284602F071FA070040F6092818BF474520
S113410007D122463146284602F0B2FE404508BF98
S11341103846BDE8F0810000F0B5044681B0802047
S11341200F234FF0FF35022640F201174FF0010C28
S113413002FB06FE0CFB0EFEBEEB010E04D4AE45E4
S113414002D27546304663460CF1010CBCF1110FE6
S1134150EED37600BE42E9D3E16ADFF8442821F0C9
S11341600801E162E16AC001114000F47F400843A4
S1134170591E090101F0F001084340F46020E06297
S113418002E0052003F0A0FA606A0007F9D5E06AAE
S113419001B040F00800E062206B40F4801020631E
S11341A0F0BDF0B504460D46002016462860306880
S11341B081B00021C0B2FCF7C7FE10F1010F24D07A
S11341C0DFF8E007E062E06AC001FCD40020C4F834
S11341D0C0004FF4813060602820A0624FF00110CD
S11341E06064DFF8C427B1682046FFF795FF606A72
S11341F010F00300FBD130684FF6FF773946C0B2A8
S1134200FCF7A2FE10F1010F02D140F60B2014E0DE
S1134210DFF8980727636063E06A40F00060E062BB
S1134220E06A0001FCD4606AC00344BF0120286036
S1134230206B40F080002063002001B0F0BD00003E
S11342400B780FF6AC0C03F03F025CF822200AB99D
S1134250002B58D1036B43F080030363436ADB07ED
S1134260FCD44B6883604B7863F39752022B08BFEE
S113427042F400120CD0042B0AD102F44033B3F5FB
S1134280003F0EBF42F4403222F4403242F4003286
S113429043689BB24360CB68DBB102F4403CBCF59D
S11342A0403F18BF42F40012D1F808C0BCF1000F1F
S11342B018BF42F01002022B28BF42F0200213F173
S11342C0010F06D0D0F804C042F002024CEA0343C6
S11342D0436000230360C260DFF8D436D0F830C0F6
S11342E013EA0C0CFAD0BCF1010F1EBF016B41F4B0
S11342F0702141F0010105D1036B1B0605D5016B4B
S113430041F00111016301207047036BDB0306D503
S1134310016B41F0011101634FF0FF30704712F45B
S1134320403F0CD0036902F440320B61B2F5803F88
S113433005D142694A6182698A61C269CA61016BB5
S113434041F0010101630020704770B5044684B058
S11343500D46002C14BF002D0C202DD0FCF77EFF41
S1134360082001F0D9FA060003D1FDF7D5FB04209B
S113437022E040F21141FCF78BFF0FF2410003965B
S113438002900FF241100FF2316301900FF2D160ED
S11343900FF2D50200900FF25101204603F0B4F958
S11343A0040002BF3560002070601CBF304600F07E
S11343B027FEFDF7B1FB204604B070BD10B5040024
S11343C002D140F6012010BD606A10B940F60B20FE
S11343D010BD416811B140F60A2010BD00F010FE76
S11343E00020606210BD0000F0B581B0040008BF79
S11343F00C2036D0206818B940F6012001B0F0BD79
S1134400456A002D1CBF2E68002E05D03068C0B24E
S113441003F006FA070003D140F60B2001B0F0BD0B
S1134420FCF71CFF686820B1FDF776FB2C2001B077
S1134430F0BD01206860FDF76FFB4FF4017001F0DF
S11344406BFA050008BF04200BD040F21241FCF7C0
S11344501FFF656032462946384601B0BDE8F0408A
S11344609FE601B0F0BD000070B5040001D10C203E
S113447070BD206810B940F6012070BD456A002D5A
S11344801CBF2868002805D00068C0B203F0C8F932
S1134490060002D140F60B2070BDFCF7DFFE686811
S11344A0401E68600AD1DFF8FC04F062F06AC001C3
S11344B0FCD4606800F0A4FD00206060FDF72CFBD4
S11344C0002070BD2DE9F04F8146002789B08A464F
S11344D01546B9F1000F08BF0C2000F05E82D9F830
S11344E0000000281ABFD9F80440002C40F601202F
S11344F000F05382406A00281CBFD0F80080B8F155
S1134500000F00F06781D8F80000C0B203F088F90A
S1134510060000F05F81BAF1030000F02982811FD8
S113452000F0178241F2F820081A18D0401E00F05B
S11345305F81401E00F0EF81401E00F06981401E43
S113454000F07981401E00F0BA81401E00F0C18164
S1134550401E00F09781401E00F09B811AE2424603
S113456021463046FFF71DFE070040F01582002566
S1134570A946AA46ADF8005001950295039500A9F5
S11345803046FFF75DFE002840F0E48008208DF8F7
S113459000004FF4D57001908DF8015002950395F9
S11345A000A93046FFF74CFE012880F2D38030B9D1
S11345B004980199884240F0CD804FF0010A05200B
S11345C08DF800008DF8015001950295039500A91E
S11345D03046FFF735FE8346BBF1010F80F2BA8007
S11345E0BBF1000F2AD10498010F11F0070118BF85
S11345F010F4401F00F0C98005208DF800004FF42E
S113460040108DF80150019002950395052003F0A8
S11346105BF80BF1010B00A93046FFF711FE0028EF
S113462040F098800498002803D4BBF1C80FEDDB58
S113463001E04FF00109000140F1998037208DF825
S113464000008DF8015001950295039500A93046AC
S1134650FFF7F6FD01287DDA002844D501208DF806
S11346600000D448A9460190AA468DF8015002954D
S1134670039500A93046FFF7E3FD00286AD10498AA
S113468000F0C040B0F1005F08BF4FF0010A2720DE
S11346908DF800004FF4406001908DF801500295B0
S11346A0039500A93046FFF7CBFD002852D10498AA
S11346B0000ACE2840F09A8027208DF800004FF49D
S11346C0506001908DF801500295039500A9304681
S11346D0FFF7B6FD00283DD10498000AAA2840F04F
S11346E08580082050E069208DF800008DF8015085
S11346F001950295039500A93046FFF7A1FD48BB3B
S1134700049810F4401F32D0AB46052002F0DCFFC1
S113471037208DF800000BF1010B8DF80150019545
S11347200295039500A93046FFF78AFD90B96920E8
S11347308DF800008DF80150BAF1000F14BF9D48A8
S11347404FF4401001900295039500A93046FFF7FD
S113475077FD10B14AF601471EE10498002802D4FF
S1134760BBF1C80FD1DBBBF1C80F36DBAA46B9F1E8
S1134770000F1CBF04202060002D1EBF02202060FB
S1134780BAF1000F01D00320206019EA050F1EBF03
S113479005202060BAF1000F1CBF06202060D8F865
S11347A000000021C0B2FCF7CFFB10F1010F11D0C3
S11347B0D8F80420D8F808103046FFF7ADFCD8F834
S11347C000004FF6FF71C0B2FCF7BEFB10F1010F01
S11347D040F0E28040F60B20DFE00125BAF1000F43
S11347E0C5D04FF0000A4000C1D5BFE70720CBE792
S11347F029463046FFF724FD0128A8BF4AF60247A0
S113480080F2CA80002840F1C7804AF60347C3E01B
S1134810002D00F08180F06AD8F80810F26AC0090F
S1134820C2F3031200F4FF70521C12FB00F0B1FB40
S1134830F0F02860B0E0002D1CBF286800286BD081
S1134840706A40F20731084262D1D8F800000021B2
S1134850C0B2FCF779FB10F1010F10D02A68D8F828
S113486008103046FFF758FCD8F800004FF6FF71E7
S1134870C0B2FCF769FB10F1010F40F08D8040F6E7
S11348800B2789E0002D47D07068C004C00C286055
S113489082E0002D40D0706A40F20731084237D1DF
S11348A02868B0F5805F37D27068400B40037060B1
S11348B070682968C90450EAD14070606CE05DB347
S11348C0B06AC0F34101002918BF01291DD1296034
S11348D062E00DB3706A40F20731084218D12868CB
S11348E060B1012808D1B06A20F00600B062B06A55
S11348F040F00200B0624FE0022806D1B06A20F016
S11349000600B062B06AB06246E04AF6054743E08A
S113491040F60A2740E00DB90C273DE0F06A40F06C
S11349200060F062F06A0001FCD4306B000604D52C
S1134930306B40F0800030632760706AC00304D598
S1134940206818B90120206000E0276020682860F2
S113495022E01C202860042068604FF41E70A860C8
S113496099F80800C00717D54FF40E70A86013E03B
S1134970306B8007FCD5306B10F4E00F05D0306B42
S11349804AF6044740F4E0003063306B40F03200F4
S1134990306301E040F60927384609B0BDE8F08FDE
S11349A00F00F0FF00800001801A0600B3007F00B2
S11349B001000E00000030402DE9F04F81B0884620
S11349C0934600281CBF0168002941D04668002E88
S11349D01FBF486A00280068002839D00068C0B2A8
S11349E002F01EFF070033D03068022818BF0328E6
S11349F003D0072818BF082802D1786A4007FCD4DE
S1134A005C464FF4007940F2012A0EE07A6A1205FE
S1134A10FCD53A6A491E40F8042B0FD12A46311DB1
S1134A20404602F005FFA844641BA4B154452CBFC2
S1134A304D462546301DE91C8908EFD03A6B12F427
S1134A40E00FE3D0386B40F4E00040F0200038631E
S1134A504FF0FF3000E0584601B0BDE8F08F000091
S1134A602DE9F04F81B08A46934600281CBF0168A7
S1134A7000292CD04668002E1CBF486A002826D086
S1134A80006820B30068C0B202F0CAFE07001ED05E
S1134A905C4640F2012834B344452CBF4FF4007502
S1134AA0254606F104092A465146484602F0C0FE4E
S1134AB0641BE81CAA448008EDD0396B11F4E00FA4
S1134AC008D0386B40F4E00040F0100038634FF039
S1134AD0FF3009E0796A4905FCD559F8041B401EEA
S1134AE03962EAD1D7E7584601B0BDE8F08F00003B
S1134AF000000000000000010000090200001A0389
S1134B00000000040000020500001A0600001B0754
S1134B1000001A08000009090000090A00001A0B25
S1134B200000DB0C00001A0D000000000000000F64
S1134B3000001A1000001A1100001A1200000000F0
S1134B4000001A140000000000001A1600001A17D2
S1134B5000001A1800001A1900001A1A00001A1B83
S1134B6000001B1C00001B1D00001A1E000000009A
S1134B7000001A2000001A2100001A2200001A2343
S1134B8000001A2400001A2500001B26000002273A
S1134B9000001A280000022900001B2A000000005F
S1134BA00000000000000000000000000000000001
S1134BB000000000000000000000000000001A33A4
S1134BC000001A3400001A350000000000001A37F3
S1134BD000001B380000000000000000000000007E
S1134BE000001B3C00001B3D000000000000000012
S1134BF070B5044684B00D46302000F08DFE0600EA
S1134C0008BF04201ED000207060B060F0603561E1
S1134C10287A0121307006F11400FCF769FC0FF2C8
S1134C202900039602900FF251200FF2E103019044
S1134C300FF255100FF2810200900FF23501204659
S1134C4002F062FD04B070BD10B5446AE06860B95A
S1134C50606808B100F0D4F904F1140002F074FEA5
S1134C60204600F0CDF9002010BD40F60A2010BD0A
S1134C7030B5006881B0446A256904F1140002F07B
S1134C8065FEE068002804BF296800290AD1696824
S1134C9041B1481C00F040FE606008B9042008E0FF
S1134CA0012000E0401CE06004F1140002F084FEE6
S1134CB0002001B030BD000010B50068446A04F162
S1134CC0140002F043FEE068012815D1606898B131
S1134CD021690A685AB9496800291CBFA1680029DA
S1134CE005D00A546068FBF7A1FB0020A06060684F
S1134CF000F086F900206060E068401EE06004F186
S1134D00140002F059FE002010BD00002DE9F0410E
S1134D1000688846466A1546376906F1140002F0B1
S1134D2015FEF0680128B8BF4FF0FF302ADB386861
S1134D3008BB15B315F0030000F0088005F0030468
S1134D40FBF77AFB08F8010B641EF9D1AF0814D005
S1134D50FBF772FB08F8010BFBF76EFB08F8010B7D
S1134D60FBF76AFB08F8010BFBF766FB08F8010B7D
S1134D707F1EEDD101E04FF0FF3506F1140002F083
S1134D801BFE2846BDE8F0812DE9F0430068174674
S1134D90446A81B00E4625694FF00009B84604F113
S1134DA0140002F0D3FDE0680128B8BF4FF0FF30D3
S1134DB05EDB286880B1012853D1012FC0F25380F3
S1134DC009EB060000F088F808B9A8F1010809F118
S1134DD00109B945F4DB46E0686800BB012F42DBFA
S1134DE017F0030008D007F003053046FBF718FB63
S1134DF06D1E761C002DF8D1BF0834D03046FBF769
S1134E000FFB701CFBF70CFBB01CFBF709FBF01C41
S1134E10FBF706FB7F1E361D002FEFD123E0012F89
S1134E2021DB3378A168626820698B54A168491C2E
S1134E30A1604068814207D2626820788A1812F81B
S1134E40012C824209D140B139B1606800220A5470
S1134E506068FBF7EBFA4846A060761C7F1EE0D141
S1134E6001E04FF0FF3804F1140002F0A5FD4046C4
S1134E7001B0BDE8F0830000F0B5006881B0446A79
S1134E800E461746002504F1140002F05FFD032EC0
S1134E9004D041F20170864212D014E02069E16826
S1134EA099B1016889B9406800281CBFA06800282E
S1134EB00BD0616845546068FBF7B8FAA56004E05C
S1134EC03878207001E040F6092504F1140002F05E
S1134ED073FD284601B0F0BD09490968C90105D52B
S1134EE04FF06041D1F8002ED20702D40020704761
S1134EF000BF0A68002AFBD00078086001207047D0
S1134F00FCED00E010B509480468D4F8AC0158B1D0
S1134F10D4F8B01102F08CFDC4F88002C4F8840205
S1134F20D4F88002C4F8880210BD00BF0000FF1F3F
S1134F30F0B5324881B00468D4E95301401C41F112
S1134F400001C4E95301FCF789F9D4F8841108007D
S1134F5004D0D4F888018847C4F8540104F24C10F2
S1134F6002F0AEFDB4F86C51280036D0D4F8646178
S1134F706D1C1DE0B4F86C01401EA4F86C0170684F
S1134F8007607860B06820F48070B06040050BD58D
S1134F90B06820F48060B060306CF16B01604860F0
S1134FA0B06B0189491E01813046FCF73AFA3E464E
S1134FB06D1E12D0D6E91101D4E953233768994202
S1134FC0D8D301D89042D5D3D4E95323D6E91101DB
S1134FD08B42CFD828BF8242CCD2FCF79DFDD4F8B7
S1134FE0DC02010018BF8047D4F81403010003D089
S1134FF001B0BDE8F040004701B0F0BD0000FF1F64
S113500030B5344981B0096820B90120FCF716FD98
S113501001205DE0A0F10C0465682F4AA868904265
S113502004D03820FCF70AFD382051E0C9692089F2
S1135030C96889B288421CBF4FF6FF71884204D008
S11350400320FCF7FBFC032042E0FCF707F9686946
S113505005E0E961FCF760FDFCF700F9E8696969BE
S113506009B18C420BD2084621680A19824203D145
S11350700268511821608068A0606C611CE081683E
S11350808C4201D30029E4D10A4621680B199342CA
S113509006D112685118216081688968A16000E016
S11350A0A26001680A18A24205D122685118016061
S11350B0A168816000E084606869A8616869E8614A
S11350C02862E8686862E868A862FCF725FD0020A9
S11350D001B030BD0000FF1F70656D6C70B50446F3
S11350E00D46164605B92546FCF7B8F820896189AE
S11350F029B1884203D3FCF70FFD002070BD296855
S1135100401C31602E6075604E602081FCF704FD08
S1135110012070BD2DE9F04104460D46A54238BF7B
S11351200C2029D3154806681548C6F8F000154820
S1135130B062281B401CC008471CB80000F0ECFB00
S11351408046B8F1000F08BF042015D00321FCF7F6
S11351509FF8C6F83880F4623563A6F81C73032000
S1135160A6F81E033FB108EB8700001F00217F1E35
S113517040F80419FBD10020BDE8F0810000FF1FB6
S1135180679A0200D595020002480068C06B80F35C
S1135190088870470000FF1F04480068018B00293D
S11351A019BF406BC068C069C06D70470000FF1F25
S11351B0F0B4A0F11003FB282AD227489C0800EB86
S11351C0840403F00305ED00D4F80063FF274901CC
S11351D0AF4001F0E001BE43A9403143C4F80013DD
S11351E052B1FB2B12D25909012203F01F039A403A
S11351F040F8212000200CE0FB2B07D25809174966
S1135200012203F01F039A4041F82020002000E00F
S11352100C20F0BC70471038FB280AD241090E4A12
S1135220012300F01F0003FA00F042F821000020DF
S113523070470C2070471038FB280AD24109074AEE
S1135240012300F01F0003FA00F042F821000020BF
S113525070470C207047000000E100E080E100E0AE
S113526070B504460D46002C18BF002D08D02068E8
S11352702B4988423EBF61684FF47A72914201D350
S1135280002070BD274A00215368984206D3491C68
S113529089B202EB81035B689842F8D2298029889D
S11352A052F82120861A01F2B270288080B202F0EE
S11352B01FFC0121698034211B4A01FB0020416845
S11352C08E4207D36988491C698089B250F821103D
S11352D08E42F7D2698800EB810050F8040C134920
S11352E0301AB0FBF1F2AA80AA8801FB1200511C0B
S11352F0A9804FF46161B0FBF1F2EA80EA8801FB16
S113530012003C21B0FBF1F129812989C1EB011282
S1135310A0EB820068816068A881012070BD00BF95
S1135320015786F44C9D0200E49C02008051010068
S1135330F0B5044681B00D46002C18BF002D6DD089
S1135340A1894FF47A726089914205D391FBF2F3FB
S113535002FB13111818A18180B221893C2807D3BC
S11353603C2290FBF2F2C2EB02135118A0EB830033
S1135370608189B2E0883C2907D33C2291FBF2F298
S1135380C2EB02131018A1EB830180B2218118280B
S113539009D3A288182190FBF1F18A18A28001EBAD
S11353A04102A0EBC200E080A08800285BD06088A6
S11353B00D280AD322880C2190FBF1F18A1822804F
S11353C001EB4102A0EB82006080218840F2B270C0
S11353D0814213D2208011E0D01AA080481C608042
S11353E080B20D280AD322880C2190FBF1F18A188F
S11353F0228001EB4102A0EB82006080208802F051
S113540077FB0D22194B618802FB00328B5CA2886A
S11354109342E1D32388B3F50C6F01D3002022E03B
S1135420134F144E07EB8303F3583426124F06FB35
S1135430007000EB810050F8040C511E0F4AC01894
S113544002FB0100E1884FF4616202FB0100218943
S1135450C1EB0112618900EB820010FA81F028602F
S1135460A0896860012001B0F0BD00BFC89C0200A3
S11354704C9D020038E1FFFFE49C020080510100D2
S113548030B510494FF47A720C68416883B0914288
S113549007D30568B1FBF2F35D19056002FB131134
S11354A0416000A902F038FBFBF7D8FE04F2581261
S11354B004F24C1100A802F043FBFCF72DFB03B0EF
S11354C030BD00BF0000FF1F10B584B0044600A823
S11354D002F054FB214600A802F078FB04B010BD92
S11354E02DE9F34F83B090469B460E9E0F9F109C70
S11354F0DDF84490DDF848A0302000F00DFA0546B0
S11355000DB9042020E040F2F931FBF7C1FE049804
S11355100FF20D132860C5F80480C5F808B0EE60DA
S11355202F616C61C5F81890C5F820A00FF23930CE
S1135530029501900FF249200FF2B50200900FF28C
S11355401101039801F01EF805B0BDE8F08F0000CA
S1135550F0B50646306881B0456A0F461446686A5D
S113556020B1401C6862A86AB0603DE0286A10302F
S1135570FBF784FEE86208B9042036E04FF47F713B
S1135580FBF786FEE86A296A3A4601600021416019
S11355908160C160AC62B46005F11C01A8692B682C
S11355A09847060018D16B69180005D0009400AA2A
S11355B040F60251E8699847E00613D507200442F3
S11355C018BF0C2609D16B6918000BD000AA40F64D
S11355D01551E8699847064626B1E86AFFF710FDB9
S11355E0304602E001206862002001B0F0BD0000F6
S11355F030B500680024456A81B0686A401E68625C
S11356000BD16A68100003D0E969A8699047044681
S1135610E86AFFF7F5FC0020E862204601B030BDDF
S11356202DE9F04F006881B0476A9346D7F8288087
S1135630D7F81C9008F010008A465E468DF80000EA
S113564008F004047FE0F86A4168026891420DD2D0
S1135650C1684A1CC26009180B74C168026891428F
S113566004BF0021C1604168491C4160F86A416877
S11356700068814245D2484639698847002840D0AD
S11356804846B96888470346132BDCD14846B968B5
S113569088470346112BE9D0F86A416802689142B1
S11356A0F4D2C1684A1CC26009180B74C16802684C
S11356B0914204BF0021C1604168491C4160E5E793
S11356C04846B96888470346F86A416802689142C7
S11356D00DD2C1684A1CC26009180B74C168026803
S11356E0914204BF0021C1604168491C4160F86ACD
S11356F041680068814204D24846396988470028D5
S1135700DED1F86A416881B3491E416081684A1C50
S1135710826009180D7C01688A4204BF00218160FF
S11357204046800707D50D2D12D11CB10D214846E6
S1135730FA6890470A251CB129464846FA689047FA
S11357400AF8015B761EB6B14046C0078ED4CEE798
S1135750082DF0D1002CF3D008214846FA68904770
S113576020214846FA689047E6E79DF800000028A3
S1135770EAD0ABEB060B584601B0BDE8F08F000051
S11357802DE9F04F00681546476A81B0D7F82880A4
S11357900C466E1CD7F81C9008F0100A40F6155BF6
S11357A005E000BF14F8011BF869FA689047761EFB
S11357B01AD04046C0072ED44046800706D520782C
S11357C00A2803D10D214846FA689047BAF1000F20
S11357D0E8D07B691800E5D000AA5946F8699847D3
S11357E000990843DED1AD1B284601B0BDE8F08F17
S11357F0F96A4A680B689A420DD2CA68531CCB6096
S113580052181074C8680A68904204BF0020C86027
S11358104868401C4860F86A416800688142CBD2FD
S11358204846396988470028C6D04846B968884739
S11358301328DDD14846B96888471128EBD0F96AA6
S11358404A680B689A42F5D2CA68531CCB60521856
S11358501074C8680A68904204BF0020C860486891
S1135860401C4860E6E7000070B515460268002455
S1135870536A8A1F09D0D21E012A1BD940F6F84662
S1135880921B0DD0521E0ED01AE0D86A406810B197
S1135890012028601BE0D86919698847286016E050
S11358A0986A286013E02A689A622A6882605869B4
S11358B068B107E00F2028606C604C20A86006E007
S11358C0586920B1D8692A465B699847044620463E
S11358D070BD0000052810D8DFE800F003050709B3
S11358E00B0D07487047074870470748704707483B
S11358F0704707487047074870470020704700BF4B
S113590000A0064000B0064000C0064000D006409B
S113591000A00E4000B00E40034901230968D1F8ED
S1135920EC225031FBF74CBF0000FF1F2DE9F04F74
S113593085B08046894692469B460E9C0F9D109EDC
S11359402420FFF7E9FF07460FB904201FE04FF4B6
S11359508161FBF79DFCC7F80090C7F804A0C7F865
S113596008B0FC603D617E610FF22900039702904C
S11359700FF2CD000FF2B90301900FF2BD000FF248
S1135980810200900FF23901404601F0BDFE05B0DE
S1135990BDE8F08F30B50446656A81B0E86958B94E
S11359A06A68100002D0A969686990472846FFF721
S11359B027FB0020606201E040F60A2001B030BD00
S11359C0F0B50446206881B00D461646476AFBF7D9
S11359D045FCF86918B1FCF79FF82C200EE0012073
S11359E0F861FCF799F83E62A6602A4607F11801AF
S11359F078693B68984708B10021F96101B0F0BDAE
S1135A0030B5006881B00024456AFBF727FCE869DB
S1135A10401EE86106D16A68100003D0A9692846CF
S1135A2090470446FCF778F8204601B030BD0000EA
S1135A300068406A836818470068406AC36818476A
S1135A4030B503461B68002081B05B6A092905D183
S1135A501721116050604C21916004E01C692500FD
S1135A601CBF9869A04701B030BD000018B10128DF
S1135A7003D0002070470248704702487047000076
S1135A80006006400070064018B1012803D00020D1
S1135A907047282070472920704700002DE9F04FF7
S1135AA085B08046894692469B460E9C0F9D109E6B
S1135AB02420FFF731FF07460FB904201FE040F20E
S1135AC00741FBF7E5FBC7F80090C7F804A0C7F847
S1135AD008B0FC603D617E610FF2290003970290DB
S1135AE00FF2C9000FF2B50301900FF2B9000FF2E3
S1135AF07D0200900FF23901404601F005FE05B029
S1135B00BDE8F08F30B50446656A81B0E86958B9DC
S1135B106A68100002D0A969284690472846FFF712
S1135B206FFA0020606201E040F60A2001B030BD47
S1135B30F0B50446206881B00D461646476AFBF767
S1135B408DFBF86918B1FBF7E7FF2C200CE001206E
S1135B50F861FBF7E1FF3E62A660294638463A68E1
S1135B60904708B10021F96101B0F0BD30B500687B
S1135B7081B00024456AFBF771FBE869401EE861C7
S1135B8006D16A68100003D0A969284690470446E4
S1135B90FBF7C2FF204601B030BD00000068406A38
S1135BA0836818470068406AC368184730B50346DD
S1135BB01B68002081B05B6A092905D11621116098
S1135BC050604A21916004E01C6925001CBF98695B
S1135BD0A04701B030BD000030B50446144881B080
S1135BE00568A86B18B91820FBF728FF1DE0E86AC0
S1135BF0844224BF286BA04203D21420FBF71EFF6B
S1135C0013E0FBF72BFBE86AA96B201AC00851F8D4
S1135C10205000E02D69002D1CBF2868A042F9D156
S1135C20FBF77AFF0DB1E86800E0002001B030BD59
S1135C300000FF1F2DE9F04F85B08046894692464B
S1135C409B460E9C0F9D109E2420FFF765FE074681
S1135C500FB904201FE04FF48061FBF719FBC7F86C
S1135C600090C7F804A0C7F808B0FC603D617E61ED
S1135C700FF22900039702900FF2C9000FF2B50347
S1135C8001900FF2B9000FF27D0200900FF235017E
S1135C90404601F039FD05B0BDE8F08F10B504466B
S1135CA0606AC16959B94268110002D081694069CA
S1135CB09047606AFFF7A4F90020606210BD40F6C7
S1135CC00A2010BDF0B50446206881B00D46164682
S1135CD0476AFBF7C3FAF86918B1FBF71DFF2C20DC
S1135CE00EE00120F861FBF717FF3E62A6602A462A
S1135CF007F1180178693B68984708B10021F961F8
S1135D0001B0F0BD30B5006881B00024456AFBF7EE
S1135D10A5FAE869401EE86106D16A68100003D05C
S1135D20A969284690470446FBF7F6FE204601B0D1
S1135D3030BD00000068406A836818470068406A04
S1135D40C368184770B503461C6800200D46646A92
S1135D50093D0ED040F60466AD1B02D06D1E03D083
S1135D600DE0216A116070BD1168216211689960AB
S1135D7070BD1021116050604C21916070BD256987
S1135D802B0002D0236AA069A84770BD032804D25F
S1135D900FF20C0151F820007047002070470000FA
S1135DA000C0024000D0024000C00A402DE9F04388
S1135DB004462279DFF84007E168012A81B00268CD
S1135DC016D111430160016C226911430164D0F8BA
S1135DD0801062691143C0F88010D0F8C010A26925
S1135DE01143C0F8C010D0F80011E269114316E065
S1135DF022EA01010160016C226991430164D0F837
S1135E00801062699143C0F88010D0F8C010A26974
S1135E109143C0F8C010D0F80011E2699143C0F872
S1135E200011002526460FF238770FF248780FF25A
S1135E304C79306A716B0843B16C0843002101222C
S1135E40F3688A4013422ED0B36CD6F820C0D6F83B
S1135E5034E0134002EA0C0C1EEA020F14BF4FF0A8
S1135E60040E4FF0000EBCF1000F18BF4FF0020CEF
S1135E705B1E9B41DB434CEA0E0C4CEAD37313F8D4
S1135E8009303A684FF4807C1B0403F470234CEA15
S1135E90030342F8213023792BB952F8213043F01F
S1135EA0030342F82130491C2029C8DB30B1012208
S1135EB015F8081005F16700FFF77AF96D1C3F1D0E
S1135EC0361D052DB5DB01B0BDE8F08300B581B00A
S1135ED0FBF771F8002001B000BDF0B506460F468F
S1135EE08BB014467568002F1CBF3878002867D023
S1135EF00B220FF22861384601F0B4FE30B10C22B7
S1135F000FF22461384601F0ADFE08B901200FE01C
S1135F100A220FF22061384601F0A4FE38B10B22A8
S1135F200FF21C61384601F09DFE002848D1002084
S1135F302871DFF8C8154FF0FF300860DFF8C0158E
S1135F400FF229570860DFF8BC1500220860DFF85B
S1135F50B8150860DFF8B415086039466720FBF708
S1135F6045FE68B3002239466820FBF73FFE38B38C
S1135F70002239466920FBF739FE08B3002239466E
S1135F806A20FBF733FED8B1002239466B20FBF7B9
S1135F902DFEA8B1002240F20731304600F04EF841
S1135FA0002C45D02879012842D1002105A80022DF
S1135FB00B460EC006C000A80EC006C001200AE0B1
S1135FC04FF0FF3038E005AB53F821301A4305ABEE
S1135FD043F82120241D236873B103F01F02C3F387
S1135FE0521100FA02F2D2B25B00ECD500AB53F8C6
S1135FF021301A4300ABEBE7DFF814050099016088
S11360000599416001990164069941640299C0F8B7
S113601080100799C0F884100399C0F8C01008993B
S1136020C0F8C4100499C0F800110999C0F804110B
S11360302846FFF7BBFE00200BB0F0BD2DE9F0476A
S1136040446840F2013090B01546091A16D0491E32
S113605052D0491E00F09A80491E00F03581491E35
S113606000F0DF80491E00F0D081491E00F06181FC
